:020000040000FA
:10000000B0020020AD00000037080000E907000042
:10001000FFFFFFFFFFFFFFFFFFFFFFFFFFFFFFFFF0
:10002000FFFFFFFFFFFFFFFFFFFFFFFFC108000013
:10003000FFFFFFFFFFFFFFFF6908000079090000D5
:100040002101000021010000210100002101000028
:10005000A5030000090400006D040000FFFFFFFF7E
:1000600021010000FFFFFFFFF9070000FFFFFFFF76
:100070002101000089080000A508000021010000FE
:1000800021010000310200004902000021010000AE
:1000900021010000210100002101000021010000D8
:1000A000FFFFFFFF21010000210100001D488047E4
:1000B0001D4880471D4800471D480169002908D197
:1000C0004169002905D18169002902D1C16900294E
:1000D00009D01848C1680901090D00290ED0052969
:1000E0000CD006290AD0BFF34F8F13481349016083
:1000F00013491248C860BFF34F8FFEE70E480168EE
:100100000E48884200D070470E480F4901600A48E7
:100110000E4901607047FEE7FEE7FEE7FEE7FEE7F7
:10012000FEE70000B9000000850900005101000051
:100130000003084080010840000000200400FA0588
:1001400000ED00E000810840010000000000000018
:100150000348854600F026F800480047950F000048
:10016000B002002070B50446002903D000202022F0
:10017000012310E0002801D00020C043C046C04643
:100180000DE02546D5408D4205D30D469540641BB4
:100190001D46954040191546521E002DF1DC2146A2
:1001A00070BD0000064C0125064E05E0E36807CC53
:1001B0002B430C3C98471034B442F7D3FFF7CCFFE5
:1001C000C0110000E0110000F0B582B001920A46B3
:1001D000C000164BC01800240AE00168B143214357
:1001E0000160009C21460831001D002C0C461AD1EC
:1001F0001346E3401B06F5D001250094A5400027D7
:100200003C463E463B4603E03F1D5B1C202FE4D0AE
:100210001146D9402942F7D00199B9400C430F212A
:10022000B9400E43F0E702B0F0BDC04620200240C6
:1002300080B5034800F014F802480068804780BD8C
:10024000006007400400002080B5034800F008F873
:1002500002480068804780BD007007400800002009
:100260004168012291434160BFF34F8F7047000006
:1002700080B54F2001020020024A012300F076F8E9
:1002800080BDC04601000331F0B581B00446184E70
:10029000776900F02FF80546206007203840401E9F
:1002A000062809D878440079400087440C030305E8
:1002B00005070A001E4D06E0002504E00120C503E5
:1002C00001E07D20050265603068052800D3052027
:1002D000C540A56003212846FFF744FFB1684903E4
:1002E000490F072901D0CD402846E06001B0F0BD9C
:1002F000208008400D490846183800684A680846BA
:1003000014380068800501D4002070470848002A8E
:100310000AD40A685201120F01D0504300E0054888
:1003200009684902890FC8407047C04618800840D4
:1003300000127A000020A107B0B584B0044640093D
:100340008000094945586846FFF79EFF1F2020405E
:10035000032181402940C1402E2C00D1891C0298E4
:10036000C84004B0B0BDC0463880084070B50C4CE1
:100370002568002B01D0054300E08543A668E068AE
:100380002560002B01D00E4300E08E43A660002BB9
:1003900002D01043E06070BD9043E06070BDC04685
:1003A0002480084080B50020014600F08BF9002829
:1003B00005D0BF4800688047002000F07DF900208C
:1003C000012100F07FF9002805D0BA480068804775
:1003D000002000F071F90120002100F073F90028DD
:1003E00005D0B34840688047012000F065F901203E
:1003F000014600F067F9002805D0AE484068804704
:10040000012000F059F980BD80B50220002100F0E4
:1004100059F9002805D0A64880688047022000F0DE
:100420004BF90220012100F04DF9002805D0A14828
:1004300080688047022000F03FF90320002100F08F
:1004400041F9002805D09A48C0688047032000F091
:1004500033F90320012100F035F9002805D0954833
:10046000C0688047032000F027F980BD80B50420D4
:10047000002100F027F9002805D08D480069804749
:10048000042000F019F90420012100F01BF90028D4
:1004900005D0884800698047042000F00DF9052048
:1004A000002100F00FF9002805D0814840698047FD
:1004B000052000F001F90520012100F003F90028D2
:1004C00005D07C4840698047052000F0F5F80620FB
:1004D000002100F0F7F8002805D0754880698047B2
:1004E000062000F0E9F80620012100F0EBF80028D2
:1004F00005D0704880698047062000F0DDF80720AD
:10050000002100F0DFF8002805D06948C069804765
:10051000072000F0D1F80720012100F0D3F80028CF
:1005200005D06448C0698047072000F0C5F808205E
:10053000002100F0C7F8002805D05D48006A804718
:10054000082000F0B9F80820012100F0BBF80028CD
:1005500005D05848006A8047082000F0ADF809200F
:10056000002100F0AFF8002805D05148406A8047CC
:10057000092000F0A1F80920012100F0A3F80028CB
:1005800005D04C48406A8047092000F095F80A20C1
:10059000002100F097F8002805D04548806A804780
:1005A0000A2000F089F80A20012100F08BF80028C9
:1005B00005D04048806A80470A2000F07DF80B2073
:1005C000002100F07FF8002805D03948C06A804734
:1005D0000B2000F071F80B20012100F073F80028C7
:1005E00005D03448C06A80470B2000F065F80C2025
:1005F000002100F067F8002805D02D48006B8047E7
:100600000C2000F059F80C20012100F05BF80028C4
:1006100005D02848006B80470C2000F04DF80D20D5
:10062000002100F04FF8002805D02148406B80479A
:100630000D2000F041F80D20012100F043F80028C2
:1006400005D01C48406B80470D2000F035F80E2087
:10065000002100F037F8002805D01548806B80474E
:100660000E2000F029F80E20012100F02BF80028C0
:1006700005D01048806B80470E2000F01DF80F2039
:10068000002100F01FF8002805D00948C06B804702
:100690000F2000F011F80F20012100F013F80028BE
:1006A00005D00448C06B80470F2000F005F880BDDE
:1006B0004C0000200C00002001218140094801600D
:1006C00041607047074A1368C340DB0707D0526890
:1006D000C24001201040401A411E8841704700204E
:1006E0007047C0464440024010B5094C08212046DE
:1006F00000F0D6FA0748012100F0D2FA064840215E
:1007000000F0CEFA0421204600F0CAFA10BDC0461F
:1007100000400B4000000B4000200B40002A03D09B
:1007200002680A430260704702688A4302607047A9
:1007300070B500252C462B4603E0AD1C4908202D42
:1007400008D0CE07F9D00326AE4034431646AE405B
:100750003343F2E74169A143416141691943416172
:1007600070BD012A07D0002A0BD182680A4382603B
:100770000C30C9430AE0C2680A43C2600830C9436A
:1007800004E082688A4382600C30C94302680A40F0
:1007900002607047F0B581B00E460920C102002505
:1007A000012428462A462346FFF7E0FD10210627AC
:1007B00028463A46FFF708FD202128463A46FFF72B
:1007C00003FD084F3846314600F0FCF9384629460B
:1007D000224600F02BFA38462146224600F026FA3F
:1007E00001B0F0BD00100440024801680029FCD0AF
:1007F0007047C046980000207047F0B581B0009067
:10080000F0C90B6848684A7A12023243097A09062D
:100810001143214329433943194301430098016798
:1008200001B0F0BD4A1E91410901026F10239A43A5
:10083000511801677047704780B50020014600F0ED
:1008400009F880BD01208002014908607047C04658
:1008500000E100E0024A0A40024302480260704799
:1008600080FFFF1F08ED00E0704780B584B00020D6
:100870000390012109020291E1214902019101A99C
:10088000FFF788FF04B080BD80B501200102034856
:1008900000F00AF902480068804780BD004003402C
:1008A0008C00002080B501200102034800F0FCF814
:1008B00002480068804780BD00400740900000204B
:1008C00070470000001F4142414188001F490A68EB
:1008D00004239A43101808607047C04610B50420DE
:1008E000C043FFF7EFFF7D20810108480068FFF754
:1008F00039FC00F02DF80124204600F01DF80020FE
:1009000000F006F8204600F003F810BD00000020BB
:10091000012805D0002809D10C48002181607047CA
:100920000A48016801220A430260704707480168CB
:100930000122914301607047411E884140000349F4
:100940000A6802239A4310180860704710E000E01C
:10095000014908607047C04614E000E0402801D01B
:10096000410000E00221801E80B23F2801D3002018
:10097000C14388B2704700003D480168491C0160CE
:100980007047C046F0B584B0324810210391016031
:100990003148012202603148C16A40230293194361
:1009A000C1622F490B68272BFCD103218B02046AFB
:1009B0009C430462D30204681C43046043681B0721
:1009C000FCD503680B4304218B430360016B0723B1
:1009D00019400329FAD1234C2168114306250195BA
:1009E000A943216000210091C161510205688D4336
:1009F00005601502041F26682E432660C66A029F02
:100A0000BE43C66226682E4326600525EC05446178
:100A100004680C43046041688907FCD5114E3168B5
:100A200002240C43AC4334600099C1610168114356
:100A3000019CA1430160016B19400129FBD1316880
:100A4000039B19433160910202688A43026004B03B
:100A5000F0BDC0460C810840008308400480084077
:100A600008A1064000020840014800687047C046DF
:100A70009C00002010B5490001238B40046D9C436D
:100A800004658A40016D1143016510BDB0B5490090
:100A900001248C409C40056DA54305658A409A4021
:100AA000016D11430165B0BDC943C167BFF34F8FED
:100AB00070474A1E9141026901239A43511801610E
:100AC000704789004018902140587047F0B584B0B5
:100AD0000746294A6C3A904201D0012500E00325DF
:100AE000087843061B0E03939D403B6DAB433B656B
:100AF0007B6DAB4380003E183046A03002903046FC
:100B00009030019040368C7938465430974210D15D
:100B1000ED430095CD796D002543039CA5401D4311
:100B20000560087A4B7A5C00044313480368009D13
:100B30002B40039DAC401C430460FF200830336809
:100B40008343336048883368034333604889019B9B
:100B500018608889029B18600B7997422A4601D059
:100B6000184602E04879400018439040396D01432F
:100B7000396504B0F0BDC0466CC00240802281508F
:100B800070470000024684320B8853604A888423F1
:100B9000C250032212040368934303600122120629
:100BA0000368934303608A68036813430360F84A49
:100BB000904202D10A79024B1A6089898167704795
:100BC0008CC00240B0B50C464168124A0A40E18828
:100BD0001143A2880A432189114362890A43426072
:100BE00001218907884208D00C49884208D00C4965
:100BF00088420DD10C4D1C2004E0074D182001E067
:100C0000084D1E20FFF798FB2168FFF7ABFA28601C
:100C1000B0BDC046FCE0FFFF2400004000100440CF
:100C200000100040241004402410004010238B408A
:100C3000002A03D0416819434160704741689943D5
:100C40004160704710B582B0694600228A800092E8
:100C500001230B54087818404C78E407A40F20189F
:100C60008978C907490F401800049903FFF77EFBF4
:100C700002B010BD80B500F0BCF980BD10B50446CF
:100C8000FFF7F2FEA04201DA002010BD012010BDE6
:100C900010B50446FFF7E8FE001910BD70470000CC
:100CA00070B50024F94AF84B02E0641C032C06D20C
:100CB000A50056598642F8D159510324F5E770BD75
:100CC00010B5B34C00212046FFF7FBFE81B2204651
:100CD000FFF754FF10BDC046F0B583B00F46014684
:100CE0000024E043A64B1A6802924A1E3F2A00D90C
:100CF0004DE052007A449288520097443F006E00C3
:100D00001A0186001A011A011A0199001A011A0122
:100D10001A011A011A011A011A01BA001A011A015C
:100D20001A011A011A011A011A011A011A011A01EB
:100D30001A011A011A011A011A01CE001A011A0128
:100D40001A011A011A011A011A011A011A011A01CB
:100D50001A011A011A011A011A011A011A011A01BB
:100D60001A011A011A011A011A011A011A011A01AB
:100D70001A011A011A011A011A01F200012119605F
:100D8000804801608048042202608048DFE08029BA
:100D900000D1D0E001252A02914200D0C9E01A60BA
:100DA0007848056078480421016078484021016056
:100DB0000197F54F0026384629462A463346FFF765
:100DC00065FE032138462A463346FFF75FFE384664
:100DD000019F31462A463346CCE002201860EA4E95
:100DE0000025304629462A462B46FFF74FFE674826
:100DF0004021016063480121016030460A462B46CC
:100E0000FFF744FE0321304683E03E4604271F607F
:100E1000DD48032100252A462B46FFF737FE5A48B6
:100E200007603746574801210160D7480A4613E05A
:100E300008201860D4483E460127002539462A4636
:100E40002B46FFF723FE4F4807604F4804210160FF
:100E50000321CD483A4637462B46FFF717FECA48CE
:100E600029462A462B46FFF711FE4848001F40211D
:100E700056E010201860C448002529462A462B4613
:100E8000FFF704FE4148402101603F480421016012
:100E900003213E460127BC4812E020201860BA48D2
:100EA000032100252A462B46FFF7F0FD3648042192
:100EB00001603648402101603E460127B24829467C
:100EC0003A462B46FFF7E2FDAF4839462A462B4605
:100ED000FFF7DCFD2B48001F07603746012F22D0AB
:100EE00024E040261E60A8480197012700253946C6
:100EF0002A462B46FFF7CAFD2248076023480660B2
:100F0000A14829463A46019F2B46FFF7BFFD032122
:100F10009D482A462B46FFF7B9FD1B48001F0421B8
:100F20000160012F02D1164802990160FFF7C8FE47
:100F3000204603B0F0BD802018601248001F012138
:100F400001601148001F042202601048001F402267
:100F500002608D4E002530462A462B46FFF796FD4F
:100F6000032130462A462B46FFF790FD304629469E
:100F70002A462B46FFF78AFD012FD7D1D3E7C0467B
:100F80009400002028000B4028400B4028200B40F4
:100F900000C0024082B0FFF7A7FBFFF76BFEFA200C
:100FA000FFF776FEAA200090FFF772FE05460026A6
:100FB000022409E0A0B2FFF7D1FCC4B2A01E414256
:100FC00041413140019E76182846FFF757FE002820
:100FD000FAD00196F7B20098C01BFFF759FE0546FC
:100FE000E0B200263146FFF777FE472FE2D2012616
:100FF000E0E780B5FFF720FCFFF73AF9FFF735FC93
:10100000FFF76CFC00F004F800F042F880BD00002F
:10101000F0B583B0002402E0641C032C31D02046DC
:10102000FFF710FEA000184909580029F4D016490E
:10103000091802911549081800900125019402E051
:101040006D00280CE8D1029800682842F8D00126EB
:10105000204629463246FFF7B7F800980768ACB239
:10106000022238462146FFF77CFB03223846214600
:10107000FFF75EFB38462146019C3246FFF74EFBE8
:10108000DEE703B0F0BDC046A0000020B4110000B0
:10109000F0B591B00124A10300252846224623463D
:1010A000FFF764F91021042720463A46FFF78CF831
:1010B000E10320463A46FFF787F8A10228463A4660
:1010C000FFF782F8610220463A46FFF77DF82002DA
:1010D0000DA988810D710F9501952A480D902A4818
:1010E000FFF750FD09AE06207080357027480A9042
:1010F00027480B9024483146FFF7E8FC1E257581F0
:10110000347021483146FFF7E1FC758103200090DF
:1011100030701D4805463146FFF7D8FC2846394651
:10112000FFF7C2FCFFF78EFB28462146FFF7C1FC04
:1011300028462146FFF776FB2846019F394622467E
:10114000FFF798FC284621462246FFF793FC02262B
:10115000284631462246FFF78DFC28460099224654
:10116000FFF788FC02A90F830696059420200790BC
:10117000049720050390600502902846FFF73DFB89
:1011800011B0F0BD6400280000C002400101000160
:1011900000011E0002E008C8121F08C1002AFAD18F
:1011A00070477047002001E001C1121F002AFBD1E7
:1011B0007047000000000B4000200B4000400B4037
:1011C000E0110000000000209800000094110000D1
:1011D000781200009800002018020000A4110000FE
:1011E000005A62029D0C00009D0C00009D0C000046
:1011F0009D0C00009D0C00009D0C00009D0C00004B
:101200009D0C00009D0C00009D0C00009D0C00003A
:101210009D0C00009D0C00009D0C00009D0C00002A
:101220009D0C00009D0C00009D0C00009D0C00001A
:101230009D0C00009D0C00009D0C00009D0C00000A
:101240009D0C00009D0C00009D0C00009D0C0000FA
:101250009D0C00009D0C00009D0C00009D0C0000EA
:101260009D0C00009D0C00009D0C00009D0C0000DA
:081270009D0C000001000000CC
:04000005000000AD4A
:00000001FF
