:020000040000FA
:1000000030020020AD0000001701000019010000BF
:10001000FFFFFFFFFFFFFFFFFFFFFFFFFFFFFFFFF0
:10002000FFFFFFFFFFFFFFFFFFFFFFFF1B010000C0
:10003000FFFFFFFFFFFFFFFF1D010000A102000007
:100040002101000021010000210100002101000028
:10005000210100002101000021010000FFFFFFFF3E
:1000600021010000FFFFFFFF21010000FFFFFFFF54
:1000700021010000210100002101000021010000F8
:1000800021010000210100002101000021010000E8
:1000900021010000210100002101000021010000D8
:1000A000FFFFFFFF21010000210100001D488047E4
:1000B0001D4880471D4800471D480169002908D197
:1000C0004169002905D18169002902D1C16900294E
:1000D00009D01848C1680901090D00290ED0052969
:1000E0000CD006290AD0BFF34F8F13481349016083
:1000F00013491248C860BFF34F8FFEE70E480168EE
:100100000E48884200D070470E480F4901600A48E7
:100110000E4901607047FEE7FEE7FEE7FEE7FEE7F7
:10012000FEE70000B9000000BD0200005101000020
:100130000003084080010840000000200400FA0588
:1001400000ED00E000810840010000000000000018
:100150000448854600F01EF800480047D10300001F
:10016000C046C0463002002030B50B460146002094
:100170002022012409E00D46D5409D4205D31D46AD
:100180009540491B2546954040191546521E002DA5
:10019000F1DC30BD064C0125064E05E0E36807CCD6
:1001A0002B430C3C98471034B442F7D3FFF7D4FFED
:1001B0006004000080040000084AC000801807297D
:1001C00001D9001D0839026889000F238B409A432A
:1001D00001238B401343036070470000202002403E
:1001E00010B51748C16A012292031143C162416AE6
:1001F0003F2212041143416202210846FFF7DCFF4F
:10020000104C2168042001432160216A01432162CE
:1002100003210220FFF7D0FF21680820014321605D
:10022000216A0143216206210120FFF7C5FF06482C
:10023000026840210A430260026A0A43026210BD5A
:100240000080084000400B4000200B40032808D2EB
:100250000449800009580A6A024B0C3318580243BB
:100260000A62704710000020032808D20449800069
:1002700009580A6A024B0C33185882430A627047C5
:1002800010000020032808D20449800009580A6A97
:10029000024B0C33185842400A627047100000208D
:1002A0000549C868401CC8600A68904203D3002012
:1002B000C86001204860704700000020F0B5374951
:1002C0001020C860364E012030603649086B40254A
:1002D000284308633448002344158268272AFCD148
:1002E00000E0446042689205FBD500E0436042684C
:1002F0009205FBD43360486A03229202904348621D
:1003000048680122D202104348608868C008C007CC
:10031000FBD04868C008C000C01C4860486B40075C
:10032000400F0328FAD1214A1068C008C000401CC1
:1003300010600B624868A043486008689615304317
:100340000860486817153843486088688008C00707
:10035000FBD0086BA84308630868B0430860052019
:10036000C005886148682043486088684008C00725
:10037000FBD01068C008C000801C10600B62486889
:10038000C008C000401C4860486B4007400F01286F
:10039000FAD11168102001431160F0BD00810840BE
:1003A000008308400080084000A106400002084089
:1003B00002E008C8121F08C1002AFAD1704770472E
:1003C000002001E001C1121F002AFBD1704700008C
:1003D000FFF706FF0020FFF747FF0120FFF736FF7A
:1003E0000220FFF741FF194864210068FFF7BCFEB7
:1003F00017490025401E88420BD816494861164A05
:100400000720D3691B021B0A84072343D3618D6134
:100410000861124C092660680128FCD10020656043
:10042000FFF730FF0120FFF72DFF0220FFF72AFF23
:10043000A068401CA0600928EDD32068A560401D7D
:1004400020603B28E7D32660E5E700002800002075
:10045000FFFFFF0000E000E004ED00E000000020EE
:1004600080040000000000202C000000B003000009
:10047000AC0400002C00002004020000C0030000B7
:100480000900000000000000000000000000000063
:1004900000400B4000400B4000200B4004000000D7
:0C04A0000800000040000000005A62024A
:04000005000000AD4A
:00000001FF
