:020000040000FA
:10000000D0020020AD00000013090000C508000068
:10001000FFFFFFFFFFFFFFFFFFFFFFFFFFFFFFFFF0
:10002000FFFFFFFFFFFFFFFFFFFFFFFFA109000032
:10003000FFFFFFFFFFFFFFFF490900003D0A00002F
:100040002101000021010000210100002101000028
:1000500085040000E90400004D050000FFFFFFFFDC
:1000600021010000FFFFFFFFD5080000FFFFFFFF99
:10007000210100006909000085090000210100003C
:1000800021010000D5020000ED0200002101000066
:1000900021010000210100002101000021010000D8
:1000A000FFFFFFFF21010000210100001D488047E4
:1000B0001D4880471D4800471D480169002908D197
:1000C0004169002905D18169002902D1C16900294E
:1000D00009D01848C1680901090D00290ED0052969
:1000E0000CD006290AD0BFF34F8F13481349016083
:1000F00013491248C860BFF34F8FFEE70E480168EE
:100100000E48884200D070470E480F4901600A48E7
:100110000E4901607047FEE7FEE7FEE7FEE7FEE7F7
:10012000FEE70000B9000000490A0000510100008C
:100130000003084080010840000000200400FA0588
:1001400000ED00E000810840010000000000000018
:100150000348854600F026F800480047850D00005A
:10016000D002002070B50446002903D000202022D0
:10017000012310E0002801D00020C043C046C04643
:100180000DE02546D5408D4205D30D469540641BB4
:100190001D46954040191546521E002DF1DC2146A2
:1001A00070BD0000064C0125064E05E0E36807CC53
:1001B0002B430C3C98471034B442F7D3FFF7CCFFE5
:1001C00028130000481300004A1E9141C90102682B
:1001D00080239A43511801607047B0B59307DB0E36
:1001E0001F249C40FC25154040194268A2439940B9
:1001F00011434160B0BD000010B51B04064C1B1933
:1002000012025118FF22D243891819430268802331
:1002100013400B43036010BD0000FFFF0A06120FDE
:10022000026741677047016270474A1E9141426F01
:1002300001239A435118416770470000B0B5072861
:1002400001D8002200E001229200074BD458072871
:1002500000D90838C0B280000F258540AC438140EA
:100260002143D150B0BDC04600200240F0B582B05D
:1002700001920A46C000164BC01800240AE001682B
:10028000B14321430160009C21460831001D002C30
:100290000C461AD11346E3401B06F5D00125009405
:1002A000A54000273C463E463B4603E03F1D5B1C05
:1002B000202FE4D01146D9402942F7D00199B94006
:1002C0000C430F21B9400E43F0E702B0F0BDC04629
:1002D0002020024080B5034800F014F8024800686E
:1002E000804780BD006007400400002080B50348BF
:1002F00000F008F802480068804780BD00700740A1
:10030000080000204168012291434160BFF34F8FF4
:1003100070474A1E9141026801239A4351180160B7
:1003200070474A1E91414900026802239A435118BE
:10033000016070478160704780B54F200102002046
:10034000024A012300F076F880BDC0460100033167
:10035000F0B581B00446184E776900F02FF80546D5
:10036000206007203840401E062809D878440079CC
:10037000400087440C03030505070A001E4D06E0F4
:10038000002504E00120C50301E07D200502656031
:100390003068052800D30520C540A5600321284604
:1003A000FFF7E0FEB1684903490F072901D0CD40AE
:1003B0002846E06001B0F0BD208008400D490846A5
:1003C000183800684A68084614380068800501D467
:1003D000002070470848002A0AD40A685201120F08
:1003E00001D0504300E0054809684902890FC84020
:1003F0007047C0461880084000127A000020A1070C
:10040000B0B584B0044640098000094945586846A3
:10041000FFF79EFF1F202040032181402940C1405B
:100420002E2C00D1891C0298C84004B0B0BDC04633
:100430003880084070B50C4C2568002B01D005436E
:1004400000E08543A668E0682560002B01D00E43DC
:1004500000E08E43A660002B02D01043E06070BD28
:100460009043E06070BDC046248008400721090425
:10047000034A13688B430004184310607047C0465A
:100480002880084080B50020014600F08BF9002844
:1004900005D0BF4800688047002000F07DF90020AB
:1004A000012100F07FF9002805D0BA480068804794
:1004B000002000F071F90120002100F073F90028FC
:1004C00005D0B34840688047012000F065F901205D
:1004D000014600F067F9002805D0AE484068804723
:1004E000012000F059F980BD80B50220002100F004
:1004F00059F9002805D0A64880688047022000F0FE
:100500004BF90220012100F04DF9002805D0A14847
:1005100080688047022000F03FF90320002100F0AE
:1005200041F9002805D09A48C0688047032000F0B0
:1005300033F90320012100F035F9002805D0954852
:10054000C0688047032000F027F980BD80B50420F3
:10055000002100F027F9002805D08D480069804768
:10056000042000F019F90420012100F01BF90028F3
:1005700005D0884800698047042000F00DF9052067
:10058000002100F00FF9002805D08148406980471C
:10059000052000F001F90520012100F003F90028F1
:1005A00005D07C4840698047052000F0F5F806201A
:1005B000002100F0F7F8002805D0754880698047D1
:1005C000062000F0E9F80620012100F0EBF80028F1
:1005D00005D0704880698047062000F0DDF80720CC
:1005E000002100F0DFF8002805D06948C069804785
:1005F000072000F0D1F80720012100F0D3F80028EF
:1006000005D06448C0698047072000F0C5F808207D
:10061000002100F0C7F8002805D05D48006A804737
:10062000082000F0B9F80820012100F0BBF80028EC
:1006300005D05848006A8047082000F0ADF809202E
:10064000002100F0AFF8002805D05148406A8047EB
:10065000092000F0A1F80920012100F0A3F80028EA
:1006600005D04C48406A8047092000F095F80A20E0
:10067000002100F097F8002805D04548806A80479F
:100680000A2000F089F80A20012100F08BF80028E8
:1006900005D04048806A80470A2000F07DF80B2092
:1006A000002100F07FF8002805D03948C06A804753
:1006B0000B2000F071F80B20012100F073F80028E6
:1006C00005D03448C06A80470B2000F065F80C2044
:1006D000002100F067F8002805D02D48006B804706
:1006E0000C2000F059F80C20012100F05BF80028E4
:1006F00005D02848006B80470C2000F04DF80D20F5
:10070000002100F04FF8002805D02148406B8047B9
:100710000D2000F041F80D20012100F043F80028E1
:1007200005D01C48406B80470D2000F035F80E20A6
:10073000002100F037F8002805D01548806B80476D
:100740000E2000F029F80E20012100F02BF80028DF
:1007500005D01048806B80470E2000F01DF80F2058
:10076000002100F01FF8002805D00948C06B804721
:100770000F2000F011F80F20012100F013F80028DD
:1007800005D00448C06B80470F2000F005F880BDFD
:100790004C0000200C00002001218140094801602C
:1007A00041607047074A1368C340DB0707D05268AF
:1007B000C24001201040401A411E8841704700206D
:1007C0007047C046444002400179C907027A1207C7
:1007D0000A43C188511800688000014A815070475F
:1007E00000400240002A03D002680A4302607047BA
:1007F00002688A430260704770B500252C462B467C
:1008000003E0AD1C4908202D08D0CE07F9D00326FF
:10081000AE4034431646AE403343F2E74169A1434C
:10082000416141691943416170BD002A03D04268AA
:100830000A434260704742688A4342607047012A17
:1008400007D0002A0BD182680A4382600C30C9436A
:100850000AE0C2680A43C2600830C94304E0826803
:100860008A4382600C30C94302680A4002607047C4
:10087000F0B581B00E460920C102002501242846AA
:100880002A462346FFF7D6FD1021062728463A467A
:10089000FFF7ECFC202128463A46FFF7E7FC084F1B
:1008A0003846314600F0EEF938462946224600F037
:1008B0001DFA38462146224600F018FA01B0F0BD74
:1008C00000100440024801680029FCD07047C0466F
:1008D000980000207047F0B581B00090F0C90B6817
:1008E00048684A7A12023243097A090611432143C1
:1008F00029433943194301430098016701B0F0BD12
:100900004A1E91410901026F10239A435118016751
:100910007047704780B50020014600F00BF880BD9D
:100920001F21014001208840014908607047C046EE
:1009300000E100E0024A0A400243024802607047B8
:1009400080FFFF1F08ED00E0704780B584B00020F5
:100950000390012109020291E1214902019101A9BB
:10096000FFF786FF04B080BD80B501200102034877
:1009700000F0EEF802480068804780BD0040034068
:100980008C00002080B501200102034800F0E0F84F
:1009900002480068804780BD00400740900000206A
:1009A00070470000001F4142414188001F490A680A
:1009B00004239A43101808607047C04610B50420FD
:1009C000C043FFF7EFFF7D20810108480068FFF773
:1009D000C9FB00F02DF80124204600F01DF800208E
:1009E00000F006F8204600F003F810BD00000020DB
:1009F000012805D0002809D10C48002181607047EA
:100A00000A48016801220A430260704707480168EA
:100A10000122914301607047411E88414000034913
:100A20000A6802239A4310180860704710E000E03B
:100A3000014908607047C04614E000E03D48016885
:100A4000491C01607047C046F0B584B0324810219F
:100A5000039101603148012202603148C16A40239C
:100A600002931943C1622F490B68272BFCD1032144
:100A70008B02046A9C430462D30204681C43046032
:100A800043681B07FCD503680B4304218B430360B9
:100A9000016B072319400329FAD1234C2168114324
:100AA00006250195A943216000210091C1615102F1
:100AB00005688D4305601502041F26682E432660D5
:100AC000C66A029FBE43C66226682E43266005257D
:100AD000EC05446104680C43046041688907FCD557
:100AE000114E316802240C43AC4334600099C1615B
:100AF00001681143019CA1430160016B1940012968
:100B0000FBD13168039B19433160910202688A432B
:100B1000026004B0F0BDC0460C810840008308406C
:100B20000480084008A1064000020840014800680F
:100B30007047C0469C00002010B5490001238B403F
:100B4000046D9C4304658A40016D1143016510BD2D
:100B5000C943C167BFF34F8F7047C943C167BFF334
:100B60004F8F70474A1E9141026901239A435118E1
:100B700001617047002A03D0426F0A434267704701
:100B8000426F8A4342677047F0B584B00746294AEE
:100B90006C3A904201D0012500E003250878430615
:100BA0001B0E03939D403B6DAB433B657B6DAB439D
:100BB00080003E183046A0300290304690300190C0
:100BC00040368C7938465430974210D1ED43009529
:100BD000CD796D002543039CA5401D430560087A2F
:100BE0004B7A5C00044313480368009D2B40039D2F
:100BF000AC401C430460FF200830336883433360FB
:100C000048883368034333604889019B18608889AA
:100C1000029B18600B7997422A4601D0184602E0E1
:100C20004879400018439040396D0143396504B05C
:100C3000F0BDC0466CC00240802281507047000069
:100C4000024684320B8853604A888423C2500322B0
:100C5000120403689343036001221206036893435E
:100C600003608A68036813430360044A904202D118
:100C70000A79034B1A6089898167704700C0024076
:100C80008CC00240B0B50C464168124A0A40E18867
:100C90001143A2880A432189114362890A434260B1
:100CA00001218907884208D00C49884208D00C49A4
:100CB00088420DD10C4D1C2004E0074D182001E0A6
:100CC000084D1E20FFF79CFB2168FFF74BFA2860B8
:100CD000B0BDC046FCE0FFFF24000040001004400F
:100CE00000100040241004402410004010238B40CA
:100CF000002A03D041681943416070474168994315
:100D00004160704710B582B0694600228A80009227
:100D100001230B54087818404C78E407A40F2018DE
:100D20008978C907490F401800049903FFF782FB2F
:100D300002B010BD80B500F091F880BD10B504463A
:100D4000FFF7F4FEA04201DA002010BD012010BD23
:100D500010B50446FFF7EAFE001910BD7047000009
:100D600070B50024E64A064B02E0641C032C06D250
:100D7000A50056598642F8D159510324F5E770BDB4
:100D8000C4000020FFF7D6FF0C4E30462038082460
:100D90002146FFF7E5FFB460FA20FFF7D9FF0546CB
:100DA0002846FFF7CBFF0028FAD0FA20FFF7D0FF44
:100DB0000546306860403060F2E7C04620400B4096
:100DC000F0B581B00620FFF751FB012480210225F8
:100DD00020462A46FFF74AFA210220462A46FFF714
:100DE00045FA0027384629462A46FFF73FFA0426E7
:100DF0003846314600962A46FFF738FA1648294603
:100E000032462346FFF7F8F90A21134E3046FFF722
:100E10000AFA304639463A46FFF7DFF930462146AE
:100E20002246FFF7DAF90327304639462A46FFF70C
:100E3000D4F9304600993A46FFF7CFF910213046F1
:100E4000FFF7ECF930462146FFF7BEF93046214660
:100E5000FFF7EBF901B0F0BD0000014080B5FFF7EE
:100E600059FDFFF769FAFFF770FDFFF7A7FD00F0E6
:100E700049F900F00BF900F0D1F800F007F800F0A4
:100E800081F900F0CBF9FFF79BFF80BDF0B58BB087
:100E900000240A94099408940123D9032046224689
:100EA0000193FFF7C7FA594A079403E0641C032C27
:100EB000564A3FD0A00011580029F7D011180491CC
:100EC000AF49081802900025019F039403E06D1CB0
:100ED0007F00102DEAD0049800683842F7D0012234
:100EE000059220463946FFF7C1F902980668BCB260
:100EF0000022069230462146FFF774FC022230465B
:100F00002146FFF79CFC30462146039C059AFFF7DB
:100F10008CFCE8B2E1B2FFF791F908A80321017255
:100F20000699C18001710895FFF74EFC0798384378
:100F30000790CCE70120C403354D374E354F07E00D
:100F4000884200D132E04000611C814200D85BE061
:100F500007990842F7D0FF2800DD32E0411E3F2903
:100F600000D94EE07944097949008F442525243B76
:100F70002424243B242424242424241F242424241F
:100F800024242424242424242424241F2424242426
:100F90002424242424242424242424242424242411
:100FA00024242424242424242424241F0620FFF77A
:100FB000B7FC2046C7E7C6E70420FFF7B1FC0220D4
:100FC000C1E70121A84206DCB04210DC0A029042CF
:100FD000ECD04902B4E7B8420EDC0A039042E5D0F7
:100FE0004903ADE70520FFF79BFC0820ABE78A0229
:100FF0009042DBD0C902A3E78A039042D6D0C9034E
:101000009EE78028D2D09EE70BB0F0BDA000002064
:10101000FF0F0000FF3F0000FF030000F0B583B0AA
:10102000002402E0641C032C2BD0A200164989582E
:101030000029F7D014498918029151498918019162
:10104000012502E06D00290CECD1029909682942C2
:10105000F8D0012220462946FFF708F901980668D2
:10106000AFB2002230463946FFF7BCFB02223046C1
:101070003946FFF7E4FB032230463946FFF7BCFB55
:10108000E0E703B0F0BDC046AC000020F0B585B08D
:10109000002002E0401C03282ED082001749895806
:1010A0000029F7D01549891803913549891801910C
:1010B0000125029002E06D00290CEBD1039909682B
:1010C0002942F8D0012204922946FFF7CFF801986F
:1010D0000768ACB20026384621463246FFF782FB4D
:1010E000384621463246FFF7AAFB38462146049A85
:1010F000FFF79BFB0298DEE705B0F0BDB8000020CB
:101100001C130000F0B583B0002402E0641C032C23
:1011100031D02046FFF7F6FDA000184909580029F4
:10112000F4D01649091802911549081800900125B4
:10113000019402E06D00280CE8D102980068284272
:10114000F8D00126204629463246FFF78FF800984E
:101150000768ACB2022238462146FFF770FB032233
:1011600038462146FFF748FB38462146019C324667
:10117000FFF738FBDEE703B0F0BDC046C400002037
:101180001C130000F0B591B00DA900250D710124CC
:1011900027028F810F951F480D901F48FFF750FDC4
:1011A00009AE378107207080FF2002300A900220AC
:1011B0000190042739463A46FFF758F832207081EB
:1011C000357015483146FFF7DFFC134E304639467F
:1011D000FFF7BEFC0A20FFF7A3FB30462146FFF7CE
:1011E000C1FC30462146FFF78BFB3046294622469C
:1011F000FFF7A2FC02A90D830198069005950795BB
:10120000049520050390600502903046FFF763FBCC
:1012100011B0F0BD6400280000C00240F0B585B0F8
:10122000314E3046FFF76EF8304F3846FFF76AF818
:101230001120FFF775FB1220FFF772FB00253046E7
:101240002946FFF777F838462946FFF773F8012457
:1012500030462146FFF75DF838462146FFF759F83A
:1012600030462146FFF75DF838462146FFF759F82A
:10127000260201AFBE813D711D48019003951D48B6
:101280003946FFF7DDFC1C483946FFF7D9FC194FFA
:1012900038462146FFF761FC17482146FFF75DFC01
:1012A00038463146FFF754FC134807463146FFF7EE
:1012B0004FFC0D20FFF734FB0E20FFF731FB0D48EC
:1012C0002946FFF7B9FC38462946FFF7B5FC09481F
:1012D00031462246FFF74EFC384631462246FFF79C
:1012E00049FC05B0F0BDC0460060074000700740F3
:1012F000FFFF2700004003400040074002E008C80D
:10130000121F08C1002AFAD170477047002001E07F
:1013100001C1121F002AFBD17047000000000B40E2
:1013200000200B4000400B4048130000000000204C
:1013300094000000FC120000DC1300009800002064
:10134000380200000C130000005A62025D0D00001C
:101350005D0D00005D0D00005D0D00005D0D0000E5
:101360005D0D00005D0D00005D0D00005D0D0000D5
:101370005D0D00005D0D00005D0D00005D0D0000C5
:101380005D0D00005D0D00005D0D00005D0D0000B5
:101390005D0D00005D0D00005D0D00005D0D0000A5
:1013A0005D0D00005D0D00005D0D00005D0D000095
:1013B0005D0D00005D0D00005D0D00005D0D000085
:1013C0005D0D00005D0D00005D0D00005D0D000075
:0C13D0005D0D00005D0D00005D0D0000D3
:04000005000000AD4A
:00000001FF
