:020000040000FA
:1000000088030020AD0000002D0B0000810A0000D5
:10001000FFFFFFFFFFFFFFFFFFFFFFFFFFFFFFFFF0
:10002000FFFFFFFFFFFFFFFFFFFFFFFFDD0B0000F4
:10003000FFFFFFFFFFFFFFFF650B0000790C0000D3
:100040002101000021010000210100002101000028
:100050003506000099060000FD060000FFFFFFFFC7
:1000600021010000FFFFFFFF910A0000FFFFFFFFDB
:1000700021010000850B0000C10B000021010000E0
:10008000210100006904000081040000210100003A
:1000900021010000210100002101000021010000D8
:1000A000FFFFFFFF21010000210100001D488047E4
:1000B0001D4880471D4800471D480169002908D197
:1000C0004169002905D18169002902D1C16900294E
:1000D00009D01848C1680901090D00290ED0052969
:1000E0000CD006290AD0BFF34F8F13481349016083
:1000F00013491248C860BFF34F8FFEE70E480168EE
:100100000E48884200D070470E480F4901600A48E7
:100110000E4901607047FEE7FEE7FEE7FEE7FEE7F7
:10012000FEE70000B9000000850C0000510100004E
:100130000003084080010840000000200400FA0588
:1001400000ED00E000810840010000000000000018
:100150000348854600F0F0F800480047D51A000033
:1001600088030020024670B54A40D30FDB074000E9
:100170002DD04A002AD0010E140E000212020919D5
:10018000400A520A8418E50104465443000A120A40
:100190002E045043A4194219200CC543AA18120C6E
:1001A0000125AD03521C521912047F39240400D0DA
:1001B000521C104301D44000491EC2B20C06C009B3
:1001C0002018401C4008802A02D003E0002070BDA7
:1001D00040084000002900DA0020184370BDC21713
:1001E000C10F504010B54018CA079623002100F0F7
:1001F00069F810BDC20F410040020123400ADB052F
:10020000D207090EC0187F2901DA0020704796290D
:1002100003DC9623591AC84001E096398840002A29
:10022000F4D04042704770B50446002903D0002046
:100230002022012310E0002801D00020C043C04646
:10024000C0460DE02546D5408D4205D30D4695406C
:10025000641B1D46954040191546521E002DF1DCC9
:10026000214670BD70B5002504462E46002911D0E8
:10027000002C01DA01254442002901DA0126494215
:100280002046FFF7D0FFB54200D04042002D00D0FD
:10029000494270BD002C02DA0121C90702E0002C9E
:1002A00000DD03490846C046C046214670BD000037
:1002B000FFFFFF7F002904DA401C490001D14008FC
:1002C0004000704770B40024050C05D110240004D0
:1002D00002D1002921D01124050E01D100020834D9
:1002E000050F01D10001241D850F01D18000A41C40
:1002F000002801DB4000641C002908D020252E1BAB
:100300000D46F540A14000D00121294308430106D4
:100310001B1B000ADB1D02D5002070BC7047DB05EB
:10032000181880180029F8DA401C4900F5D170BC73
:100330004008400070470000064C0125064E05E0CD
:10034000E36807CC2B430C3C98471034B442F7D3F6
:10035000FFF702FFE0280000002900004A1E91413B
:10036000C901026880239A43511801607047B0B5F3
:100370009307DB0E1F249C40FC2515404019426862
:10038000A243994011434160B0BD000010B51B0469
:10039000064C1B1912025118FF22D2438918194327
:1003A0000268802313400B43036010BD0000FFFF71
:1003B0000A06120F026741677047016270474A1EC2
:1003C0009141426F01239A435118416770470000E1
:1003D000B0B5072801D8002200E001229200074BA7
:1003E000D458072800D90838C0B280000F258540AE
:1003F000AC4381402143D150B0BDC04600200240F3
:10040000F0B582B001920A46C000164BC018002415
:100410000AE00168B14321430160009C2146083194
:10042000001D002C0C461AD11346E3401B06F5D0E4
:1004300001250094A54000273C463E463B4603E08C
:100440003F1D5B1C202FE4D01146D9402942F7D034
:100450000199B9400C430F21B9400E43F0E702B0B7
:10046000F0BDC0462020024080B5034800F014F8DB
:1004700002480068804780BD006007400C000020F3
:1004800080B5034800F008F802480068804780BD46
:100490000070074010000020416801229143416034
:1004A000BFF34F8F70474A1E9141890002680423B1
:1004B0009A43511801607047806870474A1E914105
:1004C000026801239A435118016070474A1E914106
:1004D0004900026802239A43511801607047C160C5
:1004E000704781607047000080B5CF200102002076
:1004F000024A012300F076F880BDC04601000331B6
:10050000F0B581B00446184E776900F02FF8054623
:10051000206007203840401E062809D8784400791A
:10052000400087440C03030505070A001E4D06E042
:10053000002504E00120C50301E07D20050265607F
:100540003068052800D30520C540A5600321284652
:10055000FFF769FEB1684903490F072901D0CD4073
:100560002846E06001B0F0BD208008400D490846F3
:10057000183800684A68084614380068800501D4B5
:10058000002070470848002A0AD40A685201120F56
:1005900001D0504300E0054809684902890FC8406E
:1005A0007047C0461880084000127A000020A1075A
:1005B000B0B584B0044640098000094945586846F2
:1005C000FFF79EFF1F202040032181402940C140AA
:1005D0002E2C00D1891C0298C84004B0B0BDC04682
:1005E0003880084070B50C4C2568002B01D00543BD
:1005F00000E08543A668E0682560002B01D00E432B
:1006000000E08E43A660002B02D01043E06070BD76
:100610009043E06070BDC046248008400721090473
:10062000034A13688B430004184310607047C046A8
:100630002880084080B50020014600F08BF9002892
:1006400005D0BF4800688047002000F07DF90020F9
:10065000012100F07FF9002805D0BA4800688047E2
:10066000002000F071F90120002100F073F900284A
:1006700005D0B34840688047012000F065F90120AB
:10068000014600F067F9002805D0AE484068804771
:10069000012000F059F980BD80B50220002100F052
:1006A00059F9002805D0A64880688047022000F04C
:1006B0004BF90220012100F04DF9002805D0A14896
:1006C00080688047022000F03FF90320002100F0FD
:1006D00041F9002805D09A48C0688047032000F0FF
:1006E00033F90320012100F035F9002805D09548A1
:1006F000C0688047032000F027F980BD80B5042042
:10070000002100F027F9002805D08D4800698047B6
:10071000042000F019F90420012100F01BF9002841
:1007200005D0884800698047042000F00DF90520B5
:10073000002100F00FF9002805D08148406980476A
:10074000052000F001F90520012100F003F900283F
:1007500005D07C4840698047052000F0F5F8062068
:10076000002100F0F7F8002805D07548806980471F
:10077000062000F0E9F80620012100F0EBF800283F
:1007800005D0704880698047062000F0DDF807201A
:10079000002100F0DFF8002805D06948C0698047D3
:1007A000072000F0D1F80720012100F0D3F800283D
:1007B00005D06448C0698047072000F0C5F80820CC
:1007C000002100F0C7F8002805D05D48006A804786
:1007D000082000F0B9F80820012100F0BBF800283B
:1007E00005D05848006A8047082000F0ADF809207D
:1007F000002100F0AFF8002805D05148406A80473A
:10080000092000F0A1F80920012100F0A3F8002838
:1008100005D04C48406A8047092000F095F80A202E
:10082000002100F097F8002805D04548806A8047ED
:100830000A2000F089F80A20012100F08BF8002836
:1008400005D04048806A80470A2000F07DF80B20E0
:10085000002100F07FF8002805D03948C06A8047A1
:100860000B2000F071F80B20012100F073F8002834
:1008700005D03448C06A80470B2000F065F80C2092
:10088000002100F067F8002805D02D48006B804754
:100890000C2000F059F80C20012100F05BF8002832
:1008A00005D02848006B80470C2000F04DF80D2043
:1008B000002100F04FF8002805D02148406B804708
:1008C0000D2000F041F80D20012100F043F8002830
:1008D00005D01C48406B80470D2000F035F80E20F5
:1008E000002100F037F8002805D01548806B8047BC
:1008F0000E2000F029F80E20012100F02BF800282E
:1009000005D01048806B80470E2000F01DF80F20A6
:10091000002100F01FF8002805D00948C06B80476F
:100920000F2000F011F80F20012100F013F800282B
:1009300005D00448C06B80470F2000F005F880BD4B
:100940005C00002014000020012181400948016062
:1009500041607047074A1368C340DB0707D05268FD
:10096000C24001201040401A411E884170470020BB
:100970007047C046444002400179C907027A120715
:100980000A43C188511800688000014A81507047AD
:1009900000400240002A03D002680A430260704708
:1009A00002688A430260704770B500252C462B46CA
:1009B00003E0AD1C4908202D08D0CE07F9D003264E
:1009C000AE4034431646AE403343F2E74169A1439B
:1009D000416141691943416170BD002A03D04268F9
:1009E0000A434260704742688A4342607047012A66
:1009F00007D0002A0BD182680A4382600C30C943B9
:100A00000AE0C2680A43C2600830C94304E0826851
:100A10008A4382600C30C94302680A400260704712
:100A2000C0690840411E884170470000F0B581B0A0
:100A30000E460920C1020025012428462A462346E5
:100A4000FFF7D0FD1021062728463A46FFF7D8FCCD
:100A5000202128463A46FFF7D3FC084F3846314656
:100A600000F04CFA38462946224600F07BFA384618
:100A70002146224600F076FA01B0F0BD0010044095
:100A8000024801680029FCD07047C046B000002031
:100A9000B0B50120C502124C2046294600F09BF952
:100AA00000280ED00F48006880472046294600F0F5
:100AB0007BF90421204600F077F90B480168694072
:100AC00001600421204600F086F9002806D007487E
:100AD000006880470421204600F066F9B0BDC0469A
:100AE00000C002405400002020200B40580000208D
:100AF000F0B581B00090F0C90B6848684A7A1202DC
:100B00003243097A090611432143294339431943E2
:100B100001430098016701B0F0BD4A1E91410901EF
:100B2000026F10239A43511801677047704780B5D0
:100B30000020014600F00CF880BD00001F2101409C
:100B400001208840014908607047C04600E100E08C
:100B5000024A0A40024302480260704780FFFF1FBA
:100B600008ED00E0704780B584B0002003900121BB
:100B700009020291E1214902019101A9FFF756FF03
:100B800004B080BD70B50C4C00252046294600F00D
:100B900015F901200602204631462A4600F020F9C8
:100BA0002046314600F000F92046294600F07FF942
:100BB00002480068804770BD004003409C00002050
:100BC00080B501200102034800F0EEF802480068F9
:100BD000804780BD00400740A00000207047000013
:100BE000001F4142414188001F490A6804239A437B
:100BF000101808607047C04610B50420C043FFF7C6
:100C0000EFFF7D20810108480068FFF70CFB00F032
:100C10002DF80124204600F01DF8002000F006F811
:100C2000204600F003F810BD00000020012805D088
:100C3000002809D10C480021816070470A480168EA
:100C400001220A430260704707480168012291436C
:100C500001607047411E8841400003490A68022331
:100C60009A4310180860704710E000E001490860DE
:100C70007047C04614E000E03D480168491C01602F
:100C80007047C046F0B584B032481021039101602E
:100C90003148012202603148C16A4023029319435E
:100CA000C1622F490B68272BFCD103218B02046AF8
:100CB0009C430462D30204681C43046043681B071E
:100CC000FCD503680B4304218B430360016B0723AE
:100CD00019400329FAD1234C2168114306250195B7
:100CE000A943216000210091C161510205688D4333
:100CF00005601502041F26682E432660C66A029FFF
:100D0000BE43C66226682E4326600525EC05446175
:100D100004680C43046041688907FCD5114E3168B2
:100D200002240C43AC4334600099C1610168114353
:100D3000019CA1430160016B19400129FBD131687D
:100D4000039B19433160910202688A43026004B038
:100D5000F0BDC0460C810840008308400480084074
:100D600008A1064000020840014800687047C046DC
:100D7000B400002010B5490001238B40046D9C4352
:100D800004658A40016D1143016510BDB0B549008D
:100D900001248C409C40056DA54305658A409A401E
:100DA000016D11430165B0BDC943C167BFF34F8FEA
:100DB0007047C943C167BFF34F8F70474A1E9141C7
:100DC000026901239A435118016170478900401854
:100DD000902140587047C06F0840411E88417047BD
:100DE000002A03D0426F0A4342677047426F8A432A
:100DF00042677047F0B584B00746294A6C3A904282
:100E000001D0012500E00325087843061B0E03935B
:100E10009D403B6DAB433B657B6DAB4380003E1813
:100E20003046A030029030469030019040368C79A8
:100E300038465430974210D1ED430095CD796D007E
:100E40002543039CA5401D430560087A4B7A5C004E
:100E5000044313480368009D2B40039DAC401C4392
:100E60000460FF2008303368834333604888336868
:100E7000034333604889019B18608889029B18608E
:100E80000B7997422A4601D0184602E04879400083
:100E900018439040396D0143396504B0F0BDC04638
:100EA0006CC0024089004018902142507047802257
:100EB000815070478822815070470000024684327A
:100EC0000B8853604A888423C250032212040368AB
:100ED00093430360012212060368934303608A6808
:100EE0000368134303607E4A904202D10A79024BA1
:100EF0001A608989816770478CC00240B0B50C4682
:100F00004168124A0A40E1881143A2880A432189B4
:100F1000114362890A43426001218907884208D04F
:100F20000C49884208D00C4988420DD10C4D1C2038
:100F300004E0074D182001E0084D1E20FFF738FBA4
:100F40002168FFF770F92860B0BDC046FCE0FFFFE4
:100F50002400004000100440001000402410044011
:100F60002410004010238B40002A03D0416819430D
:100F700041607047416899434160704710B582B045
:100F8000694600228A80009201230B540878184099
:100F90004C78E407A40F20188978C907490F401836
:100FA00000049903FFF71EFB02B010BD9E490861C3
:100FB0007047C046F0B581B00090494C04262046E9
:100FC0003146FFF7F1FE0025204631462A46FFF75D
:100FD00007FF424801680222914301600168202214
:100FE0009143016001680822914301600F4E304631
:100FF0002946FFF7E3FE01273C02304621462A46F8
:10100000FFF7EEFE30462946FFF751FF009881B208
:101010003046FFF74FFF304621463A46FFF7E0FEE5
:1010200030463946FFF7CAFE01B0F0BD004003402C
:10103000B0B57D480069002814D000F0EFFC02280C
:101040001CD0012832D000282FD124484268022128
:101050000A43426082680A438260072212070346FD
:101060003C3B2FE01E4C042520462946FFF79CFE02
:10107000012220462946FFF7B3FEB0BD174842685B
:1010800008210A43426082680A43826007221207ED
:101090000346343B1C6894431C60032212071C68FF
:1010A00014431C6002680A430260B0BD0B484268EA
:1010B00020210A43426082680A43826007221207A5
:1010C00003462C3B1C6894431C60032212071C68D7
:1010D00014431C6002680A430260B0BD40400240F5
:1010E00000C0024002480168024808407047C046FC
:1010F00034000140FF0F000070B51C4D1C4928460C
:1011000000F00AFA00242846214600F0E1F92846BA
:10111000214600F0CBF91749284600F0EBF9DC4DE9
:101120001549284600F0F8F92846214600F0D0F984
:101130002A21284600F0BAF901263103284600F09A
:10114000D9F90E4D0421284600F0E6F9284631462B
:1011500000F0BEF92846214600F0A8F9C82128462B
:1011600000F0C8F900F016FD70BDC04600000B404D
:101170000988000040410000456C000000400B4021
:1011800010B50446FFF7F0FDA04201DA002010BDC3
:10119000012010BD10B50446FFF7E6FD001910BD93
:1011A00010B5A34C606B616B4000401A216B401876
:1011B00040106063E06AE16A4000401AA16A40188A
:1011C0004010E062606A616A4000401A216A40187B
:1011D00040106062606B616B8910401A616B09118D
:1011E000401AA064606B40102062606BFEF7F7FF4E
:1011F0000146A06DFEF7B6FFFEF7FCFFA063606B33
:10120000216A4010401AE063E06BE16A0818A16BA4
:10121000401AE063206AE16B08182064606B616B20
:1012200040004018E06110BDF40000200111801062
:1012300040187047F0B581B0314C2068FFF7A0FF2F
:1012400000282BD02F48017849B2052909D00A2956
:1012500024D1052101700720FFF79CFF206001B019
:10126000F0BDFFF73FFF284D2988491C2980274EF4
:10127000328883B2934200D2308088B2072809D3E3
:10128000234F384697383188814209D221480321BB
:1012900001700DE00720FFF77DFF206001B0F0BD79
:1012A0001C480078032803D10120002100F05AFADD
:1012B0001948007801281DD116480178032919D052
:1012C0003288022908D03B46343B9BB29A4203D86D
:1012D000022101702D2006E001290BD0BA4209D36A
:1012E00001210170442000F0C1FF7D208000FFF744
:1012F00051FF206037800020288001B0F0BDC0463B
:1013000008000020AD000020BC00002004000020E8
:10131000550B000084010020AC000020F0B581B026
:10132000434FB869002826D000F08AFB002824D05B
:1013300000F0DEF93F4C002520462946FFF7B3F8C0
:1013400020462946FFF7BAF820462946FFF7C9F894
:10135000386A4001396AC90009182046FFF7BFF80A
:10136000012520462946FFF7A9F820462946FFF720
:101370009AF80220786101B0F0BD7869032838D16D
:1013800000F0B6F92B4D002428462146FFF78BF8D4
:1013900028462146FFF792F828462146FFF7A1F894
:1013A000386C4001396CC90040182549411828465D
:1013B000FFF795F8012628463146FFF77FF82846C3
:1013C0003146FFF770F8386C0A30FFF7F3FD7C61A7
:1013D0001948018809B20129CDDB1A4A13885B1C20
:1013E00013801BB20C2BC6DB1480491E018001B098
:1013F000F0BD04207861104D2888401C288001240D
:101400002046214600F0AEF9288800B2052804DB0A
:1014100000202880786A000101E0786A4010FFF718
:10142000C9FDE002054908600520786001B0F0BD03
:10143000F400002000700740C000002028000B408E
:1014400070FEFFFFBE00002080B500F0B3F880BD45
:101450007047000010B500F0E1FA002805D002281E
:1014600005D0012808D1202102E0022100E0082156
:101470000748FFF7D5FA044600F0E2FA002802D048
:10148000002C02D010BD012CFCD101F085F810BD5C
:1014900000200B4080B501F07FF880BD80B501F0E1
:1014A0007BF880BD80B501F077F880BD70B5002471
:1014B000214A064B02E0641C032C06D2A5005659B3
:1014C0008642F8D159510324F5E770BDC4000020CD
:1014D00070B50024184A064B02E0641C032C06D2A7
:1014E000A50056598642F8D159510324F5E770BD3D
:1014F000D000002070B500240F4A064B02E0641CA7
:10150000032C06D2A50056598642F8D1595103241E
:10151000F5E770BDDC00002070B50024064A074BDB
:1015200002E0641C032C06D2A50056598642F8D16D
:1015300059510324F5E770BDD4280000E8000020CD
:10154000024600200F2903D88900024B5A507047E9
:10155000C04370475C00002002460020032904D8E5
:10156000890003A359580A607047C0437047C046BA
:101570000C000020100000209C000020A000002093
:10158000014908607047C0465400002001490860C6
:101590007047C0465800002053480068401C704700
:1015A00010B55148046851480021FFF70FFC201A7C
:1015B000401C10BD0848026807210A40062A04D1D1
:1015C000826C036DD21A521C026402680A40072A18
:1015D00001D1816C0164704740C0024080B543482E
:1015E0000021FFF764FC80BD10B50024401E0549B2
:1015F000884205D881B23D48FFF75CFC204610BD0B
:10160000E04310BDFE7C00003649086000207047B2
:10161000F0B581B0064687B2344D002428462146F5
:101620003A46FFF73FFC012128463A46FFF73AFCCD
:10163000032128463A46FFF735FC2A480068301A4D
:1016400082B202212846FFF72DFC204601B0F0BDF2
:10165000F0B581B00646234D28688119224F3A68BB
:10166000521CED4C91421FD23868801B401C82B244
:10167000002520462946FFF715FC3868801B401CD2
:1016800082B201212046FFF70DFC3868801B401C08
:1016900082B203212046FFF705FC3868801B114900
:1016A0000968401A461C15E0401C82B20021204601
:1016B000FFF7F8FB2888401C82B2012620463146FD
:1016C000FFF7F0FB2888401C82B203212046FFF779
:1016D000E9FB3546B2B202212046FFF7E3FB28467C
:1016E00001B0F0BDA800002088C0024000C0024048
:1016F00010B50024D9490868821E3E2A07D8F14A4D
:101700001268002A05D0022807D0401008E0E04304
:1017100010BD402803D0400002E0402000E002203D
:101720000860214600F01EF8204610BD0020CB497D
:101730000A68931E3E2B08D8E24B1B68002B06D08C
:10174000022A09D052100A607047C0437047402AED
:1017500005D052000A60704740220A60704702229A
:101760000A607047F0B583B00F4601460024E0439D
:10177000BA4B1A6802924A1E3F2A00D94DE0520025
:101780007A449288520097443F006E001A01860006
:101790001A011A011A0199001A011A011A011A01F3
:1017A0001A011A011A01BA001A011A011A011A01C2
:1017B0001A011A011A011A011A011A011A011A0151
:1017C0001A011A011A01CE001A011A011A011A018E
:1017D0001A011A011A011A011A011A011A011A0131
:1017E0001A011A011A011A011A011A011A011A0121
:1017F0001A011A011A011A011A011A011A011A0111
:101800001A011A011A01F200012119607F480160D2
:101810007F48042202607F48DFE0802900D1D0E0C9
:1018200001252A02914200D0C9E01A60774805607C
:101830007748042101607748402101600197AD4F4E
:101840000026384629462A463346FFF79FFA0321E9
:1018500038462A463346FFF799FA3846019F314603
:101860002A463346CCE002201860A24E00253046BE
:1018700029462A462B46FFF789FA6648402101602F
:1018800062480121016030460A462B46FFF77EFA86
:101890000321304683E03E4604271F60954803211C
:1018A00000252A462B46FFF771FA5948076037464C
:1018B0005648012101608F480A4613E0082018604D
:1018C0008C483E460127002539462A462B46FFF71D
:1018D0005DFA4E4807604E480421016003218548A7
:1018E0003A4637462B46FFF751FA824829462A46A0
:1018F0002B46FFF74BFA4748001F402156E01020C7
:1019000018607C48002529462A462B46FFF73EFAF8
:101910004048402101603E480421016003213E46C9
:101920000127744812E02020186072480321002526
:101930002A462B46FFF72AFA35480421016035482C
:10194000402101603E4601276A4829463A462B4617
:10195000FFF71CFA674839462A462B46FFF716FA66
:101960002A48001F07603746012F22D024E0402676
:101970001E60604801970127002539462A462B46FC
:10198000FFF704FA214807602248066059482946B3
:101990003A46019F2B46FFF7F9F9032155482A469D
:1019A0002B46FFF7F3F91A48001F04210160012FAD
:1019B00002D12A4802990160FFF710FE204603B0C9
:1019C000F0BD802018601148001F012101601048FF
:1019D000001F042202600F48001F40220260454E93
:1019E000002530462A462B46FFF7D0F90321304622
:1019F0002A462B46FFF7CAF9304629462A462B4687
:101A0000FFF7C4F9012FD7D1D3E7C04628000B4018
:101A100028400B4028200B4000C002400F480168BE
:101A20001220014201D0022070472420014201D03F
:101A30000120704700204822114200D1C043704766
:101A400020480068054909785422114202D0411EFD
:101A5000884170474142414108467047A400002038
:101A6000F0B581B00125EE02224F00243846314600
:101A70002246FFF7B5F938463146FFF795F90B488E
:101A8000FFF77EFD38463146FFF78EF9384631467E
:101A90002A46FFF7A5F90A20FFF7B6FD284621469A
:101AA000FFF760FE204601B0F0BDC04649140000BB
:101AB00001460020012902D8024A11607047C04344
:101AC0007047C04664010020014908607047C04665
:101AD000B8000020FFF710FB00F048FB00F0CAFB45
:101AE0000122D1020348FFF77BF900F0E9FCFFF780
:101AF000A1FBFAE700C00240F0B581B00620FEF776
:101B00008DFD01248021022520462A46FEF778FC1F
:101B1000210220462A46FEF773FC00273846294654
:101B20002A46FEF76DFC04263846314600962A46C2
:101B3000FEF766FC1648294632462346FEF726FC89
:101B40000A21134E3046FEF738FC304639463A46F5
:101B5000FEF70DFC304621462246FEF708FC03271F
:101B6000304639462A46FEF702FC304600993A468E
:101B7000FEF7FDFB10213046FEF71AFC30462146E9
:101B8000FEF7ECFB30462146FEF719FC01B0F0BD34
:101B90000000014080B5FEF7CAFFFEF7A5FCFEF786
:101BA000E2FFFFF729F800F047F900F00BF900F029
:101BB000D1F800F007F800F07FF900F019FAFFF70C
:101BC0009BFF80BDF0B58BB000240A940994089463
:101BD0000123D903204622460193FEF703FD594A0B
:101BE000079403E0641C032C564A3FD0A000115810
:101BF0000029F7D011180491AE4908180290002569
:101C0000019F039403E06D1C7F00102DEAD004981F
:101C100000683842F7D00122059220463946FEF787
:101C2000EFFB02980668BCB20022069230462146BD
:101C3000FEF7B0FE022230462146FEF7D8FE3046BF
:101C40002146039C059AFEF7C8FEE8B2E1B2FEF712
:101C5000BFFB08A8032101720699C1800171089594
:101C6000FEF78AFE079838430790CCE70120C403AB
:101C7000354D374E354F07E0884200D132E0400005
:101C8000611C814200D85BE007990842F7D0FF2829
:101C900000DD32E0411E3F2900D94EE07944097948
:101CA00049008F442525243B2424243B2424242438
:101CB0002424241F242424242424242424242424E9
:101CC0002424241F242424242424242424242424D9
:101CD00024242424242424242424242424242424C4
:101CE0002424241F0620FEF729FF2046C7E7C6E765
:101CF0000420FEF723FF0220C1E70121A84206DCF1
:101D0000B04210DC0A029042ECD04902B4E7B8427B
:101D10000EDC0A039042E5D04903ADE70520FEF74B
:101D20000DFF0820ABE78A029042DBD0C902A3E78F
:101D30008A039042D6D0C9039EE78028D2D09EE77E
:101D40000BB0F0BDC4000020FF0F0000FF3F0000FB
:101D5000FF030000F0B583B0002402E0641C032CF4
:101D60002BD0A200164989580029F7D014498918A8
:101D70000291504989180191012502E06D00290C5A
:101D8000ECD1029909682942F8D00122204629465F
:101D9000FEF736FB01980668AFB20022304639469E
:101DA000FEF7F8FD022230463946FEF720FE0322F8
:101DB00030463946FEF7F8FDE0E703B0F0BDC04617
:101DC000D0000020F0B585B0002002E0401C0328C0
:101DD0002ED08200174989580029F7D01549891853
:101DE00003913449891801910125029002E06D00A8
:101DF000290CEBD1039909682942F8D001220492F9
:101E00002946FEF7FDFA01980768ACB2002638466D
:101E100021463246FEF7BEFD384621463246FEF7E1
:101E2000E6FD38462146049AFEF7D7FD0298DEE724
:101E300005B0F0BDDC000020F0B583B0002402E066
:101E4000641C032C31D02046FFF798F8A0001849F5
:101E500009580029F4D016490918029115490818A3
:101E600000900125019402E06D00280CE8D1029851
:101E700000682842F8D00126204629463246FEF75F
:101E8000BFFA00980768ACB2022238462146FEF736
:101E9000AEFD032238462146FEF786FD3846214630
:101EA000019C3246FEF776FDDEE703B0F0BDC0468A
:101EB000E8000020D4280000F0B595B00125A90362
:101EC000002420462A462B46FEF78CFB10210426D0
:101ED000059628463246FEF793FAE903284632462D
:101EE000FEF78EFAA90220463246FEF789FA690209
:101EF00028463246FEF784FA2802049011A9888108
:101F00000C711394039437481190BD4F3846FEF777
:101F1000D5FF0DAE07207080347033480E903348E3
:101F20000F9038463146FEF765FF502474813570B6
:101F300038463146FEF75EFF748103200290307010
:101F400038463146FEF756FF32207081022001905C
:101F5000307038463146FEF74DFF38460599FEF79A
:101F600023FF0A20FEF7EAFD38462946FEF726FF42
:101F700038462946FEF7D1FD3846039C21462A46BD
:101F8000FEF7F8FE384629462A46FEF7F3FE3846A5
:101F9000019E31462A46FEF7EDFE384602992A4652
:101FA000FEF7E8FE06A90C830A96099520200B90FF
:101FB000089428050790680506903846FEF798FDB6
:101FC000E90238462A46FEF70BFF384605992246B5
:101FD000FEF706FF384604992246FEF701FF15B0CA
:101FE000F0BDC0466400280001000001000150005F
:101FF000F0B585B05C4E3046FEF74EFA594F384684
:10200000FEF74AFA1120FEF799FD1220FEF796FD21
:10201000002530462946FEF764FA38462946FEF781
:1020200060FA012430462146FEF748FA3846214638
:10203000FEF744FA30462146FEF748FA3846214674
:10204000FEF744FA260201AFBE813D711B480190A4
:1020500003951B483946FEF731FF1A483946FEF70B
:102060002DFF174F38462146FEF7A3FE154821469F
:10207000FEF79FFE38463146FEF796FE11480746AA
:102080003146FEF791FE0D20FEF758FD0E20FEF7BB
:1020900055FD0B482946FEF70AFF38462946FEF74C
:1020A00006FF074831462246FEF79AFE384631467B
:1020B0002246FEF795FE05B0F0BDC046FFFF2700A3
:1020C0000040034000400740F0B581B00D4600904D
:1020D000244F002438462146FEF7E5F938462146CC
:1020E000FEF7ECF938462146FEF7FBF94548016852
:1020F000022291430160016820229143016001683E
:102100000822914301603E4F042638463146FEF7CF
:102110004BFE384631462246FEF762FEE54E30461B
:102120002146FEF7C0F930462146FEF7C7F9304692
:102130002146FEF7D6F90098E84EB461012800D098
:1021400080202146FFF70EFB002D03D0032D03D185
:10215000032503E02C4601E0E443032535602046D7
:1021600001B0F0BD0070074000600740F0B581B0DD
:10217000FFF776FC0120009000F054F81F4802267B
:102180003146FFF7E9F91E4F042438462146FEF791
:102190000BFE0025384621462A46FEF721FE194847
:1021A0000168B14301600168202291430160016828
:1021B0000822914301601448FFF7E8F91348009C96
:1021C0002146FFF7BDF912480521FFF7B9F911487B
:1021D0000321FFF7B5F910482946FFF7BDF90F486D
:1021E0002146FFF7B9F9EB4805600D48FFF76CFC95
:1021F000442000F027F8284601B0F0BD311000005F
:1022000000C00240404002405514000095140000F8
:10221000A51400009D140000E12400001D1300001F
:102220002D12000080B5E9490A68002A02D0096829
:10223000032903D1FFF73CFC002080BD0020C043F0
:1022400080BDC046014614384C2801D2002008E069
:102250000020C0435F2901DD5F2102E0132903DC78
:102260001421DA4A11657047401E7047D749086546
:102270007047C04610B50024E043F7490A68012AB8
:102280000AD00A68022A07D0012008604C608861E1
:102290002146FFF767FA204610BDC046F0B581B071
:1022A000ED4E7068062809D87844007940008744CC
:1022B00013061F6503036E0001B0F0BDFEE77F4CFF
:1022C0002068002800D189E0FEF75AFF0028F3D0EB
:1022D0000220706001B0F0BD012070600020306607
:1022E00070666E49086075490860B06601B0F0BD5F
:1022F0006A4D286800282DD1694801681022914351
:1023000001600168202291430160664801688022D3
:10231000914301600121C90241626348FFF764F9FA
:102320004B208000FFF774F90F20FEF733FF286081
:102330007B4800680321FDF795FF4A00022108460B
:102340009040802800DB084600242146FFF70AFA67
:10235000564804602868FEF713FF0028ACD0534F9E
:102360003868022857D0012800D187E00028A3D17F
:102370000720FEF70FFF2860012484E00320B060EF
:10238000C820FEF707FF4449086001B0F0BDB068FF
:10239000411E02292ED300282AD003281DD13D4CEE
:1023A0002068062809D1706D316D884201D000F097
:1023B000B9F800F0DFF800202060706C002806D12A
:1023C000FEF7EEFE012070642068401C2060C820EB
:1023D000FEF7E0FE304908600CE0FEE71420FEF74F
:1023E000D9FE206080200021FFF7BCF901B0F0BDCC
:1023F0000320B0603068022800D15DE726480068FD
:10240000FEF7BEFE002800D156E700200321FFF7AB
:102410005BFE01B0F0BD03207060FFF769F90C208E
:10242000F0606420FFF7E0F81E20FFF711F90025A7
:102430002846FEF7BBFD1E487062C34C2046294665
:10244000FEF731F820462946FEF738F8204629469F
:10245000FEF747F818492046FEF741F801252046C7
:102460002946FEF72BF820462946FEF71CF84B209C
:1024700080008930FEF79EFD01B0F0BD0F20FEF711
:1024800089FE2860022400212046FFF76BF93C609A
:1024900001B0F0BD78010020740100206C01002023
:1024A00000400B4000000B40701700006801002046
:1024B000581B000000600740001711007001002049
:1024C00080B5F5480068811E022905D3002803D095
:1024D000012802D1FFF7E2FE80BDFEE7F4000020F4
:1024E000B0B5ED4D6868062804D101200321FFF73F
:1024F000EBFDB0BD0A480168491C01600068022874
:1025000009DC68680328F4D1012000242146FFF784
:1025100029F96C60B0BD01200321FFF7D5FDB0BDE6
:102520007C010020B0B5DC4C206A114D2868FEF714
:1025300027FE00280BD00220FEF72CFE2860616DDC
:10254000226D606D914206DA401C6065B0BD28685E
:10255000002807D0B0BD216D8842FBDD606D401EB4
:102560006065B0BD0220FEF715FE2860B0BDC04614
:1025700080010020B0B5C84D686A5A242046FFF794
:1025800033F8686D60436421FDF76CFEFFF760F877
:10259000B0BDC046F400002080B5BF488169002965
:1025A00013D04168062902D100F012F880BD4168BD
:1025B000042902D04168052902D100F0CDF880BD80
:1025C0004068032801D100F049F880BDF4000020E4
:1025D000F0B581B0B14C2046FDF76EFF28252946A5
:1025E000FDF721FEAC4F3863AE48FDF765FF294685
:1025F000FDF719FEB862002520462946FDF753FF76
:1026000020462946FDF75AFF20462946FDF769FF77
:10261000386B0002396B890109182046FDF75FFF0E
:10262000012620463146FDF749FF20463146FDF799
:102630003AFF9E480168022291430160016820220E
:102640009143016001680822914301600320786191
:102650007D6401B0F0BDC046F400002070B58E4E20
:1026600003207061FFF7ECF900282BD1706A716AC2
:102670004000451A894C2046FDF71EFF2821FDF732
:10268000D2FD281840087062002520462946FDF733
:102690000AFF20462946FDF711FF20462946FDF78F
:1026A00020FF706AC001716A490109182046FDF7D0
:1026B00016FF012520462946FDF700FF2046294642
:1026C000FDF7F1FEF068022808DBFFF7B9F90128F1
:1026D00002D1F068401EF060FFF70AF8F0680128A8
:1026E00030D1052070600124E10218488162184948
:1026F0000A68102313430B600A68202313430B60FE
:10270000016880220A4302602046FEF74FFC204603
:102710002146FFF727F8C820FEF74CFC642420462A
:10272000FEF762FF1E20FEF793FFFEF739FF054616
:102730006543FEF731FF01462846FDF793FD7065BE
:102740000448B06570BDC0460060074000000B4003
:1027500000400B40C3F5A83EF0B581B04E4F0320BA
:102760007861786805282AD14C4C002520462946F6
:10277000FDF799FE20462946FDF7A0FE2046294692
:10278000FDF7AFFE4A492046FDF7A9FE0125204688
:102790002946FDF793FE20462946FDF784FEFEF705
:1027A000C5FFFEF7C3FF786AC010FEF703FC28469A
:1027B0002946FEF7D7FF0420786001B0F0BD7868A5
:1027C000042866D13548FDF777FE2821FDF72BFD5B
:1027D0003863386B7863386B40103862386A7862D7
:1027E000386B8010B862B86AF862386B396B891040
:1027F000401A396B0911401AB8640125E8022849CA
:102800000860284C002620463146FDF74CFE204645
:102810003146FDF753FE20463146FDF762FEB86AA9
:102820004001B96AC90040181F4941182046FDF708
:1028300056FE20462946FDF741FE20462946FDF773
:1028400032FE1A4801680222914301600168202289
:10285000914301600168082291430160062078607D
:102860000E4C20463146FDF71EFE20463146FDF750
:1028700025FE20463146FDF734FE0D492046FDF782
:102880002EFE20462946FDF719FE20462946FDF773
:102890000AFE01B0F0BDC046F40000200060074011
:1028A00024000B400070074048FEFFFF40400240FC
:1028B000804F120002E008C8121F08C1002AFAD196
:1028C00070477047002001E001C1121F002AFBD1B0
:1028D0007047000000000B4000200B4000400B4000
:1028E0000029000000000020B0000000B428000013
:1028F000B0290000B0000020D8020000C428000069
:10290000005A6202540B0000E8030000511400005A
:102910005114000051140000511400005114000023
:102920005114000051140000511400005114000013
:102930005114000051140000511400005114000003
:1029400051140000511400005114000051140000F3
:1029500051140000511400005114000051140000E3
:1029600051140000511400005114000051140000D3
:1029700051140000511400005114000051140000C3
:1029800051140000511400005114000051140000B3
:1029900051140000511400005114000051140000A3
:1029A00051140000010000000A000000010A0000AC
:04000005000000AD4A
:00000001FF
