:020000040000FA
:1000000008020020C10000008D0200007D020000F7
:10001000FFFFFFFFFFFFFFFFFFFFFFFFFFFFFFFFF0
:10002000FFFFFFFFFFFFFFFFFFFFFFFF9102000049
:10003000FFFFFFFFFFFFFFFF8F02000093020000A2
:1000400035010000350100003501000035010000D8
:1000500035010000350100003501000035010000C8
:1000600035010000FFFFFFFF3501000035010000F2
:10007000350100003501000035010000FFFFFFFFE2
:10008000FFFFFFFF350100003501000035010000D2
:100090003501000035010000350100003501000088
:1000A0003501000035010000350100003501000078
:1000B0003501000035010000350100003501000068
:1000C0001D4880471D4880471D4800471D4801695D
:1000D000002908D14169002905D18169002902D18F
:1000E000C169002909D01848C1680901090D002912
:1000F0000ED005290CD006290AD0BFF34F8F134824
:100100001349016013491248C860BFF34F8FFEE7DF
:100110000E4801680E48884200D070470E480F49CB
:1001200001600A480E4901607047FEE7FEE7FEE7FE
:10013000FEE7FEE7FEE70000CD00000095020000AC
:100140006501000000030840800108400000002015
:100150000400FA0500ED00E0008108400100000005
:10016000000000000348854600F006F800480047FC
:100170009D03000008020020064C0125064E05E004
:10018000E36807CC2B430C3C98471034B442F7D3B8
:10019000FFF7ECFFAC040000CC040000F0B596467D
:1001A0000A461349C000461800230025FF20984046
:1001B0002C46104216D00020012199408C46114651
:1001C000C1406746394206D087000F21B9400D4330
:1001D0007146B9400C43401C0828F0D33068A8434E
:1001E000204330600833361D082BDEDDF0BD0000F3
:1001F00020200240F0B5084F7C6AFD6A3E6B8443C4
:100200008D439643002B02D004430D4316437C627A
:10021000FD623E63F0BD000000800840002A0268D5
:1002200001D00A4300E08A4302607047002A426816
:1002300001D00A4300E08A4342607047002A08D098
:10024000012A09D082688A438260C2688A43C260F8
:10025000704782680A43F7E7C2680A43C26082684F
:100260008A4382607047C069084000D0012070470F
:10027000002A01D0416270478162704702480168DC
:100280000029FCD070470000000000207047704734
:1002900070477047F0B534491020C86033490120D9
:1002A00008603348016B40242143016331498A6867
:1002B000272AFCD1416A032292029143416241689C
:1002C0000122D202114341608168C908C907FBD0ED
:1002D0004168C908C900C91C4160416B4907490F01
:1002E0000329FAD1244B1968C908C900491C1960AF
:1002F0000025056241685E15B143416001689F15A4
:100300003943016041681A151143416081688908C9
:10031000C907FBD0016BA14301630168B9430160C8
:1003200003210906816141683143416081684908C0
:10033000C907FBD01968C908C900891C1960056282
:100340004168C908C900491C4160416B4907490F10
:100350000129FAD1186810210843186018680902A9
:1003600008431860F0BD0000008108400083084089
:100370000080084000A106400002084002E008C8D2
:10038000121F08C1002AFAD170477047002001E00F
:1003900001C1121F002AFBD170470000012607206F
:1003A000B6030022400401233146FFF723FF012258
:1003B000150329461046FFF7F1FE01220221032012
:1003C000FFF7ECFE012204210320FFF7E7FE344F84
:1003D000002229463846FFF721FF324C0022022135
:1003E0002046FFF71BFF002204212046FFF716FFDF
:1003F000022229463846FFF721FF022211462046F5
:10040000FFF71CFF022204212046FFF717FF0122FD
:1004100029463846FFF70AFF012202212046FFF74E
:1004200005FF012204212046FFF700FF012231468B
:100430000220FFF7B3FE0122D70339460220FFF75F
:10044000ADFE022101220846FFF7A8FE164D01224B
:1004500031462846FFF7E2FE012239462846FFF7DB
:10046000DDFE012202212846FFF7D8FE04212046A6
:10047000FFF7F9FE0246012189032846FFF7F8FE3F
:1004800002212046FFF7EFFE06460246394628467F
:10049000FFF7EEFE324602212846FFF7E9FEE5E7C8
:1004A00000200B4000600B4000400B40CC040000DB
:1004B00000000020040000007C030000D0040000C5
:1004C00004000020040200008C0300000000000073
:04000005000000C136
:00000001FF
