:020000040000FA
:1000000080030020AD0000002D0B0000810A0000DD
:10001000FFFFFFFFFFFFFFFFFFFFFFFFFFFFFFFFF0
:10002000FFFFFFFFFFFFFFFFFFFFFFFFDD0B0000F4
:10003000FFFFFFFFFFFFFFFF650B0000790C0000D3
:100040002101000021010000210100002101000028
:100050003506000099060000FD060000FFFFFFFFC7
:1000600021010000FFFFFFFF910A0000FFFFFFFFDB
:1000700021010000850B0000C10B000021010000E0
:10008000210100006904000081040000210100003A
:1000900021010000210100002101000021010000D8
:1000A000FFFFFFFF21010000210100001D488047E4
:1000B0001D4880471D4800471D480169002908D197
:1000C0004169002905D18169002902D1C16900294E
:1000D00009D01848C1680901090D00290ED0052969
:1000E0000CD006290AD0BFF34F8F13481349016083
:1000F00013491248C860BFF34F8FFEE70E480168EE
:100100000E48884200D070470E480F4901600A48E7
:100110000E4901607047FEE7FEE7FEE7FEE7FEE7F7
:10012000FEE70000B9000000850C0000510100004E
:100130000003084080010840000000200400FA0588
:1001400000ED00E000810840010000000000000018
:100150000348854600F0F0F800480047CD1900003C
:1001600080030020024670B54A40D30FDB074000F1
:100170002DD04A002AD0010E140E000212020919D5
:10018000400A520A8418E50104465443000A120A40
:100190002E045043A4194219200CC543AA18120C6E
:1001A0000125AD03521C521912047F39240400D0DA
:1001B000521C104301D44000491EC2B20C06C009B3
:1001C0002018401C4008802A02D003E0002070BDA7
:1001D00040084000002900DA0020184370BDC21713
:1001E000C10F504010B54018CA079623002100F0F7
:1001F00069F810BDC20F410040020123400ADB052F
:10020000D207090EC0187F2901DA0020704796290D
:1002100003DC9623591AC84001E096398840002A29
:10022000F4D04042704770B50446002903D0002046
:100230002022012310E0002801D00020C043C04646
:10024000C0460DE02546D5408D4205D30D4695406C
:10025000641B1D46954040191546521E002DF1DCC9
:10026000214670BD70B5002504462E46002911D0E8
:10027000002C01DA01254442002901DA0126494215
:100280002046FFF7D0FFB54200D04042002D00D0FD
:10029000494270BD002C02DA0121C90702E0002C9E
:1002A00000DD03490846C046C046214670BD000037
:1002B000FFFFFF7F002904DA401C490001D14008FC
:1002C0004000704770B40024050C05D110240004D0
:1002D00002D1002921D01124050E01D100020834D9
:1002E000050F01D10001241D850F01D18000A41C40
:1002F000002801DB4000641C002908D020252E1BAB
:100300000D46F540A14000D00121294308430106D4
:100310001B1B000ADB1D02D5002070BC7047DB05EB
:10032000181880180029F8DA401C4900F5D170BC73
:100330004008400070470000064C0125064E05E0CD
:10034000E36807CC2B430C3C98471034B442F7D3F6
:10035000FFF702FFE8270000082800004A1E91412D
:10036000C901026880239A43511801607047B0B5F3
:100370009307DB0E1F249C40FC2515404019426862
:10038000A243994011434160B0BD000010B51B0469
:10039000064C1B1912025118FF22D2438918194327
:1003A0000268802313400B43036010BD0000FFFF71
:1003B0000A06120F026741677047016270474A1EC2
:1003C0009141426F01239A435118416770470000E1
:1003D000B0B5072801D8002200E001229200074BA7
:1003E000D458072800D90838C0B280000F258540AE
:1003F000AC4381402143D150B0BDC04600200240F3
:10040000F0B582B001920A46C000164BC018002415
:100410000AE00168B14321430160009C2146083194
:10042000001D002C0C461AD11346E3401B06F5D0E4
:1004300001250094A54000273C463E463B4603E08C
:100440003F1D5B1C202FE4D01146D9402942F7D034
:100450000199B9400C430F21B9400E43F0E702B0B7
:10046000F0BDC0462020024080B5034800F014F8DB
:1004700002480068804780BD0060074004000020FB
:1004800080B5034800F008F802480068804780BD46
:10049000007007400800002041680122914341603C
:1004A000BFF34F8F70474A1E9141890002680423B1
:1004B0009A43511801607047806870474A1E914105
:1004C000026801239A435118016070474A1E914106
:1004D0004900026802239A43511801607047C160C5
:1004E000704781607047000080B5CF200102002076
:1004F000024A012300F076F880BDC04601000331B6
:10050000F0B581B00446184E776900F02FF8054623
:10051000206007203840401E062809D8784400791A
:10052000400087440C03030505070A001E4D06E042
:10053000002504E00120C50301E07D20050265607F
:100540003068052800D30520C540A5600321284652
:10055000FFF769FEB1684903490F072901D0CD4073
:100560002846E06001B0F0BD208008400D490846F3
:10057000183800684A68084614380068800501D4B5
:10058000002070470848002A0AD40A685201120F56
:1005900001D0504300E0054809684902890FC8406E
:1005A0007047C0461880084000127A000020A1075A
:1005B000B0B584B0044640098000094945586846F2
:1005C000FFF79EFF1F202040032181402940C140AA
:1005D0002E2C00D1891C0298C84004B0B0BDC04682
:1005E0003880084070B50C4C2568002B01D00543BD
:1005F00000E08543A668E0682560002B01D00E432B
:1006000000E08E43A660002B02D01043E06070BD76
:100610009043E06070BDC046248008400721090473
:10062000034A13688B430004184310607047C046A8
:100630002880084080B50020014600F08BF9002892
:1006400005D0BF4800688047002000F07DF90020F9
:10065000012100F07FF9002805D0BA4800688047E2
:10066000002000F071F90120002100F073F900284A
:1006700005D0B34840688047012000F065F90120AB
:10068000014600F067F9002805D0AE484068804771
:10069000012000F059F980BD80B50220002100F052
:1006A00059F9002805D0A64880688047022000F04C
:1006B0004BF90220012100F04DF9002805D0A14896
:1006C00080688047022000F03FF90320002100F0FD
:1006D00041F9002805D09A48C0688047032000F0FF
:1006E00033F90320012100F035F9002805D09548A1
:1006F000C0688047032000F027F980BD80B5042042
:10070000002100F027F9002805D08D4800698047B6
:10071000042000F019F90420012100F01BF9002841
:1007200005D0884800698047042000F00DF90520B5
:10073000002100F00FF9002805D08148406980476A
:10074000052000F001F90520012100F003F900283F
:1007500005D07C4840698047052000F0F5F8062068
:10076000002100F0F7F8002805D07548806980471F
:10077000062000F0E9F80620012100F0EBF800283F
:1007800005D0704880698047062000F0DDF807201A
:10079000002100F0DFF8002805D06948C0698047D3
:1007A000072000F0D1F80720012100F0D3F800283D
:1007B00005D06448C0698047072000F0C5F80820CC
:1007C000002100F0C7F8002805D05D48006A804786
:1007D000082000F0B9F80820012100F0BBF800283B
:1007E00005D05848006A8047082000F0ADF809207D
:1007F000002100F0AFF8002805D05148406A80473A
:10080000092000F0A1F80920012100F0A3F8002838
:1008100005D04C48406A8047092000F095F80A202E
:10082000002100F097F8002805D04548806A8047ED
:100830000A2000F089F80A20012100F08BF8002836
:1008400005D04048806A80470A2000F07DF80B20E0
:10085000002100F07FF8002805D03948C06A8047A1
:100860000B2000F071F80B20012100F073F8002834
:1008700005D03448C06A80470B2000F065F80C2092
:10088000002100F067F8002805D02D48006B804754
:100890000C2000F059F80C20012100F05BF8002832
:1008A00005D02848006B80470C2000F04DF80D2043
:1008B000002100F04FF8002805D02148406B804708
:1008C0000D2000F041F80D20012100F043F8002830
:1008D00005D01C48406B80470D2000F035F80E20F5
:1008E000002100F037F8002805D01548806B8047BC
:1008F0000E2000F029F80E20012100F02BF800282E
:1009000005D01048806B80470E2000F01DF80F20A6
:10091000002100F01FF8002805D00948C06B80476F
:100920000F2000F011F80F20012100F013F800282B
:1009300005D00448C06B80470F2000F005F880BD4B
:10094000540000200C000020012181400948016072
:1009500041607047074A1368C340DB0707D05268FD
:10096000C24001201040401A411E884170470020BB
:100970007047C046444002400179C907027A120715
:100980000A43C188511800688000014A81507047AD
:1009900000400240002A03D002680A430260704708
:1009A00002688A430260704770B500252C462B46CA
:1009B00003E0AD1C4908202D08D0CE07F9D003264E
:1009C000AE4034431646AE403343F2E74169A1439B
:1009D000416141691943416170BD002A03D04268F9
:1009E0000A434260704742688A4342607047012A66
:1009F00007D0002A0BD182680A4382600C30C943B9
:100A00000AE0C2680A43C2600830C94304E0826851
:100A10008A4382600C30C94302680A400260704712
:100A2000C0690840411E884170470000F0B581B0A0
:100A30000E460920C1020025012428462A462346E5
:100A4000FFF7D0FD1021062728463A46FFF7D8FCCD
:100A5000202128463A46FFF7D3FC084F3846314656
:100A600000F04CFA38462946224600F07BFA384618
:100A70002146224600F076FA01B0F0BD0010044095
:100A8000024801680029FCD07047C046A800002039
:100A9000B0B50120C502124C2046294600F09BF952
:100AA00000280ED00F48006880472046294600F0F5
:100AB0007BF90421204600F077F90B480168694072
:100AC00001600421204600F086F9002806D007487E
:100AD000006880470421204600F066F9B0BDC0469A
:100AE00000C002404C00002020200B40500000209D
:100AF000F0B581B00090F0C90B6848684A7A1202DC
:100B00003243097A090611432143294339431943E2
:100B100001430098016701B0F0BD4A1E91410901EF
:100B2000026F10239A43511801677047704780B5D0
:100B30000020014600F00CF880BD00001F2101409C
:100B400001208840014908607047C04600E100E08C
:100B5000024A0A40024302480260704780FFFF1FBA
:100B600008ED00E0704780B584B0002003900121BB
:100B700009020291E1214902019101A9FFF756FF03
:100B800004B080BD70B50C4C00252046294600F00D
:100B900015F901200602204631462A4600F020F9C8
:100BA0002046314600F000F92046294600F07FF942
:100BB00002480068804770BD004003409400002058
:100BC00080B501200102034800F0EEF802480068F9
:100BD000804780BD0040074098000020704700001B
:100BE000001F4142414188001F490A6804239A437B
:100BF000101808607047C04610B50420C043FFF7C6
:100C0000EFFF7D20810108480068FFF70CFB00F032
:100C10002DF80124204600F01DF8002000F006F811
:100C2000204600F003F810BD00000020012805D088
:100C3000002809D10C480021816070470A480168EA
:100C400001220A430260704707480168012291436C
:100C500001607047411E8841400003490A68022331
:100C60009A4310180860704710E000E001490860DE
:100C70007047C04614E000E03D480168491C01602F
:100C80007047C046F0B584B032481021039101602E
:100C90003148012202603148C16A4023029319435E
:100CA000C1622F490B68272BFCD103218B02046AF8
:100CB0009C430462D30204681C43046043681B071E
:100CC000FCD503680B4304218B430360016B0723AE
:100CD00019400329FAD1234C2168114306250195B7
:100CE000A943216000210091C161510205688D4333
:100CF00005601502041F26682E432660C66A029FFF
:100D0000BE43C66226682E4326600525EC05446175
:100D100004680C43046041688907FCD5114E3168B2
:100D200002240C43AC4334600099C1610168114353
:100D3000019CA1430160016B19400129FBD131687D
:100D4000039B19433160910202688A43026004B038
:100D5000F0BDC0460C810840008308400480084074
:100D600008A1064000020840014800687047C046DC
:100D7000AC00002010B5490001238B40046D9C435A
:100D800004658A40016D1143016510BDB0B549008D
:100D900001248C409C40056DA54305658A409A401E
:100DA000016D11430165B0BDC943C167BFF34F8FEA
:100DB0007047C943C167BFF34F8F70474A1E9141C7
:100DC000026901239A435118016170478900401854
:100DD000902140587047C06F0840411E88417047BD
:100DE000002A03D0426F0A4342677047426F8A432A
:100DF00042677047F0B584B00746294A6C3A904282
:100E000001D0012500E00325087843061B0E03935B
:100E10009D403B6DAB433B657B6DAB4380003E1813
:100E20003046A030029030469030019040368C79A8
:100E300038465430974210D1ED430095CD796D007E
:100E40002543039CA5401D430560087A4B7A5C004E
:100E5000044313480368009D2B40039DAC401C4392
:100E60000460FF2008303368834333604888336868
:100E7000034333604889019B18608889029B18608E
:100E80000B7997422A4601D0184602E04879400083
:100E900018439040396D0143396504B0F0BDC04638
:100EA0006CC0024089004018902142507047802257
:100EB000815070478822815070470000024684327A
:100EC0000B8853604A888423C250032212040368AB
:100ED00093430360012212060368934303608A6808
:100EE0000368134303607E4A904202D10A79024BA1
:100EF0001A608989816770478CC00240B0B50C4682
:100F00004168124A0A40E1881143A2880A432189B4
:100F1000114362890A43426001218907884208D04F
:100F20000C49884208D00C4988420DD10C4D1C2038
:100F300004E0074D182001E0084D1E20FFF738FBA4
:100F40002168FFF770F92860B0BDC046FCE0FFFFE4
:100F50002400004000100440001000402410044011
:100F60002410004010238B40002A03D0416819430D
:100F700041607047416899434160704710B582B045
:100F8000694600228A80009201230B540878184099
:100F90004C78E407A40F20188978C907490F401836
:100FA00000049903FFF71EFB02B010BDDF49086182
:100FB0007047C046F0B581B00090494C04262046E9
:100FC0003146FFF7F1FE0025204631462A46FFF75D
:100FD00007FF424801680222914301600168202214
:100FE0009143016001680822914301600F4E304631
:100FF0002946FFF7E3FE01273C02304621462A46F8
:10100000FFF7EEFE30462946FFF751FF009881B208
:101010003046FFF74FFF304621463A46FFF7E0FEE5
:1010200030463946FFF7CAFE01B0F0BD004003402C
:10103000B0B5BE480069002814D000F06BFC02284F
:101040001CD0012832D000282FD124484268022128
:101050000A43426082680A438260072212070346FD
:101060003C3B2FE01E4C042520462946FFF79CFE02
:10107000012220462946FFF7B3FEB0BD174842685B
:1010800008210A43426082680A43826007221207ED
:101090000346343B1C6894431C60032212071C68FF
:1010A00014431C6002680A430260B0BD0B484268EA
:1010B00020210A43426082680A43826007221207A5
:1010C00003462C3B1C6894431C60032212071C68D7
:1010D00014431C6002680A430260B0BD40400240F5
:1010E00000C0024070B51C4D1C49284600F092F922
:1010F00000242846214600F069F92846214600F0E0
:1011000053F92846214600F073F9A04E14493046A1
:1011100000F080F901256903304600F057F92A21D3
:10112000304600F041F93046214600F061F90D4E9D
:10113000CC21304600F06EF93046294600F046F9E1
:101140003046214600F030F93046214600F050F993
:1011500000F0B8FC70BDC04600000B40498900009B
:10116000455C000000400B4010B50446FFF7FCFD55
:10117000A04201DA002010BD012010BD10B50446C8
:10118000FFF7F2FD001910BD10B5684C606B616B84
:101190004000401A216B401840106063E06AE16A29
:1011A0004000401AA16A40184010E062606A616A1B
:1011B0004000401A216A401840106062606B616B09
:1011C0008910401A616B0911401AE064606B40108D
:1011D0002062606BFFF703F80146E06DFEF7C2FF87
:1011E000FFF708F8A063606B216A4010401AE063C3
:1011F000E06BE16A0818A16B401AE063206AE16BBA
:1012000008182064606B616B40004018E06110BDFD
:101210000111801040187047F0B581B0434FB86994
:10122000002826D000F088FB002824D000F0DEF94A
:101230003F4C002520462946FFF735F92046294630
:10124000FFF73CF920462946FFF74BF9386A400181
:10125000396AC90009182046FFF741F901252046DF
:101260002946FFF72BF920462946FFF71CF90220F3
:10127000786101B0F0BD7869032838D100F0B6F983
:101280002B4D002428462146FFF70DF9284621461C
:10129000FFF714F928462146FFF723F9386C40017F
:1012A000396CC9004018254941182846FFF717F93D
:1012B000012628463146FFF701F928463146FFF757
:1012C000F2F8386C0A30FFF775FE7C611948018826
:1012D00009B20129CDDB1A4A13885B1C13801BB2AB
:1012E0000C2BC6DB1480491E018001B0F0BD042028
:1012F0007861104D2888401C288001242046214612
:1013000000F0AEF9288800B2052804DB0020288010
:10131000786A000101E0786A8010FFF74BFEE00276
:10132000054908600520786001B0F0BDE8000020A4
:1013300000700740B600002028000B4070FEFFFF41
:10134000B400002080B500F0B3F880BD7047000005
:1013500010B500F0DFFA002805D0022805D00128DA
:1013600008D1202102E0022100E008210748FFF710
:1013700057FB044600F0E0FA002802D0002C02D00F
:1013800010BD012CFCD101F08BF810BD00200B40EA
:1013900080B501F085F880BD80B501F081F880BD91
:1013A00080B501F07DF880BD70B50024214A064B60
:1013B00002E0641C032C06D2A50056598642F8D1DF
:1013C00059510324F5E770BDB800002070B5002422
:1013D000184A064B02E0641C032C06D2A50056599D
:1013E0008642F8D159510324F5E770BDC4000020AE
:1013F00070B500240F4A064B02E0641C032C06D291
:10140000A50056598642F8D159510324F5E770BD1D
:10141000D000002070B50024064A074B02E0641C8F
:10142000032C06D2A50056598642F8D159510324FF
:10143000F5E770BDDC270000DC000020024600203C
:101440000F2903D88900024B5A507047C043704798
:101450005400002002460020032904D8890003A379
:1014600059580A607047C0437047C04604000020C6
:101470000800002094000020980000200149086026
:101480007047C0464C000020014908607047C046C4
:101490005000002053480068401C704710B5514868
:1014A000046851480021FFF791FC201A401C10BD30
:1014B0000848026807210A40062A04D1826C036D9D
:1014C000D21A521C026402680A40072A01D1816CB8
:1014D0000164704740C0024080B543480021FFF7D7
:1014E000E6FC80BD10B50024401E0549884205D8A1
:1014F00081B23D48FFF7DEFC204610BDE04310BD41
:10150000FE7C00003649086000207047F0B581B0CD
:10151000064687B2344D0024284621463A46FFF756
:10152000C1FC012128463A46FFF7BCFC03212846AE
:101530003A46FFF7B7FC2A480068301A82B2022107
:101540002846FFF7AFFC204601B0F0BDF0B581B0F2
:101550000646234D28688119224F3A68521CEC4CEC
:1015600091421FD23868801B401C82B20025204661
:101570002946FFF797FC3868801B401C82B2012186
:101580002046FFF78FFC3868801B401C82B2032185
:101590002046FFF787FC3868801B11490968401A0C
:1015A000461C15E0401C82B200212046FFF77AFC61
:1015B0002888401C82B2012620463146FFF772FC83
:1015C0002888401C82B203212046FFF76BFC354679
:1015D000B2B202212046FFF765FC284601B0F0BDFB
:1015E000A000002088C0024000C0024010B50024C6
:1015F000D8490868821E3E2A07D8F04A1268002A95
:1016000005D0022807D0401008E0E04310BD402874
:1016100003D0400002E0402000E0022008602146A4
:1016200000F01EF8204610BD0020CA490A68931E2B
:101630003E2B08D8E14B1B68002B06D0022A09D0AC
:1016400052100A607047C0437047402A05D05200CC
:101650000A60704740220A60704702220A607047A1
:10166000F0B583B00F4601460024E043B94B1A6839
:1016700002924A1E3F2A00D94DE052007A449288D5
:10168000520097443F006E001A0186001A011A01A9
:101690001A0199001A011A011A011A011A011A01F4
:1016A0001A01BA001A011A011A011A011A011A01C3
:1016B0001A011A011A011A011A011A011A011A0152
:1016C0001A01CE001A011A011A011A011A011A018F
:1016D0001A011A011A011A011A011A011A011A0132
:1016E0001A011A011A011A011A011A011A011A0122
:1016F0001A011A011A011A011A011A011A011A0112
:101700001A01F200012119607F4801607F4804221C
:101710000260C348DFE0802900D1D0E001252A0221
:10172000914200D0C9E01A607748056077480421EB
:101730000160BB48402101600197B74F0026384641
:1017400029462A463346FFF721FB032138462A461D
:101750003346FFF71BFB3846019F31462A46334686
:10176000CCE002201860AC4E0025304629462A46BF
:101770002B46FFF70BFBAA4840210160624801217C
:10178000016030460A462B46FFF700FB0321304636
:1017900083E03E4604271F609F48032100252A4618
:1017A0002B46FFF7F3FA59480760374656480121A0
:1017B000016099480A4613E00820186096483E46A2
:1017C0000127002539462A462B46FFF7DFFA4E4807
:1017D00007604E480421016003218F483A4637468E
:1017E0002B46FFF7D3FA8C4829462A462B46FFF7AB
:1017F000CDFA8B48001F402156E010201860864823
:10180000002529462A462B46FFF7C0FA8448402186
:1018100001603E480421016003213E4601277E48C5
:1018200012E0202018607C48032100252A462B4620
:10183000FFF7ACFA35480421016079484021016086
:101840003E460127744829463A462B46FFF79EFA42
:10185000714839462A462B46FFF798FA2A48001F56
:1018600007603746012F22D024E040261E606A48D8
:1018700001970127002539462A462B46FFF786FAAD
:101880002148076066480660634829463A46019F3A
:101890002B46FFF77BFA03215F482A462B46FFF7CA
:1018A00075FA1A48001F04210160012F02D129484E
:1018B00002990160FFF710FE204603B0F0BD8020C2
:1018C00018601148001F012101601048001F042208
:1018D00002605348001F402202604F4E00253046F0
:1018E0002A462B46FFF752FA032130462A462B465A
:1018F000FFF74CFA304629462A462B46FFF746FAB0
:10190000012FD7D1D3E7C04628000B4028400B4019
:1019100000C002400F4801681220014201D002209D
:1019200070472420014201D0012070470020482246
:10193000114200D1C043704720480068054909782A
:101940005422114202D0411E884170474142414118
:10195000084670479C000020F0B581B00125EE02DA
:101960002D4F0024384631462246FFF739FA3846D3
:101970003146FFF719FA0B48FFF780FD384631462C
:10198000FFF712FA384631462A46FFF729FA0A20AD
:10199000FFF7B8FD28462146FFF762FE204601B05A
:1019A000F0BDC0464513000001460020012902D8C1
:1019B000024A11607047C0437047C0465C01002076
:1019C000014908607047C046B0000020FFF78AFB5D
:1019D00000F064FB00F0E2FB0124E1020E48224625
:1019E000FFF7FEF90D48402101600D4A131F250342
:1019F0001D600C4B08251D601960802119602102B3
:101A00000160A1021160A10311601460E103416053
:101A100000F0DCFCFCE7C04600C0024024000B40A4
:101A200028200B4024400B40F0B581B00620FEF783
:101A3000F5FD01248021022520462A46FEF7E0FC20
:101A4000210220462A46FEF7DBFC002738462946BD
:101A50002A46FEF7D5FC04263846314600962A462B
:101A6000FEF7CEFC1648294632462346FEF78EFC8A
:101A70000A21134E3046FEF7A0FC304639463A465E
:101A8000FEF775FC304621462246FEF770FC032720
:101A9000304639462A46FEF76AFC304600993A46F7
:101AA000FEF765FC10213046FEF782FC30462146E9
:101AB000FEF754FC30462146FEF781FC01B0F0BD34
:101AC0000000014080B5FFF732F8FEF70DFDFFF78B
:101AD0004AF8FFF791F800F047F900F00BF900F031
:101AE000D1F800F007F800F07FF900F019FAFFF7DD
:101AF0009BFF80BDF0B58BB000240A940994089434
:101B00000123D903204622460193FEF76BFD594A73
:101B1000079403E0641C032C564A3FD0A0001158E0
:101B20000029F7D011180491AE4908180290002539
:101B3000019F039403E06D1C7F00102DEAD00498F0
:101B400000683842F7D00122059220463946FEF758
:101B500057FC02980668BCB2002206923046214625
:101B6000FEF718FF022230462146FEF740FF3046BE
:101B70002146039C059AFEF730FFE8B2E1B2FEF77A
:101B800027FC08A8032101720699C18001710895FC
:101B9000FEF7F2FE079838430790CCE70120C40314
:101BA000354D374E354F07E0884200D132E04000D6
:101BB000611C814200D85BE007990842F7D0FF28FA
:101BC00000DD32E0411E3F2900D94EE07944097919
:101BD00049008F442525243B2424243B2424242409
:101BE0002424241F242424242424242424242424BA
:101BF0002424241F242424242424242424242424AA
:101C00002424242424242424242424242424242494
:101C10002424241F0620FEF791FF2046C7E7C6E7CD
:101C20000420FEF78BFF0220C1E70121A84206DC59
:101C3000B04210DC0A029042ECD04902B4E7B8424C
:101C40000EDC0A039042E5D04903ADE70520FEF71C
:101C500075FF0820ABE78A029042DBD0C902A3E7F8
:101C60008A039042D6D0C9039EE78028D2D09EE74F
:101C70000BB0F0BDB8000020FF0F0000FF3F0000D8
:101C8000FF030000F0B583B0002402E0641C032CC5
:101C90002BD0A200164989580029F7D01449891879
:101CA0000291504989180191012502E06D00290C2B
:101CB000ECD1029909682942F8D001222046294630
:101CC000FEF79EFB01980668AFB200223046394607
:101CD000FEF760FE022230463946FEF788FE0322F8
:101CE00030463946FEF760FEE0E703B0F0BDC0467F
:101CF000C4000020F0B585B0002002E0401C03289D
:101D00002ED08200174989580029F7D01549891823
:101D100003913449891801910125029002E06D0078
:101D2000290CEBD1039909682942F8D001220492C9
:101D30002946FEF765FB01980768ACB200263846D5
:101D400021463246FEF726FE384621463246FEF749
:101D50004EFE38462146049AFEF73FFE0298DEE723
:101D600005B0F0BDD0000020F0B583B0002402E043
:101D7000641C032C31D02046FFF700F9A00018495D
:101D800009580029F4D01649091802911549081874
:101D900000900125019402E06D00280CE8D1029822
:101DA00000682842F8D00126204629463246FEF730
:101DB00027FB00980768ACB2022238462146FEF79E
:101DC00016FE032238462146FEF7EEFD3846214630
:101DD000019C3246FEF7DEFDDEE703B0F0BDC046F3
:101DE000DC000020DC270000F0B595B00125A90338
:101DF000002420462A462B46FEF7F4FB1021042639
:101E0000059628463246FEF7FBFAE9032846324695
:101E1000FEF7F6FAA90220463246FEF7F1FA690209
:101E200028463246FEF7ECFA2802049011A9888170
:101E30000C711394039437481190BD4F3846FFF747
:101E40003DF80DAE07207080347033480E90334853
:101E50000F9038463146FEF7CDFF5024748135701F
:101E600038463146FEF7C6FF748103200290307079
:101E700038463146FEF7BEFF3220708102200190C5
:101E8000307038463146FEF7B5FF38460599FEF703
:101E90008BFF0A20FEF752FE38462946FEF78EFFDA
:101EA00038462946FEF739FE3846039C21462A4625
:101EB000FEF760FF384629462A46FEF75BFF3846A4
:101EC000019E31462A46FEF755FF384602992A46BA
:101ED000FEF750FF06A90C830A96099520200B9067
:101EE000089428050790680506903846FEF700FE1E
:101EF000E90238462A46FEF773FF3846059922461E
:101F0000FEF76EFF384604992246FEF769FF15B0CA
:101F1000F0BDC0466400280001000001000150002F
:101F2000F0B585B05C4E3046FEF7B6FA594F3846EC
:101F3000FEF7B2FA1120FEF701FE1220FEF7FEFDB9
:101F4000002530462946FEF7CCFA38462946FEF7EA
:101F5000C8FA012430462146FEF7B0FA3846214639
:101F6000FEF7ACFA30462146FEF7B0FA3846214675
:101F7000FEF7ACFA260201AFBE813D711B4801900D
:101F800003951B483946FEF799FF1A483946FEF774
:101F900095FF174F38462146FEF70BFF154821469F
:101FA000FEF707FF38463146FEF7FEFE11480746AA
:101FB0003146FEF7F9FE0D20FEF7C0FD0E20FEF7BC
:101FC000BDFD0B482946FEF772FF38462946FEF74D
:101FD0006EFF074831462246FEF702FF384631467B
:101FE0002246FEF7FDFE05B0F0BDC046FFFF27000C
:101FF0000040034000400740F0B581B00D4600901E
:10200000244F002438462146FEF74DFA3846214633
:10201000FEF754FA38462146FEF763FA4548016850
:10202000022291430160016820229143016001680E
:102030000822914301603E4F042638463146FEF7A0
:10204000B3FE384631462246FEF7CAFEDC4E304625
:102050002146FEF728FA30462146FEF72FFA304691
:102060002146FEF73EFA0098EF4EB461012800D0F9
:1020700080202146FFF7F4FA002D03D0032D03D171
:10208000032503E02C4601E0E443032535602046A8
:1020900001B0F0BD0070074000600740F0B581B0AE
:1020A000FFF75AFC0024204600F054F81F48022590
:1020B0002946FFF7CFF91E4E042730463946FEF772
:1020C00073FE304639462246FEF78AFE19480168FB
:1020D000A943016001682022914301600168082240
:1020E000914301601448FFF7CFF9144801252946B0
:1020F000FFF7A4F912480521FFF7A0F911480321C1
:10210000FFF79CF910482146FFF7A4F90F4829462C
:10211000FFF7A0F9EF4804600D48FFF751FC3C20A1
:1021200000F028F8204601B0F0BDC0463110000094
:1021300000C00240404002405113000091130000D3
:10214000A113000099130000E923000019120000F8
:102150001112000080B5DF490A68002A02D0096820
:10216000032903D1FFF720FC002080BD0020C043DD
:1021700080BDC046014614384C2801D2002008E03A
:102180000020C0435F2901DD5F2102E0132903DC49
:102190001421F34A51657047401E704710B5002462
:1021A000E043EF490A68012A0AD00A68022A07D0E8
:1021B000012008604C6088612146FFF751FA2046F3
:1021C00010BDC04670B5E64C6068062809D8C04608
:1021D000784400794000874411051C5C03036400C7
:1021E00070BDFEE7784D2868002800D180E0FEF73A
:1021F000BBFF0028F4D00220606070BD0120606049
:1022000000206066A066684908606F490860E06663
:1022100070BD654D2868002822D1644801681022ED
:102220009143016001682022914301606048016888
:102230008022914301600121C90241625D48FFF79C
:1022400051F97D20C000FFF761F93220FEF796FFBB
:10225000286008200021FFF703FA57480221016097
:102260002868FEF781FF0028BAD0534E3068022854
:1022700059D0012800D187E00028B1D11920FEF7FC
:102280007DFF2860012400212046FFF7E9F9346032
:1022900070BD0320A060C820FEF770FF41490860B0
:1022A00070BDA068411E02292DD3002829D0032823
:1022B0001DD13B4D2868062809D1A06D616D88426B
:1022C00001D000F0B5F800F0DBF800202860A06C29
:1022D000002806D1FEF758FF0120A0642868401CA2
:1022E0002860C820FEF74AFF2E4908600BE0FEE791
:1022F0001420FEF743FF286080200021FFF7B0F98B
:1023000070BD0320A0602068022800D168E725483E
:102310000068FEF729FF002800D161E700200321B3
:10232000FFF76AFE70BD03206060FFF75FF91820B9
:10233000E0606420FFF7D6F81E20FFF707F90025BC
:102340002846FEF733FE1D486062C14C20462946F0
:10235000FEF7A9F820462946FEF7B0F820462946A0
:10236000FEF7BFF817492046FEF7B9F801252046C9
:102370002946FEF7A3F820462946FEF794F8FF20E9
:10238000B630FEF717FE70BD3220FEF7F7FE28606C
:1023900008200021FFF764F90220306070BDC046BC
:1023A000700100206C0100206401002000400B40FF
:1023B00000000B407017000060010020581B000057
:1023C00000600740001711006801002080B5F44844
:1023D0000068811E022905D3002803D0012802D1FC
:1023E000FFF7F0FE80BDFEE7B0B5ED4D686806284A
:1023F00004D101200321FFF7FFFDB0BD0B48017898
:10240000491C017048B2022809DC68680328F4D12D
:10241000012000242146FFF723F96C60B0BD0120A4
:102420000321FFF7E9FDB0BDE800002074010020A2
:10243000B0B5DB4C206A114D2868FEF795FE0028E8
:102440000BD00520FEF79AFE2860A16D626DA06D8D
:10245000914206DA401CA065B0BD2868002807D06C
:10246000B0BD616D8842FBDDA06D401EA065B0BDB2
:102470000520FEF783FE2860B0BDC046780100202D
:10248000B0B5C74D686A5A242046FFF72BF8A86DEF
:1024900060436421FDF7E6FEFFF758F8B0BDC04683
:1024A00080B5BF488169002913D04168062902D14F
:1024B00000F012F880BD4168042902D04168052966
:1024C00002D100F0CDF880BD4068032801D100F0B2
:1024D00049F880BDE8000020F0B581B0B14C20463D
:1024E000FDF7EAFF28252946FDF79DFEAC4F38632E
:1024F000AE48FDF7E1FF2946FDF795FEB8620025DD
:1025000020462946FDF7CFFF20462946FDF7D6FF96
:1025100020462946FDF7E5FF386B0002396B89013B
:1025200009182046FDF7DBFF012620463146FDF75E
:10253000C5FF20463146FDF7B6FF9E4801680222DE
:1025400091430160016820229143016001680822E3
:102550009143016003207861BD6401B0F0BDC046C5
:10256000E800002070B58E4E03207061FFF7E4F99B
:1025700000282BD1706A716A4000451A894C2046A8
:10258000FDF79AFF2821FDF74EFE281840087062DB
:10259000002520462946FDF786FF20462946FDF7FF
:1025A0008DFF20462946FDF79CFF706AC001716AC5
:1025B000490109182046FDF792FF012520462946CA
:1025C000FDF77CFF20462946FDF76DFFF0680228E5
:1025D00008DBFFF7B1F9012802D1F068401EF06076
:1025E000FFF704F8F068012830D10520706001245D
:1025F000E1021848816218490A68102313430B60EE
:102600000A68202313430B60016880220A4302609A
:102610002046FEF7CBFC20462146FFF721F8C820D4
:10262000FEF7C8FC64242046FEF75CFF1E20FEF780
:102630008DFFFEF733FF05466543FEF72BFF01468E
:102640002846FDF70FFEB0650448F06570BDC04632
:102650000060074000000B4000400B40C3F5A83E5F
:10266000F0B581B04E4F03207861786805282AD1F3
:102670004C4C002520462946FDF715FF20462946EB
:10268000FDF71CFF20462946FDF72BFF4A4920464F
:10269000FDF725FF012520462946FDF70FFF2046BF
:1026A0002946FDF700FFFEF7BFFFFEF7BDFF786A82
:1026B000C010FEF77FFC28462946FEF7D1FF042014
:1026C000786001B0F0BD7868042866D13548FDF720
:1026D000F3FE2821FDF7A7FD3863386B7863386B6C
:1026E00040103862386A7862386B8010B862B86A15
:1026F000F862386B396B8910401A396B0911401A2E
:10270000F8640125E80228490860284C0026204684
:102710003146FDF7C8FE20463146FDF7CFFE204684
:102720003146FDF7DEFEB86A4001B96AC9004018BB
:102730001F4941182046FDF7D2FE20462946FDF7E5
:10274000BDFE20462946FDF7AEFE1A48016802226A
:1027500091430160016820229143016001680822D1
:1027600091430160062078600E4C20463146FDF70B
:102770009AFE20463146FDF7A1FE20463146FDF780
:10278000B0FE0D492046FDF7AAFE20462946FDF77A
:1027900095FE20462946FDF786FE01B0F0BDC046F5
:1027A000E80000200060074024000B400070074054
:1027B00048FEFFFF40400240804F120002E008C880
:1027C000121F08C1002AFAD170477047002001E0AB
:1027D00001C1121F002AFBD17047000000000B400E
:1027E00000200B4000400B400828000000000020A3
:1027F000A4000000BC270000AC280000A8000020B6
:10280000D8020000CC270000005A62024D130000DD
:102810004D1300004D1300004D1300004D13000038
:102820004D1300004D1300004D1300004D13000028
:102830004D1300004D1300004D1300004D13000018
:102840004D1300004D1300004D1300004D13000008
:102850004D1300004D1300004D1300004D130000F8
:102860004D1300004D1300004D1300004D130000E8
:102870004D1300004D1300004D1300004D130000D8
:102880004D1300004D1300004D1300004D130000C8
:102890004D1300004D1300004D1300004D130000B8
:0C28A0004D130000010000000A000000C1
:04000005000000AD4A
:00000001FF
