:020000040000FA
:1000000078030020AD000000DB0B00002D0B00008A
:10001000FFFFFFFFFFFFFFFFFFFFFFFFFFFFFFFFF0
:10002000FFFFFFFFFFFFFFFFFFFFFFFF9D0C000033
:10003000FFFFFFFFFFFFFFFF110C0000390D000065
:100040002101000021010000210100002101000028
:10005000E506000049070000AD070000FFFFFFFFB5
:1000600021010000FFFFFFFF3D0B0000FFFFFFFF2E
:1000700021010000310C00006D0C00002101000086
:1000800021010000210500003905000021010000C8
:1000900021010000210100002101000021010000D8
:1000A000FFFFFFFF21010000210100001D488047E4
:1000B0001D4880471D4800471D480169002908D197
:1000C0004169002905D18169002902D1C16900294E
:1000D00009D01848C1680901090D00290ED0052969
:1000E0000CD006290AD0BFF34F8F13481349016083
:1000F00013491248C860BFF34F8FFEE70E480168EE
:100100000E48884200D070470E480F4901600A48E7
:100110000E4901607047FEE7FEE7FEE7FEE7FEE7F7
:10012000FEE70000B9000000450D0000510100008D
:100130000003084080010840000000200400FA0588
:1001400000ED00E000810840010000000000000018
:100150000348854600F040F9004800474D1B000069
:100160007803002030B50B460146002020220124F0
:1001700009E00D46D5409D4205D31D469540491BDB
:100180002546954040191546521E002DF1DC30BD24
:1001900070B500242546002801DA012440420029D8
:1001A00001DA01254942FFF7DDFFAC4200D04042B1
:1001B000002C00D0494270BDF0B51FB488B00B9937
:1001C0000998002448400999C00F4900490809913D
:1001D000C0070B990090490049080B9109990898AC
:1001E000A64608431CD00B990A98084318D00998D2
:1001F00001244000420D4800410D099824050003E8
:10020000000B204309900B980003000B20430B9038
:1002100050181C494018002201901446104605E071
:10022000002001460DB0F0BD032801DA034600E0CE
:1002300003239C46C11A0AAE0AE05F0008ADED5BDD
:100240004F00F75B7D430027AA187C41491C5B1EC9
:100250006145F2DD410004AB5A522104120C0A43FD
:10026000240C401C0828DFDB01980290009970469E
:1002700001910090059B049A0799069800F05AF89E
:10028000D0E700000DFCFFFF0EB5C217C10F5040B4
:10029000CA0740180021054B0293019200910A46BB
:1002A0000B4600F047F803B000BD00003304000027
:1002B00070B5CD0F4A0009030123090B1B05194333
:1002C0000B4BED070024520D9A4201DA002070BD5D
:1002D000074B34339A4203DC9A1A00F00DF802E01F
:1002E0000449511888402C43F1D0404270BD0000B1
:1002F000FF030000CDFBFFFF10B5202A04DB0846FA
:10030000203AD040002110BD0B46D340D0402024DD
:10031000A21A91400843194610BD10B5002B08DA07
:100320000024401C614192185B411A4301D14008EE
:10033000400010BDF0B51FB482B005460C0003D0DC
:10034000084602F0FBFA02E002F0F8FA203002461A
:1003500000902146284600F051F8049B059A044677
:100360000F4618431143084314D0184610431BD0BE
:10037000009840210A1A18460599FFF7BDFF054667
:100380000E46009A0599049800F038F8084305D005
:10039000012004E02046394607B0F0BD0020C11717
:1003A00005430E432C43374300990E986305401ACA
:1003B0007905E40A00220C43FD0A0A3002D5002028
:1003C0000146E9E70105101969410C9C0D9D0019D2
:1003D0006941FFF7A2FFDFE7064C0125064E05E065
:1003E000E36807CC2B430C3C98471034B442F7D356
:1003F000FFF7B2FEB4290000D429000010B5202A6E
:1004000004DB0146203A9140002010BD914020239A
:100410009C1A0346E3401943904010BD02688023B4
:10042000002902D01A43026070479A430260704765
:10043000B0B59307DB0E1F249C40FC2515404019E6
:100440004268A243994011434160B0BD10B51B04FE
:10045000064C1B19FF24E4431202121951181943C8
:100460000268802313400B43036010BD0000FFFFB0
:100470000A06120F02674167704701627047426FB8
:100480000123002902D01A43426770479A4342670A
:1004900070470000B0B5072801D8002200E0012213
:1004A0009200074BD458072800D90838C0B2800002
:1004B0000F258540AC4381402143D150B0BDC0469B
:1004C00000200240F0B582B001920A46C000134BF2
:1004D000C1180023FF209840104219D00091012537
:1004E0009D4000273C463E4638461146C1402942C1
:1004F00005D00199B9400C430F21B9400E433F1D6F
:10050000401C202FF1D100990868B04320430860B7
:100510000833091D092BDDD302B0F0BD20200240B5
:1005200080B5034800F014F802480068804780BD99
:10053000006007400800002080B5034800F008F87C
:1005400002480068804780BD007007400C00002012
:100550004168012291434160BFF34F8F70470268A9
:100560000423002902D01A43026070479A430260B4
:1005700070478068704702680123002902D01A433F
:10058000026070479A4302607047026802230029A4
:1005900002D01A43026070479A4302607047C160FC
:1005A000704781607047000080B5CF2001020020B5
:1005B000024A012300F076F880BDC04601000331F5
:1005C000F0B581B00446184E776900F02FF8054663
:1005D000206007203840401E062809D8784400795A
:1005E000400087440C03030505070A001E4D06E082
:1005F000002504E00120C50301E07D2005026560BF
:100600003068052800D30520C540A5600321284691
:10061000FFF7A8FDB1684903490F072901D0CD4074
:100620002846E06001B0F0BD208008400D49084632
:10063000183800684A68084614380068800501D4F4
:10064000002070470848002A0ADB0A685201120F8E
:1006500001D0504300E0054809684902890FC840AD
:100660007047C0461880084000127A000020A10799
:10067000B0B584B004464009800009494558684631
:10068000FFF79EFF1F202040032181402940C140E9
:100690002E2C00D1891C0298C84004B0B0BDC046C1
:1006A00038800840F0B5084C2568A668E768002B3C
:1006B00003D017430E43054302E085438E4397431F
:1006C0002560A660E760F0BD24800840072109048A
:1006D000034A13688B430004184310607047C046F8
:1006E0002880084080B50020014600F08BF90028E2
:1006F00005D0BF4800688047002000F07DF9002049
:10070000012100F07FF9002805D0BA480068804731
:10071000002000F071F90120002100F073F9002899
:1007200005D0B34840688047012000F065F90120FA
:10073000014600F067F9002805D0AE4840688047C0
:10074000012000F059F980BD80B50220002100F0A1
:1007500059F9002805D0A64880688047022000F09B
:100760004BF90220012100F04DF9002805D0A148E5
:1007700080688047022000F03FF90320002100F04C
:1007800041F9002805D09A48C0688047032000F04E
:1007900033F90320012100F035F9002805D09548F0
:1007A000C0688047032000F027F980BD80B5042091
:1007B000002100F027F9002805D08D480069804706
:1007C000042000F019F90420012100F01BF9002891
:1007D00005D0884800698047042000F00DF9052005
:1007E000002100F00FF9002805D0814840698047BA
:1007F000052000F001F90520012100F003F900288F
:1008000005D07C4840698047052000F0F5F80620B7
:10081000002100F0F7F8002805D07548806980476E
:10082000062000F0E9F80620012100F0EBF800288E
:1008300005D0704880698047062000F0DDF8072069
:10084000002100F0DFF8002805D06948C069804722
:10085000072000F0D1F80720012100F0D3F800288C
:1008600005D06448C0698047072000F0C5F808201B
:10087000002100F0C7F8002805D05D48006A8047D5
:10088000082000F0B9F80820012100F0BBF800288A
:1008900005D05848006A8047082000F0ADF80920CC
:1008A000002100F0AFF8002805D05148406A804789
:1008B000092000F0A1F80920012100F0A3F8002888
:1008C00005D04C48406A8047092000F095F80A207E
:1008D000002100F097F8002805D04548806A80473D
:1008E0000A2000F089F80A20012100F08BF8002886
:1008F00005D04048806A80470A2000F07DF80B2030
:10090000002100F07FF8002805D03948C06A8047F0
:100910000B2000F071F80B20012100F073F8002883
:1009200005D03448C06A80470B2000F065F80C20E1
:10093000002100F067F8002805D02D48006B8047A3
:100940000C2000F059F80C20012100F05BF8002881
:1009500005D02848006B80470C2000F04DF80D2092
:10096000002100F04FF8002805D02148406B804757
:100970000D2000F041F80D20012100F043F800287F
:1009800005D01C48406B80470D2000F035F80E2044
:10099000002100F037F8002805D01548806B80470B
:1009A0000E2000F029F80E20012100F02BF800287D
:1009B00005D01048806B80470E2000F01DF80F20F6
:1009C000002100F01FF8002805D00948C06B8047BF
:1009D0000F2000F011F80F20012100F013F800287B
:1009E00005D00448C06B80470F2000F005F880BD9B
:1009F0005800002010000020012181400A480160B9
:100A000041607047B0B5012214468440064B1D6812
:100A1000254206D05B68C3401340581A411E8841E6
:100A2000B0BD0020B0BDC046444002400179C907B6
:100A3000027A12070A43C188511800688000014AEF
:100A40008150704700400240002A03D002680A43E8
:100A50000260704702688A430260704770B50025E3
:100A60002C462B46CE0705D00326AE40344316460F
:100A7000AE403343AD1C4908202DF3D14169A14359
:100A8000416141691943416170BD002A03D0426848
:100A90000A434260704742688A4342607047002AB6
:100AA00007D0012A0BD1C2680A43C2600830C9438B
:100AB0000AE082680A4382600C30C94304E082681D
:100AC0008A4382600C30C94302680A400260704762
:100AD000C0690840002800D001207047F0B581B0FF
:100AE0000E460920C1020025012428462A46234635
:100AF000FFF7D8FD1021062728463A46FFF7E2FC0B
:100B0000202128463A46FFF7DDFC634F3846314640
:100B100000F05AFA38462946224600F089FA38464B
:100B20002146224600F084FA01B0F0BD0248016877
:100B30000029FCD07047C046A8000020B0B50120B5
:100B4000C502124C2046294600F0A7F900280ED015
:100B50000F48006880472046294600F085F90421A7
:100B6000204600F081F90B480168694001600421CA
:100B7000204600F092F9002806D007480068804718
:100B80000421204600F070F9B0BDC04600C002400C
:100B90005000002020200B4054000020F0B581B010
:100BA0000090F0C90B6848684A7A12023243097A09
:100BB000090611432143294339431943014300984E
:100BC000016701B0F0BD026F1023002902D01A4363
:100BD000026770479A4302677047704780B50020EC
:100BE000014600F00BF880BD1F2101400120884024
:100BF000014908607047C04600E100E0024A0A402F
:100C0000024302480260704780FFFF1F08ED00E0CA
:100C1000704780B584B00020039001210902029141
:100C2000E1214902019101A9FFF758FF04B080BDFD
:100C300070B50C4C00252046294600F01FF9012014
:100C40000602204631462A4600F02DF9204631465C
:100C500000F00AF92046294600F08FF902480068A2
:100C6000804770BD004003409800002080B50120FF
:100C70000102034800F0F8F802480068804780BD90
:100C8000004007409C000020C2B2E5490A600A69A2
:100C9000D205FCD57047C0460010044070470000E4
:100CA00021490A680423042802D09A430A60704745
:100CB0001A430A607047C04610B50420C043FFF7CE
:100CC000EFFF7D20810108480068FFF74BFA00F034
:100CD0002DF80124204600F01BF8002000F006F853
:100CE000204600F003F810BD040000200E49002843
:100CF00006D00A68012806D1012002430A60704725
:100D0000002088607047012082430A607047C04617
:100D100005490A680223002802D01A430A60704776
:100D20009A430A607047C04610E000E0014908603D
:100D30007047C04614E000E03D480168491C01606E
:100D40007047C046F0B584B032481021039101606D
:100D50003148012202603148C16A4023029319439D
:100D6000C1622F490B68272BFCD103218B02046A37
:100D70009C430462D30204681C43046043681B075D
:100D8000FCD503680B4304218B430360016B0723ED
:100D900019400329FAD1234C2168114306250195F6
:100DA000A943216000210091C161510205688D4372
:100DB00005601502041F26682E432660C66A029F3E
:100DC000BE43C66226682E4326600525EC054461B5
:100DD00004680C43046041688907FCD5114E3168F2
:100DE00002240C43AC4334600099C1610168114393
:100DF000019CA1430160016B19400129FBD13168BD
:100E0000039B19433160910202688A43026004B077
:100E1000F0BDC0460C8108400083084004800840B3
:100E200008A1064000020840014800687047C0461B
:100E3000AC00002010B5490001238B40046D9C4399
:100E400004658A40016D1143016510BDB0B54900CC
:100E500001248C409C40056DA54305658A409A405D
:100E6000016D11430165B0BDC943C167BFF34F8F29
:100E70007047C943C167BFF34F8F704702690123B1
:100E8000002902D01A43026170479A4302617047F9
:100E900089004018902140587047C06F08400028D2
:100EA00000D001207047002A03D0426F0A434267F6
:100EB0007047426F8A43426770470000F0B584B0C4
:100EC00007462A4A6C3A904201D0012400E00324EC
:100ED000087843061B0E03939C403B6DA3433B6580
:100EE0007B6DA34380003E183046A0300290304610
:100EF000903001904036384654308D79974212D167
:100F0000E4430094CC7964002C43039DAC401C4323
:100F1000046016480368009C23400C7A00944C7AC5
:100F20006500009C2543039CA5401D430560FF20F0
:100F30000830336883433360488833680343336041
:100F40004889019B18608889029B18600B79974239
:100F5000224602D09340386D04E04879400018439F
:100F600090403B6D03433B6504B0F0BD6CC0024054
:100F7000890040189021425070478022815070476C
:100F800088228150704700000A888823C2504A880E
:100F90008423C25003221204036893430360012296
:100FA00012060368934303608A680368134303606F
:100FB000874A904202D10A79024B1A608989816777
:100FC0007047C0468CC00240B0B50C464168124A1A
:100FD0000A40E1881143A2880A43218911436289AA
:100FE0000A43426001218907884208D00C4988429F
:100FF00008D00C4988420DD10C4D1C2004E0074D4F
:10100000182001E0084D1E20FFF732FB2168FFF792
:10101000A9F82860B0BDC046FCE0FFFF24000040F6
:101020000010044000100040241004402410004030
:1010300010238B40002A03D0416819434160704758
:10104000416899434160704710B582B069460022FB
:101050008A80009201230B540878C007C00B4C789B
:10106000E407A40B20188978C907490B4018990395
:10107000FFF718FB02B010BDF54908617047C04684
:10108000F0B581B00090524C042620463146FFF75F
:10109000EBFE0025204631462A46FFF704FF4B4869
:1010A000016802229143016001682022914301609E
:1010B00001680822914301600126F002104908608E
:1010C000104F38462946FFF7D9FE340238462146EC
:1010D0002A46FFF7E8FE38462946FFF74EFF0098FC
:1010E00081B23846FFF74CFF384621463246FFF7BB
:1010F000DAFE38463146FFF7C1FE01B0F0BDC0460A
:1011000028200B4000400340B0B5D14800690028BA
:101110001FD000F0BBFC022827D001283DD00028BA
:101120003AD12A48426802210A43426082680A434F
:1011300082600722120703463C3B1C6894431C60F4
:10114000032212071C6814431C6002680A430260F1
:10115000B0BD1F4C042520462946FFF785FE01221D
:1011600020462946FFF79FFEB0BD18484268082177
:101170000A43426082680A438260072212070346DC
:10118000343B1C6894431C60032212071C68144300
:101190001C6002680A430260B0BD0C48426820210E
:1011A0000A43426082680A438260072212070346AC
:1011B0002C3B1C6894431C60032212071C681443D8
:1011C0001C6002680A430260B0BDC0464040024055
:1011D00000C00240F0B581B01D4E1E4D304629467C
:1011E00000F0B2F91C49304600F08AF9002430467C
:1011F000214600F073F901273902304600F092F9D8
:101200003B35AD4E3046294600F09EF91349304635
:1012100000F076F92A21304600F060F939033046B3
:1012200000F080F90E4D0421284600F08DF90921C7
:10123000284600F065F92846214600F04FF9C02104
:10124000284600F06FF900F0F5FC01B0F0BDC04693
:1012500000000B400908000040800000016400000D
:1012600000400B4010B50446FFF7DEFDA04201DA56
:10127000002010BD012010BD10B50446FFF7D4FDBD
:10128000001910BD10B5724C606B616B4000401AC4
:10129000216B401840106063E06AE16A4000401A28
:1012A000A16A40184010E062606A616A4000401A1A
:1012B000216A401840106062606B616B8910401AAF
:1012C000616B0911401AE064606BFEF7DDFF104AA4
:1012D000104BFEF771FFFEF7EBFFA063606B216A16
:1012E0004010401AE063E06BE16A0818A16B401AF5
:1012F000E063206AE16B08182064606B4010206294
:10130000206A8000216A49000818E06110BDC046CB
:101310001F85EB51B81ED53F011180104018704752
:10132000F0B581B04A4FB869002826D000F0C0FB64
:10133000002824D000F002FA464C00252046294619
:10134000FFF70DF920462946FFF715F920462946F3
:10135000FFF727F9386A4001396AC90009182046A1
:10136000FFF71DF9012520462946FFF704F920461D
:101370002946FFF7F4F80220786101B0F0BD7869E2
:10138000032838D100F0DAF9324D002428462146EE
:10139000FFF7E5F828462146FFF7EDF828462146F5
:1013A000FFF7FFF8386C4001396CC90040182C4930
:1013B00041182846FFF7F3F8012628463146FFF783
:1013C000DAF828463146FFF7CAF8386C0A30FFF7DA
:1013D00057FE7C612048018809B20129CDDB214AF2
:1013E00013885B1C13801BB2062BC6DB1480491EBE
:1013F000018001B0F0BD18480188491C018009B284
:10140000072913DB04217961002101800124204692
:10141000214600F0CFF9786A8001FFF731FEE00243
:101420000E4908600520786001B0F0BD04207861A5
:1014300001242046214600F0BDF9786A4010FFF7EC
:101440001FFEE002054908600520786001B0F0BD8C
:10145000E800002000700740B600002028000B4084
:1014600070FEFFFFB400002080B500F0BBF880BD27
:101470007047000010B500F009FB002805D00228D5
:1014800005D0012808D1202102E0022100E0082136
:101490000948FFF71DFB044600F00AFB002804D0B2
:1014A000002C07D101F0B6F804E0012C02D101F0C4
:1014B000B1F810BD10BDC04600200B4080B501F052
:1014C000A9F880BD80B501F0A5F880BD80B501F018
:1014D000A1F880BD80B5FFF7D7FB80BDB0B5002374
:1014E000064A224C2568854205D0241D121D5B1C2E
:1014F000032BF7D3B0BD1160B0BDC046B8000020CB
:10150000B0B50023064A194C2568854205D0241D34
:10151000121D5B1C032BF7D3B0BD1160B0BDC046DC
:10152000C4000020B0B50023064A104C256885424F
:1015300005D0241D121D5B1C032BF7D3B0BD116019
:10154000B0BDC046D0000020B0B50023064A074C0D
:101550002568854205D0241D121D5B1C032BF7D383
:10156000B0BD1160B0BDC046DC000020A82900005D
:10157000024600200F2903D88900024B5A507047B9
:10158000C04370475800002002460020032904D8B9
:10159000890003A359580A607047C0437047C0468A
:1015A000080000200C000020980000209C00002073
:1015B000014908607047C04650000020014908609A
:1015C0007047C0465400002054480068401C7047D3
:1015D00010B55248046858480021FFF759FC611CB7
:1015E000081A10BD0848026807210A40062A04D1DB
:1015F000826C036D521CD21A026402680A40072AE8
:1016000001D1816C0164704740C0024010B50024D4
:10161000401E0649884205D881B24748FFF7B0FC12
:10162000204610BDE443204610BDC046FE7C0000AD
:101630003949086000207047F0B581B0064687B28E
:101640003D4D0024284621463A46FFF791FC0121F2
:1016500028463A46FFF78CFC032128463A46FFF716
:1016600087FC2D480068301A82B202212846FFF715
:101670007FFC204601B0F0BDF0B581B00646264D96
:1016800028688119254F3A68521C2B4C914224D26C
:101690003868801B401C82B2002520462946FFF78F
:1016A00067FC3868801B401C82B201212046FFF78E
:1016B0005FFC3868801B401C82B203212046FFF784
:1016C00057FC3868801B14490968401A401C82B2D4
:1016D00002212046FFF74CFC1AE0401C82B2002198
:1016E0002046FFF745FC2888401C82B22E46012583
:1016F00020462946FFF73CFC3088401C82B203217B
:101700002046FFF735FC022120462A46FFF730FC31
:10171000284601B0F0BDC046A400002088C00240A9
:1017200010B5D94C00212046FFF7B2FB81B220460C
:10173000FFF723FC10BDC04600C0024010B50024D6
:10174000E4490868821E3E2A07D8E14A1268002A46
:1017500006D0022808D0400809E0E443204610BD26
:10176000402803D0400002E0402000E00220086052
:10177000214600F01FF8204610BDC0460020D54984
:101780000A68931E3E2B08D8EC4B1B68002B06D032
:10179000022A09D052080A607047C0437047402AA5
:1017A00005D052000A60704740220A60704702224A
:1017B0000A607047F0B583B00F460146AF4E304621
:1017C000083803680822534003600024E043C14BFB
:1017D0001B6802934B1E3F2B00D94EE05B00C046B6
:1017E0007B449B885B009F443F006E002301880080
:1017F0002301230123019F0023012301230123014E
:10180000230123012301C00023012301230123011C
:1018100023012301230123012301230123012301A8
:10182000230123012301D5002301230123012301E7
:101830002301230123012301230123012301230188
:101840002301230123012301230123012301230178
:101850002301230123012301230123012301230168
:10186000230123012301F90001219A48016031601D
:101870008348042202608348E8E0802900D1D9E04F
:1018800001252A02914200D0D2E0924802603560E0
:101890007B48042101607B48402101600197B44FDF
:1018A0000026384629462A463346FFF7CFFA032159
:1018B00038462A463346FFF7C9FA3846019F314673
:1018C0002A463346D5E00220824908600197A84F96
:1018D0000025384629462A462B46FFF7B7FA6948BD
:1018E000402101600121316038460A462B46FFF74E
:1018F000ADFA03213846019F8AE001970427754815
:1019000007609B48032100252A462B46FFF79EFAD5
:101910005B480760019F0121316095480A462B46CC
:10192000FFF794FA924817E06A48026090480197DE
:101930000127002539462A462B46FFF787FA3760EC
:101940004F48042101600321894E30463A46019FE9
:101950002B46FFF77BFA304629462A462B46FFF7EF
:1019600075FA4848001F402159E010205949086085
:101970007F48002529462A462B46FFF767FA41484B
:10198000402101603E4804210160032101970127A5
:10199000774813E020204F4908607548032100254F
:1019A0002A462B46FFF752FA354804210160354894
:1019B00040210160019701276D4829463A462B4690
:1019C000FFF744FA6A4839462A462B46FFF73EFAA3
:1019D000301F0760019F012F24D026E04021009195
:1019E0003C480160624801970127002539462A4694
:1019F0002B46FFF72BFA37602248009901605C48BC
:101A000029463A46019F2B46FFF720FA0321584802
:101A10002A462B46FFF71AFA1948001F04210160D5
:101A2000012F02D12B4802990160FFF779FE204671
:101A300003B0F0BD802027490860301F01210160FC
:101A40000F48001F042202600E48001F402202605F
:101A5000474E002530462A462B46FFF7F7F903216B
:101A600030462A462B46FFF7F1F9304629462A46EA
:101A70002B46FFF7EBF9012FD7D1D3E728000B4016
:101A800028400B4028200B4000C00240114801684C
:101A90001220014201D0022070472420014201D0CF
:101AA0000120704700204822114200D1C0437047F6
:101AB00022480068074909785422114203D00028BF
:101AC00000D0012070474142414108467047C0465E
:101AD0005C010020A0000020F0B581B00125EE02DD
:101AE000234F0024384631462246FFF7DCF93846BA
:101AF0003146FFF7B9F90B48FFF75AFD3846314632
:101B0000FFF7B2F9384631462A46FFF7CCF90A20EA
:101B1000FFF78EFD28462146FFF74CFE204601B018
:101B2000F0BDC0466914000001460020012902D81A
:101B3000024A11607047C0437047C0465C010020F4
:101B4000014908607047C046B0000020FFF742FB23
:101B500000F05CFB00F0DCFB0122D1020448FFF73F
:101B6000A2F904A000F010FF00F0D8FCFCE7C0468A
:101B700000C00240486F6C612C20736F792049636C
:101B8000752C207475206173697374656E7465209B
:101B90007669727475616C00F0B581B00620FEF74D
:101BA00095FD01248021022520462A46FEF78AFC65
:101BB000210220462A46FEF785FC002738462946A2
:101BC0002A46FEF77FFC04263846314600962A4610
:101BD000FEF778FC1648294632462346FEF736FCC7
:101BE0000A21134E3046FEF748FC304639463A4645
:101BF000FEF71EFC304621462246FEF719FC03275D
:101C0000304639462A46FEF713FC304600993A46DC
:101C1000FEF70EFC10213046FEF72AFC3046214626
:101C2000FEF7FCFB30462146FEF729FC01B0F0BD73
:101C30000000014080B5FEF7D1FFFEF7B5FCFEF7CE
:101C4000E8FFFFF739F800F045F900F00BF900F074
:101C5000D5F800F007F800F079F900F013FAFFF773
:101C60009BFF80BDF0B58BB000240A9409940894C2
:101C70000123D903204622460193FEF713FD234694
:101C8000594AA0001158002939D011180491AE49C1
:101C9000081802900025019F0394049800683842B8
:101CA00029D001220592204639460793FEF70AFC07
:101CB00002980668BCB20022069230462146FEF722
:101CC000C3FE022230462146FEF7E9FE3046214699
:101CD000039C059AFEF7D9FEE8B2E1B2FEF7DAFB03
:101CE00008A8032101720699C18001710895FEF7C9
:101CF0009DFE079B3B436D1C7F00102DCDD1641CC6
:101D0000032C394ABDD101203B4C384D384F1E467B
:101D1000184200D15DE07F2800DD33E0411E3F29FD
:101D200000D956E07944097949008F441F1F522594
:101D300052525225525252525252525852525252AA
:101D4000525252525252525252525258525252526D
:101D50005252525252525252525252525252525263
:101D60005252525252525252525252580420FEF77C
:101D70003BFF334602202CE00520FEF735FF3346BB
:101D8000082026E0A8420CDD0121B84213DD4A03F9
:101D9000904224D08A03904221D0C903884218D1AE
:101DA0001DE0144988420DDC802818D00121090269
:101DB00088420ED113E0CA02904210D00903884233
:101DC00007D10CE001214A02904208D089028842E2
:101DD00005D04000A04200D29AE70BB0F0BD06202B
:101DE000FEF702FF0BB0F0BDB8000020FF070000B7
:101DF000FF1F0000FF01000001800000F0B583B06C
:101E00000024A20016498958002924D014498918B1
:101E100002914D49891801910125029909682942C9
:101E200016D0012220462946FEF74CFB0198066891
:101E3000AFB2002230463946FEF706FE0222304697
:101E40003946FEF72CFE032230463946FEF706FEE1
:101E50006D00290CE1D0641C032CD2D103B0F0BD7D
:101E6000C4000020F0B585B00020820018498958D0
:101E7000002927D0164989180391334989180191FF
:101E80000125029003990968294218D00122049281
:101E90002946FEF717FB01980768ACB200263846C2
:101EA00021463246FEF7D0FD384621463246FEF73F
:101EB000F6FD38462146049AFEF7E7FD02986D00CC
:101EC000290CDFD0401C0328CFD105B0F0BDC0469F
:101ED000D0000020F0B583B000242046FFF7B4F80E
:101EE000A00018490958002927D01649091802915D
:101EF00015490818009001250194029800682842AD
:101F000018D00126204629463246FEF7DBFA009813
:101F10000768ACB2022238462146FEF7C0FD032214
:101F200038462146FEF79AFD38462146019C324646
:101F3000FEF78AFD6D00280CDFD0641C032CCCD189
:101F400003B0F0BDDC000020A8290000F0B595B07A
:101F50000125A903002420462A462B46FEF7A2FBB2
:101F600010210426059628463246FEF7ABFAE9030F
:101F700028463246FEF7A6FAA90220463246FEF768
:101F8000A1FA690228463246FEF79CFA280204901C
:101F900011A988810C711394039437481190C14F93
:101FA0003846FEF7F1FF0DAE0720708034703348DD
:101FB0000E9033480F9038463146FEF77FFF50248D
:101FC0007481357038463146FEF778FF74810320FE
:101FD0000290307038463146FEF770FF3220708133
:101FE00002200190307038463146FEF767FF3846D0
:101FF0000599FEF739FF0A20FEF7F6FD3846294617
:10200000FEF73CFF38462946FEF7DDFD3846039CC7
:1020100021462A46FEF70EFF384629462A46FEF795
:1020200009FF3846019E31462A46FEF703FF38462F
:1020300002992A46FEF7FEFE06A90C830A96099528
:1020400020200B90089428050790680506903846D4
:10205000FEF7A4FDE90238462A46FEF724FF38467B
:1020600005992246FEF71FFF384604992246FEF7DF
:102070001AFF15B0F0BDC046640028000100000141
:1020800000015000F0B585B05F4E3046FEF760FAB3
:102090005C4F3846FEF75CFA1120FEF7A5FD1220D2
:1020A000FEF7A2FD002530462946FEF77AFA3846AB
:1020B0002946FEF776FA012430462146FEF75BFA00
:1020C00038462146FEF757FA30462146FEF75DFABC
:1020D00038462146FEF759FA260201AFBE813D710E
:1020E0001B48019003951B483946FEF74DFF1A48DF
:1020F0003946FEF749FF174F38462146FEF7B9FE2D
:1021000015482146FEF7B5FE38463146FEF7ACFECF
:10211000114807463146FEF7A7FE0D20FEF764FD85
:102120000E20FEF761FD0B482946FEF726FF3846D4
:102130002946FEF722FF074831462246FEF7B3FE46
:10214000384631462246FEF7AEFE05B0F0BDC04629
:10215000FFFF27000040034000400740F0B581B07A
:102160000D460090274F002438462146FEF7F7F928
:1021700038462146FEF7FFF938462146FEF711FAA8
:10218000494801680222914301600168202291437D
:10219000016001680822914301600120C0024349A7
:1021A0000860404F042638463146FEF75DFE38464B
:1021B00031462246FEF777FED54E30462146FEF7E1
:1021C000CEF930462146FEF7D6F930462146FEF7D5
:1021D000E8F9E74EB4610098012801D1012000E040
:1021E00080200021FFF7E6FA002D07D003203060A1
:1021F000032D00D0E443204601B0F0BD0020306044
:1022000001B0F0BD0070074000600740F0B581B03C
:10221000FFF762FC0024204600F058F82048022511
:102220002946FFF7B1F91F4E042730463946FEF71D
:102230001BFE304639462246FEF735FE1A48016835
:10224000A9430160016820229143016001680822CE
:10225000914301600125E802144908601448FFF722
:10226000ADF914482946FFF783F913480521FFF714
:102270007FF912480321FFF77BF911482146FFF748
:1022800083F910482946FFF77FF9EF4804600E48AC
:10229000FFF756FC502000F029F8204601B0F0BDB1
:1022A0000911000000C002404040024028200B40BD
:1022B00075140000BD140000CD140000C51400000A
:1022C00039250000211300001913000080B5DE49F4
:1022D0000A68002A02D00968032903D1FFF724FC09
:1022E000002080BD0020C04380BDC0465A2801DCCC
:1022F000142100E05A210246143A472A00D3084626
:10230000F54948650020462A00D9C0437047C046B9
:102310000021C843F04A1368012B07D01368022B31
:1023200004D0012010605160906108467047C0469B
:10233000F0B581B0E84E7068062812D8784400796C
:1023400040008744030F1B5A96966300012070607B
:102350006948002101607048016031667166B166AC
:1023600087E0FEE76C4C2068002867D0FEF77AFF14
:1023700000287ED00220706001B0F0BD5E4D28685C
:10238000002821D15D480168102291430160016855
:102390002022914301605A480168802291430160E4
:1023A0000121C90241625748FFF730F96420FFF765
:1023B00043F93220FEF760FF286008200024214600
:1023C000FFF7F8F9504804602868FEF74BFF002833
:1023D0004FD04D4F386802284DD001287DD00028BD
:1023E00047D11920FEF748FF28600124002120462C
:1023F000FFF7E0F93C6001B0F0BD0320B060C820F9
:10240000FEF73AFF3B49086001B0F0BDB068411EDD
:1024100002291FD300281BD003280ED1B06C00283E
:1024200005D1FEF72FFF00F0A7F80120B064C82007
:10243000FEF722FF2F4908600CE0FEE7C820FEF7F8
:102440001BFF206080200021FFF7B4F901B0F0BD30
:102450000320B060306802280BD026480068FEF7E1
:1024600001FF002805D000200321FFF777FE01B00F
:10247000F0BD01B0F0BD03207060FFF75FF91E24CE
:10248000F4606420FFF7C2F82046FFF7F5F8002556
:102490002846FEF7F1FD1D487062CB4C20462946C8
:1024A000FEF75DF820462946FEF765F820462946E6
:1024B000FEF777F817492046FEF771F80125204608
:1024C0002946FEF758F820462946FEF748F8FF202F
:1024D000B630FEF7D5FD01B0F0BD3220FEF7CCFEE0
:1024E000286008200021FFF765F90220386001B05C
:1024F000F0BDC0466C0100206401002000400B408C
:1025000000000B407017000060010020581B000005
:1025100000600740001711006801002080B5A9483D
:102520000068811E022905D3002803D0012802D1AA
:10253000FFF7FEFE80BDFEE780B5F848416806293A
:1025400004D101200321FFF709FE80BD09490A7863
:10255000521C0A7051B2022905DC41680329F4D1EA
:102560000021416080BD01200321FFF7F7FD80BD00
:10257000E80000207001002070B5E84D2C6AA86DBD
:10258000696D88422CD0204E3068FEF76BFE002823
:102590000BD00120FEF770FE3060A86D4F2811DCD3
:1025A000A86D3C2809DB032108E03068002817D11A
:1025B0000120FEF761FE306012E005212046FDF7A4
:1025C000E7FD0446A96D6A6DA86D914202DA401CD0
:1025D000A86505E0696D884202DDA86D401EA8650A
:1025E0002046FDF751FE094A094BFDF7E5FDFDF7D1
:1025F0005FFEFFF70BF8A86D60436421FDF7C8FD8F
:10260000FFF73AF870BDC046740100209A99999975
:102610009999F13F80B5C1488169002913D041687B
:10262000062902D100F012F880BD4168042902D0C9
:102630004168052902D100F0CDF880BD406803282B
:1026400001D100F04BF880BDE8000020F0B581B06A
:10265000B34C2046FDF78DFF28252946FDF782FD66
:10266000AE4F3863B048FDF784FF2946FDF77AFD89
:10267000B862002520462946FDF771FF204629460D
:10268000FDF779FF20462946FDF78BFF386B0002E6
:10269000396B890109182046FDF781FF0126204684
:1026A0003146FDF768FF20463146FDF758FFA04848
:1026B0000168022291430160016820229143016078
:1026C0000168082291430160F0029A4908600320E2
:1026D0007861BD6401B0F0BDE800002070B58F4E98
:1026E00003207061FFF7E4F900282BD1706A716A4A
:1026F0004000451A8A4C2046FDF73BFF2821FDF794
:1027000031FD281840087062002520462946FDF753
:1027100026FF20462946FDF72EFF20462946FDF7D5
:1027200040FF706AC001716A490109182046FDF72F
:1027300036FF012520462946FDF71DFF2046294684
:10274000FDF70DFFF068022808DBFFF7B1F901285B
:1027500002D1F068401EF060FEF7F0FFF06801283B
:102760002ED1052070600124E102184881621849C9
:102770000A68102313430B600A68202313430B607D
:10278000016880220A4302602046FEF775FC20465D
:102790002146FFF70FF8C820FEF772FC642420469C
:1027A000FEF734FF1E20FEF767FFFEF711FF054618
:1027B0006543FEF709FF01462846FDF7E9FCB065D1
:1027C00070BDC046E80000200060074000000B40DC
:1027D00000400B40F0B581B0504F0320786178681D
:1027E00005282AD14E4C002520462946FDF7B7FE84
:1027F00020462946FDF7BFFE20462946FDF7D1FEBB
:102800004D492046FDF7CBFE012520462946FDF720
:10281000B2FE20462946FDF7A2FEFEF7AFFFFEF707
:10282000ADFF786AC010FEF72BFC28462946FEF75C
:10283000C1FF0420786001B0F0BD786804286AD137
:102840003748FDF796FE2821FDF78CFC3863386B7E
:102850007863386B40103862386A7862386B801061
:10286000B862B86AF862386B396B8910401A396BF4
:102870000911401AF8640125E90200912948016014
:10288000294C002620463146FDF769FE2046314698
:10289000FDF771FE20463146FDF783FEB86A400120
:1028A000B96AC9004018214941182046FDF777FE52
:1028B00020462946FDF75FFE20462946FDF74FFEDC
:1028C0001B48016802229143016001682022914364
:1028D0000160016808229143016016480099016077
:1028E000062078600E4C20463146FDF738FE204623
:1028F0003146FDF740FE20463146FDF752FE0E49B7
:102900002046FDF74CFE20462946FDF734FE2046C2
:102910002946FDF724FE01B0F0BDC046E8000020C6
:102920000060074024000B400070074048FEFFFF96
:102930004040024028200B40804F12002021020C12
:1029400001D010211046020A01D0104608390209B0
:1029500001D01046091F820801D01046891E420886
:1029600001D0881E7047081A704702E008C8121F7D
:1029700008C1002AFAD170477047002001E001C168
:10298000121F002AFBD1704710B5044601E0FEF784
:10299000A1FD2078641C03490028F8D10A20FEF725
:1029A00099FD10BD0000002000000B4000200B40EE
:1029B00000400B40D429000000000020A8000000C7
:1029C0006A2900007C2A0000A8000020D002000034
:1029D0007A29000000000000005A62027114000011
:1029E00071140000711400007114000071140000D3
:1029F00071140000711400007114000071140000C3
:102A000071140000711400007114000071140000B2
:102A100071140000711400007114000071140000A2
:102A20007114000071140000711400007114000092
:102A30007114000071140000711400007114000082
:102A40007114000071140000711400007114000072
:102A50007114000071140000711400007114000062
:102A60007114000071140000711400007114000052
:0C2A700071140000010000000A000000CA
:04000005000000AD4A
:00000001FF
