:020000040000FA
:10000000B8020020AD0000002F080000C507000066
:10001000FFFFFFFFFFFFFFFFFFFFFFFFFFFFFFFFF0
:10002000FFFFFFFFFFFFFFFFFFFFFFFFB90800001B
:10003000FFFFFFFFFFFFFFFF6108000071090000E5
:100040002101000021010000210100002101000028
:10005000A5030000090400006D040000FFFFFFFF7E
:1000600021010000FFFFFFFFD5070000FFFFFFFF9A
:1000700021010000810800009D080000210100000E
:1000800021010000310200004902000021010000AE
:1000900021010000210100002101000021010000D8
:1000A000FFFFFFFF21010000210100001D488047E4
:1000B0001D4880471D4800471D480169002908D197
:1000C0004169002905D18169002902D1C16900294E
:1000D00009D01848C1680901090D00290ED0052969
:1000E0000CD006290AD0BFF34F8F13481349016083
:1000F00013491248C860BFF34F8FFEE70E480168EE
:100100000E48884200D070470E480F4901600A48E7
:100110000E4901607047FEE7FEE7FEE7FEE7FEE7F7
:10012000FEE70000B90000007D0900005101000059
:100130000003084080010840000000200400FA0588
:1001400000ED00E000810840010000000000000018
:100150000348854600F026F8004800479D0F000040
:10016000B802002070B50446002903D000202022E8
:10017000012310E0002801D00020C043C046C04643
:100180000DE02546D5408D4205D30D469540641BB4
:100190001D46954040191546521E002DF1DC2146A2
:1001A00070BD0000064C0125064E05E0E36807CC53
:1001B0002B430C3C98471034B442F7D3FFF7CCFFE5
:1001C000B0110000D0110000F0B582B001920A46D3
:1001D000C000164BC01800240AE00168B143214357
:1001E0000160009C21460831001D002C0C461AD1EC
:1001F0001346E3401B06F5D001250094A5400027D7
:100200003C463E463B4603E03F1D5B1C202FE4D0AE
:100210001146D9402942F7D00199B9400C430F212A
:10022000B9400E43F0E702B0F0BDC04620200240C6
:1002300080B5034800F014F802480068804780BD8C
:10024000006007400400002080B5034800F008F873
:1002500002480068804780BD007007400800002009
:100260004168012291434160BFF34F8F7047000006
:1002700080B54F2001020020024A012300F076F8E9
:1002800080BDC04601000331F0B581B00446184E70
:10029000776900F02FF80546206007203840401E9F
:1002A000062809D878440079400087440C030305E8
:1002B00005070A001E4D06E0002504E00120C503E5
:1002C00001E07D20050265603068052800D3052027
:1002D000C540A56003212846FFF744FFB1684903E4
:1002E000490F072901D0CD402846E06001B0F0BD9C
:1002F000208008400D490846183800684A680846BA
:1003000014380068800501D4002070470848002A8E
:100310000AD40A685201120F01D0504300E0054888
:1003200009684902890FC8407047C04618800840D4
:1003300000127A000020A107B0B584B0044640093D
:100340008000094945586846FFF79EFF1F2020405E
:10035000032181402940C1402E2C00D1891C0298E4
:10036000C84004B0B0BDC0463880084070B50C4CE1
:100370002568002B01D0054300E08543A668E068AE
:100380002560002B01D00E4300E08E43A660002BB9
:1003900002D01043E06070BD9043E06070BDC04685
:1003A0002480084080B50020014600F08BF9002829
:1003B00005D0BF4800688047002000F07DF900208C
:1003C000012100F07FF9002805D0BA480068804775
:1003D000002000F071F90120002100F073F90028DD
:1003E00005D0B34840688047012000F065F901203E
:1003F000014600F067F9002805D0AE484068804704
:10040000012000F059F980BD80B50220002100F0E4
:1004100059F9002805D0A64880688047022000F0DE
:100420004BF90220012100F04DF9002805D0A14828
:1004300080688047022000F03FF90320002100F08F
:1004400041F9002805D09A48C0688047032000F091
:1004500033F90320012100F035F9002805D0954833
:10046000C0688047032000F027F980BD80B50420D4
:10047000002100F027F9002805D08D480069804749
:10048000042000F019F90420012100F01BF90028D4
:1004900005D0884800698047042000F00DF9052048
:1004A000002100F00FF9002805D0814840698047FD
:1004B000052000F001F90520012100F003F90028D2
:1004C00005D07C4840698047052000F0F5F80620FB
:1004D000002100F0F7F8002805D0754880698047B2
:1004E000062000F0E9F80620012100F0EBF80028D2
:1004F00005D0704880698047062000F0DDF80720AD
:10050000002100F0DFF8002805D06948C069804765
:10051000072000F0D1F80720012100F0D3F80028CF
:1005200005D06448C0698047072000F0C5F808205E
:10053000002100F0C7F8002805D05D48006A804718
:10054000082000F0B9F80820012100F0BBF80028CD
:1005500005D05848006A8047082000F0ADF809200F
:10056000002100F0AFF8002805D05148406A8047CC
:10057000092000F0A1F80920012100F0A3F80028CB
:1005800005D04C48406A8047092000F095F80A20C1
:10059000002100F097F8002805D04548806A804780
:1005A0000A2000F089F80A20012100F08BF80028C9
:1005B00005D04048806A80470A2000F07DF80B2073
:1005C000002100F07FF8002805D03948C06A804734
:1005D0000B2000F071F80B20012100F073F80028C7
:1005E00005D03448C06A80470B2000F065F80C2025
:1005F000002100F067F8002805D02D48006B8047E7
:100600000C2000F059F80C20012100F05BF80028C4
:1006100005D02848006B80470C2000F04DF80D20D5
:10062000002100F04FF8002805D02148406B80479A
:100630000D2000F041F80D20012100F043F80028C2
:1006400005D01C48406B80470D2000F035F80E2087
:10065000002100F037F8002805D01548806B80474E
:100660000E2000F029F80E20012100F02BF80028C0
:1006700005D01048806B80470E2000F01DF80F2039
:10068000002100F01FF8002805D00948C06B804702
:100690000F2000F011F80F20012100F013F80028BE
:1006A00005D00448C06B80470F2000F005F880BDDE
:1006B000540000200C000020012181400948016005
:1006C00041607047074A1368C340DB0707D0526890
:1006D000C24001201040401A411E8841704700204E
:1006E0007047C0464440024080B50248082100F0EF
:1006F000DBFA80BD00400B40002A03D002680A43A9
:100700000260704702688A430260704770B5002536
:100710002C462B4603E0AD1C4908202D08D0CE07FF
:10072000F9D00326AE4034431646AE403343F2E7D9
:100730004169A143416141691943416170BD012A89
:1007400007D0002A0BD182680A4382600C30C9436B
:100750000AE0C2680A43C2600830C94304E0826804
:100760008A4382600C30C94302680A4002607047C5
:10077000F0B581B00E460920C102002501242846AB
:100780002A462346FFF7F2FD1021062728463A465F
:10079000FFF71AFD202128463A46FFF715FD084FBE
:1007A0003846314600F012FA38462946224600F013
:1007B00041FA38462146224600F03CFA01B0F0BD2D
:1007C00000100440024801680029FCD07047C04670
:1007D000A0000020B0B5FB4C0421204600F072F9C7
:1007E000002806D00B48006880470421204600F00E
:1007F00057F90120C5022046294600F063F9002878
:1008000006D00548006880472046294600F048F990
:10081000B0BDC046500000204C0000204A1E91414F
:100820000901026F10239A435118016770477047FE
:1008300080B50020014600F009F880BD012080024B
:10084000014908607047C04600E100E0024A0A40E2
:10085000024302480260704780FFFF1F08ED00E07E
:10086000704780B584B000200390012109020291F5
:10087000E1214902019101A9FFF77AFF04B080BD8F
:1008800080B501200102034800F00AF9024800681F
:10089000804780BD004003409400002080B50120C7
:1008A0000102034800F0FCF802480068804780BD60
:1008B000004007409800002070470000001F4142A0
:1008C000414188001F490A6804239A4310180860B0
:1008D0007047C04610B50420C043FFF7EFFF7D20EE
:1008E000810108480068FFF73DFC00F02DF8012465
:1008F000204600F01DF8002000F006F8204600F029
:1009000003F810BD00000020012805D0002809D1FF
:100910000C480021816070470A48016801220A439F
:1009200002607047074801680122914301607047E7
:10093000411E8841400003490A6802239A43101867
:100940000860704710E000E0014908607047C04649
:1009500014E000E0402801D0410000E00221801EA8
:1009600080B23F2801D30020C14388B27047000005
:100970003D480168491C01607047C046F0B584B02D
:100980003248102103910160314801220260314850
:10099000C16A402302931943C1622F490B68272B78
:1009A000FCD103218B02046A9C430462D3020468D5
:1009B0001C43046043681B07FCD503680B430421F8
:1009C0008B430360016B072319400329FAD1234CA1
:1009D0002168114306250195A9432160002100915A
:1009E000C161510205688D4305601502041F266828
:1009F0002E432660C66A029FBE43C66226682E4307
:100A000026600525EC05446104680C4304604168D8
:100A10008907FCD5114E316802240C43AC43346085
:100A20000099C16101681143019CA1430160016B00
:100A300019400129FBD13168039B194331609102B0
:100A400002688A43026004B0F0BDC0460C810840D1
:100A5000008308400480084008A1064000020840C6
:100A6000014800687047C046A400002010B5490046
:100A700001238B40046D9C4304658A40016D114342
:100A8000016510BDB0B5490001248C409C40056D46
:100A9000A54305658A409A40016D11430165B0BDCB
:100AA000C943C167BFF34F8F70474A1E9141026926
:100AB00001239A4351180161704789004018902121
:100AC00040587047C06F0840411E88417047000081
:100AD000F0B584B00746294A6C3A904201D001250E
:100AE00000E00325087843061B0E03939D403B6DF1
:100AF000AB433B657B6DAB4380003E183046A03076
:100B0000029030469030019040368C79384654300F
:100B1000974210D1ED430095CD796D002543039C9C
:100B2000A5401D430560087A4B7A5C0004431348D6
:100B30000368009D2B40039DAC401C430460FF20D4
:100B40000830336883433360488833680343336035
:100B50004889019B18608889029B18600B7997422D
:100B60002A4601D0184602E04879400018439040D8
:100B7000396D0143396504B0F0BDC0466CC0024018
:100B80008022815070470000024684320B885360F7
:100B90004A888423C25003221204036893430360EB
:100BA000012212060368934303608A6803681343B3
:100BB0000360F94A904202D10A79034B1A6089898D
:100BC0008167704700C002408CC00240B0B50C463F
:100BD0004168124A0A40E1881143A2880A432189E8
:100BE000114362890A43426001218907884208D083
:100BF0000C49884208D00C4988420DD10C4D1C206C
:100C000004E0074D182001E0084D1E20FFF794FB7B
:100C10002168FFF7A7FA2860B0BDC046FCE0FFFFDF
:100C20002400004000100440001000402410044044
:100C30002410004010238B40002A03D04168194340
:100C400041607047416899434160704710B582B078
:100C5000694600228A80009201230B5408781840CC
:100C60004C78E407A40F20188978C907490F401869
:100C700000049903FFF77AFB02B010BD80B500F0C5
:100C8000BFF980BD10B50446FFF7EAFEA04201DAC5
:100C9000002010BD012010BD10B50446FFF7E0FE96
:100CA000001910BD7047000070B50024FA4AF94BD6
:100CB00002E0641C032C06D2A50056598642F8D1E6
:100CC00059510324F5E770BD10B5B34C00212046FF
:100CD000FFF7F3FE81B22046FFF752FF10BDC0467A
:100CE000F0B583B00F4601460024E043A64B1A68D6
:100CF00002924A1E3F2A00D94DE052007A4492885F
:100D0000520097443F006E001A0186001A011A0132
:100D10001A0199001A011A011A011A011A011A017D
:100D20001A01BA001A011A011A011A011A011A014C
:100D30001A011A011A011A011A011A011A011A01DB
:100D40001A01CE001A011A011A011A011A011A0118
:100D50001A011A011A011A011A011A011A011A01BB
:100D60001A011A011A011A011A011A011A011A01AB
:100D70001A011A011A011A011A011A011A011A019B
:100D80001A01F200012119608048016080480422A4
:100D900002608048DFE0802900D1D0E001252A02EE
:100DA000914200D0C9E01A60784805607848042173
:100DB00001607848402101600197EF4F00263846D6
:100DC00029462A463346FFF75DFE032138462A4668
:100DD0003346FFF757FE3846019F31462A463346D1
:100DE000CCE002201860E44E0025304629462A4611
:100DF0002B46FFF747FE6748402101606348012109
:100E0000016030460A462B46FFF73CFE0321304680
:100E100083E03E4604271F60D748032100252A4669
:100E20002B46FFF72FFE5A480760374657480121E7
:100E30000160D1480A4613E008201860CE483E46BB
:100E40000127002539462A462B46FFF71BFE4F484F
:100E500007604F48042101600321C7483A463746DE
:100E60002B46FFF70FFEC44829462A462B46FFF7BC
:100E700009FE4848001F402156E010201860BE4877
:100E8000002529462A462B46FFF7FCFD4148402114
:100E900001603F480421016003213E460127B64816
:100EA00012E020201860B448032100252A462B4672
:100EB000FFF7E8FD36480421016036484021016013
:100EC0003E460127AC4829463A462B46FFF7DAFD55
:100ED000A94839462A462B46FFF7D4FD2B48001F68
:100EE00007603746012F22D024E040261E60A2482A
:100EF00001970127002539462A462B46FFF7C2FDF8
:100F000022480760234806609B4829463A46019FCD
:100F10002B46FFF7B7FD032197482A462B46FFF7DC
:100F2000B1FD1B48001F04210160012F02D11648AA
:100F300002990160FFF7C8FE204603B0F0BD802093
:100F400018601248001F012101601148001F04228F
:100F500002601048001F40220260874E0025304684
:100F60002A462B46FFF78EFD032130462A462B46A4
:100F7000FFF788FD304629462A462B46FFF782FDBB
:100F8000012FD7D1D3E7C0469C00002028000B409A
:100F900028400B4028200B4000C00240FFF7A4FB74
:100FA000FFF76CFEFA20FFF777FE04466420FFF798
:100FB00073FE05460226114F04E02846FFF762FE45
:100FC00000280DD12046FFF75DFE0028F5D0FA205D
:100FD000FFF762FE04463868082141403960ECE7BB
:100FE0006420FFF759FE0546B6B200213046FFF7F0
:100FF00077FE3046FFF7AEFC0646E3E720400B40A5
:1010000080B5FFF715FCFFF733F9FFF72AFCFFF770
:1010100061FC00F003F800F041F880BDF0B583B04A
:10102000002402E0641C032C31D02046FFF70EFEA2
:10103000A000184909580029F4D01649091802914E
:101040001549081800900125019402E06D00280C54
:10105000E8D1029800682842F8D0012620462946A7
:101060003246FFF7B1F800980768ACB20222384662
:101070002146FFF764FB032238462146FFF746FB73
:1010800038462146019C3246FFF736FBDEE703B0C7
:10109000F0BDC046A8000020A4110000F0B589B042
:1010A0000124A1030025284622462346FFF75EF9C6
:1010B00010210426009620463246FFF785F8E1030A
:1010C00020463246FFF780F8A10228463246FFF755
:1010D0007BF8610220463246FFF776F8200205A928
:1010E00088810D71079523480590234F3846FFF7F7
:1010F0004BFD01AE072070803570204802902048DB
:10110000039038463146FFF7E3FC1E2777813470A1
:10111000F57119483146FFF7DBFC778103273770FB
:10112000F47115483146FFF7D3FC134E3046009951
:10113000FFF7B6FCFFF782FB30462146FFF7B5FC10
:1011400030462146FFF76AFB304629462246FFF724
:101150008DFC304621462246FFF788FC02213046AE
:101160002246FFF783FC304639462246FFF77EFCD5
:1011700009B0F0BD6400280000C002400101010078
:1011800000011E0002E008C8121F08C1002AFAD19F
:1011900070477047002001E001C1121F002AFBD1F7
:1011A0007047000000000B4000200B4000400B4047
:1011B000D011000000000020A000000084110000F9
:1011C00070120000A000002018020000941100001E
:1011D000005A6202A50C0000A50C0000A50C00003E
:1011E000A50C0000A50C0000A50C0000A50C00003B
:1011F000A50C0000A50C0000A50C0000A50C00002B
:10120000A50C0000A50C0000A50C0000A50C00001A
:10121000A50C0000A50C0000A50C0000A50C00000A
:10122000A50C0000A50C0000A50C0000A50C0000FA
:10123000A50C0000A50C0000A50C0000A50C0000EA
:10124000A50C0000A50C0000A50C0000A50C0000DA
:10125000A50C0000A50C0000A50C0000A50C0000CA
:10126000A50C0000A50C0000A50C0000010000006A
:04000005000000AD4A
:00000001FF
