:020000040000FA
:1000000050030020AD00000085090000ED0800004D
:10001000FFFFFFFFFFFFFFFFFFFFFFFFFFFFFFFFF0
:10002000FFFFFFFFFFFFFFFFFFFFFFFF150A0000BD
:10003000FFFFFFFFFFFFFFFFBD090000B10A000047
:100040002101000021010000210100002101000028
:10005000A10400000505000069050000FFFFFFFF87
:1000600021010000FFFFFFFFFD080000FFFFFFFF71
:1000700021010000DD090000F90900002101000054
:1000800021010000D5020000ED0200002101000066
:1000900021010000210100002101000021010000D8
:1000A000FFFFFFFF21010000210100001D488047E4
:1000B0001D4880471D4800471D480169002908D197
:1000C0004169002905D18169002902D1C16900294E
:1000D00009D01848C1680901090D00290ED0052969
:1000E0000CD006290AD0BFF34F8F13481349016083
:1000F00013491248C860BFF34F8FFEE70E480168EE
:100100000E48884200D070470E480F4901600A48E7
:100110000E4901607047FEE7FEE7FEE7FEE7FEE7F7
:10012000FEE70000B9000000BD0A00005101000018
:100130000003084080010840000000200400FA0588
:1001400000ED00E000810840010000000000000018
:100150000348854600F026F800480047ED160000E9
:100160005003002070B50446002903D0002020224F
:10017000012310E0002801D00020C043C046C04643
:100180000DE02546D5408D4205D30D469540641BB4
:100190001D46954040191546521E002DF1DC2146A2
:1001A00070BD0000064C0125064E05E0E36807CC53
:1001B0002B430C3C98471034B442F7D3FFF7CCFFE5
:1001C000A0230000C02300004A1E9141C90102681B
:1001D00080239A43511801607047B0B59307DB0E36
:1001E0001F249C40FC25154040194268A2439940B9
:1001F00011434160B0BD000010B51B04064C1B1933
:1002000012025118FF22D243891819430268802331
:1002100013400B43036010BD0000FFFF0A06120FDE
:10022000026741677047016270474A1E9141426F01
:1002300001239A435118416770470000B0B5072861
:1002400001D8002200E001229200074BD458072871
:1002500000D90838C0B280000F258540AC438140EA
:100260002143D150B0BDC04600200240F0B582B05D
:1002700001920A46C000164BC01800240AE001682B
:10028000B14321430160009C21460831001D002C30
:100290000C461AD11346E3401B06F5D00125009405
:1002A000A54000273C463E463B4603E03F1D5B1C05
:1002B000202FE4D01146D9402942F7D00199B94006
:1002C0000C430F21B9400E43F0E702B0F0BDC04629
:1002D0002020024080B5034800F014F8024800686E
:1002E000804780BD006007400400002080B50348BF
:1002F00000F008F802480068804780BD00700740A1
:10030000080000204168012291434160BFF34F8FF4
:1003100070474A1E91418900026804239A4351188C
:1003200001607047806870474A1E9141026801234E
:100330009A435118016070474A1E91414900026872
:1003400002239A43511801607047C1607047816071
:100350007047000080B5CF2001020020024A01232F
:1003600000F076F880BDC04601000331F0B581B0E1
:100370000446184E776900F02FF8054620600720E4
:100380003840401E062809D8784400794000874448
:100390000C03030505070A001E4D06E0002504E0D6
:1003A0000120C50301E07D20050265603068052855
:1003B00000D30520C540A56003212846FFF7D2FEE3
:1003C000B1684903490F072901D0CD402846E060B4
:1003D00001B0F0BD208008400D490846183800687B
:1003E0004A68084614380068800501D40020704728
:1003F0000848002A0AD40A685201120F01D050435B
:1004000000E0054809684902890FC8407047C046A6
:100410001880084000127A000020A107B0B584B00F
:10042000044640098000094945586846FFF79EFF89
:100430001F202040032181402940C1402E2C00D1A3
:10044000891C0298C84004B0B0BDC046388008403E
:1004500070B50C4C2568002B01D0054300E08543A6
:10046000A668E0682560002B01D00E4300E08E43B3
:10047000A660002B02D01043E06070BD9043E060A6
:1004800070BDC0462480084007210904034A136850
:100490008B430004184310607047C0462880084012
:1004A00080B50020014600F08BF9002805D0BF4838
:1004B00000688047002000F07DF90020012100F055
:1004C0007FF9002805D0BA4800688047002000F076
:1004D00071F90120002100F073F9002805D0B3481C
:1004E00040688047012000F065F90120014600F0D6
:1004F00067F9002805D0AE4840688047012000F029
:1005000059F980BD80B50220002100F059F900287A
:1005100005D0A64880688047022000F04BF90220F1
:10052000012100F04DF9002805D0A14880688047DE
:10053000022000F03FF90320002100F041F90028DB
:1005400005D09A48C0688047032000F033F90320A3
:10055000012100F035F9002805D09548C068804792
:10056000032000F027F980BD80B50420002100F0B1
:1005700027F9002805D08D4800698047042000F045
:1005800019F90420012100F01BF9002805D0884842
:1005900000698047042000F00DF90520002100F0DB
:1005A0000FF9002805D0814840698047052000F0F8
:1005B00001F90520012100F003F9002805D07C484D
:1005C00040698047052000F0F5F80620002100F082
:1005D000F7F8002805D0754880698047062000F0AC
:1005E000E9F80620012100F0EBF8002805D070485A
:1005F00080698047062000F0DDF80720002100F028
:10060000DFF8002805D06948C0698047072000F05E
:10061000D1F80720012100F0D3F8002805D0644864
:10062000C0698047072000F0C5F80820002100F0CD
:10063000C7F8002805D05D48006A8047082000F010
:10064000B9F80820012100F0BBF8002805D058486F
:10065000006A8047082000F0ADF80920002100F072
:10066000AFF8002805D05148406A8047092000F0C3
:10067000A1F80920012100F0A3F8002805D04C487A
:10068000406A8047092000F095F80A20002100F018
:1006900097F8002805D04548806A80470A2000F076
:1006A00089F80A20012100F08BF8002805D0404885
:1006B000806A80470A2000F07DF80B20002100F0BE
:1006C0007FF8002805D03948C06A80470B2000F029
:1006D00071F80B20012100F073F8002805D0344890
:1006E000C06A80470B2000F065F80C20002100F064
:1006F00067F8002805D02D48006B80470C2000F0DB
:1007000059F80C20012100F05BF8002805D028489A
:10071000006B80470C2000F04DF80D20002100F008
:100720004FF8002805D02148406B80470D2000F08D
:1007300041F80D20012100F043F8002805D01C48A5
:10074000406B80470D2000F035F80E20002100F0AE
:1007500037F8002805D01548806B80470E2000F040
:1007600029F80E20012100F02BF8002805D01048B0
:10077000806B80470E2000F01DF80F20002100F054
:100780001FF8002805D00948C06B80470F2000F0F3
:1007900011F80F20012100F013F8002805D00448BB
:1007A000C06B80470F2000F005F880BD540000208A
:1007B0000C00002001218140094801604160704720
:1007C000074A1368C340DB0707D05268C2400120C4
:1007D0001040401A411E8841704700207047C046B3
:1007E000444002400179C907027A12070A43C188CE
:1007F000511800688000014A815070470040024053
:10080000002A03D002680A430260704702688A43E4
:100810000260704770B500252C462B4603E0AD1CE6
:100820004908202D08D0CE07F9D00326AE40344326
:100830001646AE403343F2E74169A1434161416945
:100840001943416170BD002A03D042680A434260E7
:10085000704742688A4342607047012A07D0002AE5
:100860000BD182680A4382600C30C9430AE0C26837
:100870000A43C2600830C94304E082688A43826048
:100880000C30C94302680A4002607047C0690840E2
:10089000411E884170470000F0B581B00E46092026
:1008A000C1020025012428462A462346FFF7D0FD31
:1008B0001021062728463A46FFF7D8FC2021284673
:1008C0003A46FFF7D3FC084F3846314600F032FA7B
:1008D00038462946224600F061FA3846214622462B
:1008E00000F05CFA01B0F0BD00100440024801685D
:1008F0000029FCD07047C046A8000020B0B50120F8
:10090000C5020E4C2046294600F081F9002806D089
:100910000B48006880472046294600F061F9042111
:10092000204600F074F9002806D006480068804789
:100930000421204600F054F9B0BDC04600C002407A
:100940004C00002050000020F0B581B00090F0C9AC
:100950000B6848684A7A12023243097A0906114341
:10096000214329433943194301430098016701B0EA
:10097000F0BD4A1E91410901026F10239A4351189C
:1009800001677047704780B50020014600F00CF801
:1009900080BD00001F2101400120884001490860FE
:1009A0007047C04600E100E0024A0A4002430248A4
:1009B0000260704780FFFF1F08ED00E0704780B5C0
:1009C00084B000200390012109020291E121490233
:1009D000019101A9FFF760FF04B080BD80B501203F
:1009E0000102034800F0FCF802480068804780BD1F
:1009F000004003409400002080B50120010203481C
:100A000000F0EEF802480068804780BD00400740D3
:100A10009800002070470000001F414241418800BB
:100A20001F490A6804239A43101808607047C0469B
:100A300010B50420C043FFF7EFFF7D208101084877
:100A40000068FFF78FFB00F02DF80124204600F02E
:100A50001DF8002000F006F8204600F003F810BD55
:100A600000000020012805D0002809D10C480021F1
:100A7000816070470A48016801220A43026070479A
:100A8000074801680122914301607047411E884177
:100A9000400003490A6802239A431018086070470F
:100AA00010E000E0014908607047C04614E000E033
:100AB0003D480168491C01607047C046F0B584B0EC
:100AC000324810210391016031480122026031480F
:100AD000C16A402302931943C1622F490B68272B37
:100AE000FCD103218B02046A9C430462D302046894
:100AF0001C43046043681B07FCD503680B430421B7
:100B00008B430360016B072319400329FAD1234C5F
:100B10002168114306250195A94321600021009118
:100B2000C161510205688D4305601502041F2668E6
:100B30002E432660C66A029FBE43C66226682E43C5
:100B400026600525EC05446104680C430460416897
:100B50008907FCD5114E316802240C43AC43346044
:100B60000099C16101681143019CA1430160016BBF
:100B700019400129FBD13168039B1943316091026F
:100B800002688A43026004B0F0BDC0460C81084090
:100B9000008308400480084008A106400002084085
:100BA000014800687047C046AC00002010B54900FD
:100BB00001238B40046D9C4304658A40016D114301
:100BC000016510BDB0B5490001248C409C40056D05
:100BD000A54305658A409A40016D11430165B0BD8A
:100BE000C943C167BFF34F8F7047C943C167BFF3A4
:100BF0004F8F70474A1E9141026901239A43511851
:100C00000161704789004018902140587047C06FBB
:100C10000840411E88417047002A03D0426F0A43B2
:100C200042677047426F8A4342677047F0B584B0AD
:100C30000746294A6C3A904201D0012500E003257D
:100C4000087843061B0E03939D403B6DAB433B6509
:100C50007B6DAB4380003E183046A030029030469A
:100C60009030019040368C7938465430974210D1FC
:100C7000ED430095CD796D002543039CA5401D43B0
:100C80000560087A4B7A5C00044313480368009DB2
:100C90002B40039DAC401C430460FF2008303368A8
:100CA0008343336048883368034333604889019B3A
:100CB00018608889029B18600B7997422A4601D0F8
:100CC000184602E04879400018439040396D0143CE
:100CD000396504B0F0BDC0466CC0024089004018C0
:100CE0009021425070478022815070478822815065
:100CF00070470000024684320B8853604A88842380
:100D0000C2500322120403689343036001221206B7
:100D10000368934303608A68036813430360774A58
:100D2000904202D10A79024B1A6089898167704723
:100D30008CC00240B0B50C464168124A0A40E188B6
:100D40001143A2880A432189114362890A43426000
:100D500001218907884208D00C49884208D00C49F3
:100D600088420DD10C4D1C2004E0074D182001E0F5
:100D7000084D1E20FFF752FB2168FFF7F3F92860AA
:100D8000B0BDC046FCE0FFFF24000040001004405E
:100D900000100040241004402410004010238B4019
:100DA000002A03D041681943416070474168994364
:100DB0004160704710B582B0694600228A80009277
:100DC00001230B54087818404C78E407A40F20182E
:100DD0008978C907490F401800049903FFF738FBC9
:100DE00002B010BD9E4908617047C046F0B581B0A1
:100DF00000904248042100252A46FFF70DFF9C4839
:100E00000168022291430160016820229143016040
:100E100001680822914301600F4E30462946FFF7D2
:100E2000E9FE01273C02304621462A46FFF7F4FE40
:100E300030462946FFF757FF009881B23046FFF74A
:100E400055FF304621463A46FFF7E6FE3046394622
:100E5000FFF7D0FE01B0F0BD0040034010B5804860
:100E60000069002814D000F0E5FB022816D0012804
:100E70002CD0002829D17E48426802210A434260D2
:100E800082680A4382600722120703463C3B29E03E
:100E9000E34804210122FFF7BFFE10BD74484268F9
:100EA00008210A43426082680A43826007221207CF
:100EB0000346343B1C6894431C60032212071C68E1
:100EC00014431C6002680A43026010BD684842680F
:100ED00020210A43426082680A4382600722120787
:100EE00003462C3B1C6894431C60032212071C68B9
:100EF00014431C6002680A43026010BD00C0024037
:100F0000F0B581B01C4E09243046214600F01AF994
:100F10001A49304600F0F2F800253046294600F024
:100F2000DBF801273902304600F0FAF8634E144925
:100F3000304600F007F91349304600F0DFF82A2167
:100F4000304600F0C9F83903304600F0E9F80E4E9B
:100F50000421304600F0F6F83046214600F0CEF885
:100F60003046294600F0B8F8C021304600F0D8F8E5
:100F700000F01AFC01B0F0BD00000B404080000002
:100F8000440800000164000000400B4010B5044616
:100F9000FFF706FEA04201DA002010BD012010BDBF
:100FA00010B50446FFF7FCFD001910BD01118010BB
:100FB00040187047F0B581B0294EB06900284CD078
:100FC00000F0BEF90125E80226490A6842400A609D
:100FD00000F042FB0090244F002438462146FFF7E2
:100FE00098F938462146FFF79FF938462146FFF722
:100FF000AEF9306B00011D49401810218843316B58
:101000008900A0390422914309183846FFF79DF959
:1010100038462946FFF788F938462946FFF779F917
:10102000009800280ED01248016802229143016006
:101030000168202291430160016808229143016008
:10104000074809E0064D286B296BC91C08410011AF
:10105000FFF7CCFE02242846446101B0F0BDC04633
:10106000E400002020200B400070074080FDFFFFBF
:101070004040024080B500F0AFF880BD70470000EE
:1010800010B500F0D7FA002805D0022805D00128B5
:1010900008D1202102E0022100E008210748FFF7E3
:1010A000F5FB044600F0D8FA002802D0002C02D04C
:1010B00010BD012CFCD100F0EBFF10BD00200B4057
:1010C00080B500F0E5FF80BD80B500F0E1FF80BD98
:1010D00080B500F0DDFF80BD70B50024214A064BCD
:1010E00002E0641C032C06D2A50056598642F8D1B2
:1010F00059510324F5E770BDB400002070B50024F9
:10110000184A064B02E0641C032C06D2A50056596F
:101110008642F8D159510324F5E770BDC000002084
:1011200070B500240F4A064B02E0641C032C06D263
:10113000A50056598642F8D159510324F5E770BDF0
:10114000CC00002070B50024064A074B02E0641C66
:10115000032C06D2A50056598642F8D159510324D2
:10116000F5E770BD94230000D8000020024600205F
:101170000F2903D88900024B5A507047C04370476B
:101180005400002002460020032904D8890003A34C
:1011900059580A607047C0437047C0460400002099
:1011A00008000020940000209800002001490860F9
:1011B0007047C0464C000020014908607047C04697
:1011C0005000002010B5564804685C480021FFF725
:1011D00019FD201A401C10BD0848026807210A406A
:1011E000072A04D1826C036DD21A521C0264026871
:1011F0000A40062A01D1016D0164704740C00240D7
:1012000010B50024401E0549884205D881B24B48DC
:10121000FFF76CFD204610BDE04310BDFE7C0000D2
:1012200000C002403D49086000207047F0B581B021
:1012300005463A4E3068A84200DC284682B23F4854
:1012400000242146FFF74AFD3068A84200DC28460A
:1012500082B20127F6483946FFF740FD3068A842C0
:1012600000DC284682B20321F148FFF737FD3068E1
:10127000281A00DB471CBAB20221ED48FFF72EFD09
:10128000204601B0F0BDC046F0B581B00646234D02
:1012900028688119224F3A68521CE54C91421FD2AE
:1012A0003868801B401C82B2002520462946FFF783
:1012B00015FD3868801B401C82B201212046FFF7D3
:1012C0000DFD3868801B401C82B203212046FFF7C9
:1012D00005FD3868801B11490968401A461C15E055
:1012E000401C82B200212046FFF7F8FC2888401CF1
:1012F00082B2012620463146FFF7F0FC2888401CC8
:1013000082B203212046FFF7E9FC3546B2B2022142
:101310002046FFF7E3FC284601B0F0BDA000002006
:1013200088C0024010B5F84C00212046FFF76AFC47
:1013300081B22046FFF7D7FC10BDC04600C0024076
:1013400010B50024CB490868821E3E2A07D8E34A1C
:101350001268002A05D0022807D0401008E0E043B8
:1013600010BD402803D0400002E0402000E00220F1
:101370000860214600F002F8204610BDF0B583B0A9
:101380000F4601460024E043BA4B1A6802924A1EF7
:101390003F2A00D94DE052007A4492885200974487
:1013A0003F006E001A0186001A011A011A01990005
:1013B0001A011A011A011A011A011A011A01BA00B6
:1013C0001A011A011A011A011A011A011A011A0145
:1013D0001A011A011A011A011A011A011A01CE0082
:1013E0001A011A011A011A011A011A011A011A0125
:1013F0001A011A011A011A011A011A011A011A0115
:101400001A011A011A011A011A011A011A011A0104
:101410001A011A011A011A011A011A011A01F2001D
:10142000012119607F4801607F48042202607F48E3
:10143000DFE0802900D1D0E001252A02914200D0CE
:10144000C9E01A6077480560774804210160774851
:10145000402101600197AC4F0026384629462A46B4
:101460003346FFF7AFFB032138462A463346FFF7E2
:10147000A9FB3846019F31462A463346CCE002207C
:101480001860A14E0025304629462A462B46FFF714
:1014900099FB6648402101606248012101603046A5
:1014A0000A462B46FFF78EFB0321304683E03E467B
:1014B00004271F609448032100252A462B46FFF786
:1014C00081FB5948076037465648012101608E4824
:1014D0000A4613E0082018608B483E460127002585
:1014E00039462A462B46FFF76DFB4E4807604E48AB
:1014F00004210160032184483A4637462B46FFF712
:1015000061FB814829462A462B46FFF75BFB47488B
:10151000001F402156E0102018607B480025294616
:101520002A462B46FFF74EFB4048402101603E48CB
:101530000421016003213E460127734812E0202068
:1015400018607148032100252A462B46FFF73AFB15
:101550003548042101603548402101603E4601279D
:10156000694829463A462B46FFF72CFB6648394620
:101570002A462B46FFF726FB2A48001F07603746FE
:10158000012F22D024E040261E605F4801970127EA
:10159000002539462A462B46FFF714FB21480760F1
:1015A00022480660584829463A46019F2B46FFF7D5
:1015B00009FB032154482A462B46FFF703FB1A4830
:1015C000001F04210160012F02D12A480299016005
:1015D000FFF7A8FE204603B0F0BD80201860114838
:1015E000001F012101601048001F042202600F4803
:1015F000001F40220260444E002530462A462B46FA
:10160000FFF7E0FA032130462A462B46FFF7DAFAC5
:10161000304629462A462B46FFF7D4FA012FD7D168
:10162000D3E7C04628000B4028400B4028200B4041
:1016300000C002400F4801681220014201D0022080
:1016400070472420014201D0012070470020482229
:10165000114200D1C043704720480068054909780D
:101660005422114202D0411E8841704741424141FB
:10167000084670479C000020F0B581B00125EE02BD
:10168000214F0024384631462246FFF7C5FA384636
:101690003146FFF7A5FA0B48FFF788FD384631467B
:1016A000FFF79EFA384631462A46FFF7B5FA0A2078
:1016B000FFF7B8FD28462146FFF760FE204601B03F
:1016C000F0BDC0467510000001460020012902D877
:1016D000024A11607047C0437047C046380100207D
:1016E000014908607047C046B0000020FFF708FCC1
:1016F00000F032FB00F0A8FB0122D1020248FFF704
:101700008BFA00F0B1FCFCE700C00240F0B581B0FC
:101710000620FEF7B9FE01248021022520462A4634
:10172000FEF7A4FD210220462A46FEF79FFD002772
:10173000384629462A46FEF799FD042638463146A2
:1017400000962A46FEF792FD164829463246234661
:10175000FEF752FD0A21134E3046FEF764FD304677
:1017600039463A46FEF739FD304621462246FEF715
:1017700034FD0327304639462A46FEF72EFD304613
:1017800000993A46FEF729FD10213046FEF746FD46
:1017900030462146FEF718FD30462146FEF745FD4E
:1017A00001B0F0BD0000014080B5FFF7ECF8FEF796
:1017B000D1FDFFF704F9FFF73BF900F047F900F01E
:1017C0000BF900F0D1F800F007F800F07FF900F015
:1017D0000BFAFFF79BFF80BDF0B58BB000240A9495
:1017E000099408940123D903204622460193FEF769
:1017F0002FFE594A079403E0641C032C564A3FD03D
:10180000A00011580029F7D011180491AE4908180A
:1018100002900025019F039403E06D1C7F00102DB2
:10182000EAD0049800683842F7D001220592204699
:101830003946FEF71BFD02980668BCB200220692EC
:1018400030462146FEF7DCFF022230462146FFF7F4
:1018500004F830462146039C059AFEF7F4FFE8B2EF
:10186000E1B2FEF7EBFC08A8032101720699C180E2
:1018700001710895FEF7B6FF079838430790CCE74B
:101880000120C403354D374E354F07E0884200D163
:1018900032E04000611C814200D85BE007990842B9
:1018A000F7D0FF2800DD32E0411E3F2900D94EE08D
:1018B0007944097949008F442525243B2424243B7D
:1018C000242424242424241F2424242424242424DD
:1018D000242424242424241F2424242424242424CD
:1018E00024242424242424242424242424242424B8
:1018F000242424242424241F0620FFF74BF8204608
:10190000C7E7C6E70420FFF745F80220C1E7012139
:10191000A84206DCB04210DC0A029042ECD0490238
:10192000B4E7B8420EDC0A039042E5D04903ADE7C4
:101930000520FFF72FF80820ABE78A029042DBD0A2
:10194000C902A3E78A039042D6D0C9039EE7802844
:10195000D2D09EE70BB0F0BDB4000020FF0F000016
:10196000FF3F0000FF030000F0B583B0002402E059
:10197000641C032C2BD0A200164989580029F7D0EB
:10198000144989180291504989180191012502E0F2
:101990006D00290CECD1029909682942F8D0012286
:1019A00020462946FEF762FC01980668AFB2002285
:1019B00030463946FEF724FF022230463946FEF70C
:1019C0004CFF032230463946FEF724FFE0E703B020
:1019D000F0BDC046C0000020F0B585B0002002E098
:1019E000401C03282ED08200174989580029F7D0BF
:1019F00015498918039134498918019101250290EC
:101A000002E06D00290CEBD1039909682942F8D056
:101A1000012204922946FEF729FC01980768ACB21E
:101A20000026384621463246FEF7EAFE3846214671
:101A30003246FEF712FF38462146049AFEF703FFAE
:101A40000298DEE705B0F0BDCC000020F0B583B011
:101A5000002402E0641C032C31D02046FFF7AAF9D1
:101A6000A000184909580029F4D016490918029114
:101A70001549081800900125019402E06D00280C1A
:101A8000E8D1029800682842F8D00126204629466D
:101A90003246FEF7EBFB00980768ACB202223846EC
:101AA0002146FEF7DAFE032238462146FEF7B2FE53
:101AB00038462146019C3246FEF7A2FEDEE703B01F
:101AC000F0BDC046D800002094230000F0B593B0CC
:101AD0000124A1030025284622462346FEF7B8FC30
:101AE00010210426029620463246FEF7BFFBE10392
:101AF00020463246FEF7BAFBA10228463246FEF7E0
:101B0000B5FB610220463246FEF7B0FB20020FA96A
:101B100088810D7111952F46039530480F90AF4E77
:101B20003046FFF7E7F80BAD072068802F702C4890
:101B30000C902C480D9030462946FFF777F8502737
:101B40006F812C7030462946FFF770F86F810320B3
:101B50000190287030462946FFF768F86F81022708
:101B60002F7030462946FFF761F830460299FFF79B
:101B700037F80A20FEF70EFF30462146FFF73AF805
:101B800030462146FEF7F5FE3046039D29462246A3
:101B9000FFF70CF8304621462246FFF707F830469B
:101BA00039462246FFF702F8304601992246FEF7F1
:101BB000FDFF04A90D83089707942020099006953E
:101BC00020050590600504903046FEF7BDFEE10259
:101BD00030462246FFF720F813B0F0BD640028001D
:101BE0000100000100015000F0B585B0594E3046AB
:101BF000FEF788FB564F3846FEF784FB1120FEF7B0
:101C0000C9FE1220FEF7C6FE002530462946FEF723
:101C10009EFB38462946FEF79AFB012430462146B2
:101C2000FEF782FB38462146FEF77EFB3046214612
:101C3000FEF782FB38462146FEF77EFB260201AF07
:101C4000BE813D711B48019003951B483946FFF743
:101C500051F81A483946FFF74DF8174F38462146D4
:101C6000FEF7C3FF15482146FEF7BFFF3846314651
:101C7000FEF7B6FF114807463146FEF7B1FF0D20CB
:101C8000FEF788FE0E20FEF785FE0B482946FFF77B
:101C90002AF838462946FFF726F8074831462246F3
:101CA000FEF7BAFF384631462246FEF7B5FF05B0CB
:101CB000F0BDC046FFFF2700004003400040074042
:101CC000F0B581B00D460646214F00243846214626
:101CD000FEF71FFB38462146FEF726FB3846214615
:101CE000FEF735FB3E48016802229143016001681E
:101CF0002022914301600168082291430160D2488B
:101D000004212246FEF788FFD14F38462146FEF7D0
:101D100000FB38462146FEF707FB38462146FEF712
:101D200016FBE84FBC61012E00D0802630462146CC
:101D3000FFF724FB002D03D0032D03D1032503E07F
:101D40002C4601E0E44303253D60204601B0F0BD90
:101D50000070074000600740B0B5FFF78DFC00241D
:101D6000204600F04DF81C4802252946FFF70AFAE4
:101D7000B54804212246FEF74FFFF5480168A94304
:101D800001600168202291430160016808229143AB
:101D900001601448FFF710FA134801252946FFF7A0
:101DA000E5F912480521FFF7E1F911480321FFF792
:101DB000DDF910482146FFF7E5F90F482946FFF7FE
:101DC000E1F9E14804600D48FFF78AFC282000F0A3
:101DD00027F82046B0BDC0465D0E000000C002409E
:101DE0004040024081100000C1100000D1100000EE
:101DF000C910000085200000B50F0000AD0F0000E5
:101E000080B5D1490A68002A02D00968032903D1A4
:101E1000FFF75AFC002080BD0020C04380BDC046B3
:101E200001461438452801D2002008E00020C043B4
:101E3000582901DD582102E0132903DC1421F14A5D
:101E400011647047401E70470021C843ED4A136873
:101E5000012B07D01368022B04D0012010605160C1
:101E6000906108467047C046F0B581B0E54F78688C
:101E7000062809D8784400794000874406121E5C81
:101E80000303670001B0F0BDFEE701207860002089
:101E9000B864F8646B49086072490860386501B03D
:101EA000F0BD704C2068002868D0FFF76FF800285C
:101EB000E8D00220786001B0F0BD624C20680028B4
:101EC00062D0FFF763F80028DCD003207860FFF7CA
:101ED00037FA9620F8605C48042101242246FEF778
:101EE0009BFE6420FFF78CF95820FFF7CDF9002600
:101EF0003046FEF777FF55487862C34D2846314695
:101F0000FEF707FA28463146FEF70EFA2846314614
:101F1000FEF71DFA4F492846FEF717FA28462146D4
:101F2000FEF702FA28462146FEF7F3F94A48FEF783
:101F30005DFF01B0F0BD424800210160B960C820DA
:101F4000FFF72EF83D49086001B0F0BDB868411EAA
:101F5000022961D3002839D003280ED1FFF732F9C6
:101F60000446FFF72FF9844201D00020B860C82052
:101F7000FFF716F8314908604EE0FEE7C820FFF78A
:101F80000FF8206080201CE0344801681022914343
:101F900001600168202291430160F14801688022BC
:101FA000914301600121C90241622D48FFF728F9E0
:101FB0004B208000FFF73AF91420FEF7F1FF206074
:101FC00004200021FFF7DAF901B0F0BD1C4C2068B5
:101FD000002803D0FEF7DAFF00281DD00120FEF70D
:101FE000DFFF2060FFF7EEF80446FFF7EBF8054649
:101FF000FFF7E8F8AC4203DA401CFFF745F90BE0C5
:10200000396C3A6C884205DDFFF7DCF8401EFFF7BB
:102010003BF901E00320B8603868022800D131E7BD
:1020200006480068FEF7B2FF002800D12AE700202A
:102030000321FFF745FE01B0F0BDC0464801002076
:10204000440100203C01002000C00240581B000059
:102050000060074000171100AC0D000000400B406D
:10206000701700004001002080B5BA480068811E4A
:10207000022905D3002803D0012802D1FFF7F4FE7E
:1020800080BDFEE780B501200321FFF719FE80BD6A
:1020900080B5B0488169002913D04168032902D175
:1020A00000F058F880BD4168042902D04168052934
:1020B00002D100F0ADF880BD4068062801D100F0E3
:1020C00003F880BDE4000020F0B581B0A14EB069F6
:1020D000002836D01D48082707609F4C2046FEF791
:1020E00021F99E494143480C30630025204629468A
:1020F000FEF70FF920462946FEF716F92046294635
:10210000FEF725F9306B0002316B89010918204672
:10211000FEF71BF9012520462946FEF705F9204662
:102120002946FEF7F6F80A48016802229143016049
:1021300001682022914301600168B94301600320D6
:10214000706101B0F0BDC046E400002024000B40E7
:102150004040024070B57F4E03207061FFF77CFA6B
:1021600000282BD1706A716A4000451A7A4C2046CB
:10217000FEF7D8F879494143480C281840087062A6
:10218000002520462946FEF7C4F820462946FEF7DA
:10219000CBF820462946FEF7DAF8706AC001716A6A
:1021A000490109182046FEF7D0F8012520462946A6
:1021B000FEF7BAF820462946FEF7ABF8F068022889
:1021C0000CDBFFF749FA012802D1F068401EF060ED
:1021D000FFF7B6F8706A0011FEF708FEF0680128F4
:1021E0000FD1052070600124E002084908602046F4
:1021F000FEF7F8FD20462146FFF7C0F8C820FEF79D
:10220000F5FD70BDE40000200060074028000B4091
:10221000F0B581B04F4F03207861786805283AD136
:102220004D4C002520462946FEF773F820462946E6
:10223000FEF77AF820462946FEF789F84B492046F2
:10224000FEF783F8012520462946FEF76DF8204663
:102250002946FEF75EF8FFF773F8FFF771F8786A22
:10226000C010FEF7C3FD28462946FFF787F8042073
:1022700078603F48016810220A430260016820220A
:102280000A4302603648016880220A43026008213E
:10229000416201B0F0BD7868042859D12E48FEF79C
:1022A00041F82E494143480C7862786A3863386BAC
:1022B0007863786A40107862786A3862786A401089
:1022C000F8620125E80226494862264C002620468D
:1022D0003146FEF71EF820463146FEF725F8204627
:1022E0003146FEF734F8786A00011F494018102182
:1022F0008843796A89005839042291430918204695
:10230000FEF723F820462946FEF70EF82046294618
:10231000FDF7FFFF104C20463146FDF7FAFF20463F
:102320003146FEF701F820463146FEF710F80F4916
:102330002046FEF70AF820462946FDF7F5FF20461D
:102340002946FDF7E6FF06207860082004498862E8
:1023500001B0F0BDE400002000600740CD0C00009B
:1023600000000B4000700740A0FEFFFF804F1200EE
:1023700000400B4002E008C8121F08C1002AFAD131
:1023800070477047002001E001C1121F002AFBD1F5
:102390007047000000000B4000200B4000400B4045
:1023A000C023000000000020A400000074230000EF
:1023B00064240000A8000020A8020000842300007C
:1023C000005A62027D1000007D1000007D100000A8
:1023D0007D1000007D1000007D1000007D100000C9
:1023E0007D1000007D1000007D1000007D100000B9
:1023F0007D1000007D1000007D1000007D100000A9
:102400007D1000007D1000007D1000007D10000098
:102410007D1000007D1000007D1000007D10000088
:102420007D1000007D1000007D1000007D10000078
:102430007D1000007D1000007D1000007D10000068
:102440007D1000007D1000007D1000007D10000058
:102450007D1000007D1000007D10000001000000D4
:042460000A0000006E
:04000005000000AD4A
:00000001FF
