:020000040000FA
:1000000050030020AD00000091090000ED08000041
:10001000FFFFFFFFFFFFFFFFFFFFFFFFFFFFFFFFF0
:10002000FFFFFFFFFFFFFFFFFFFFFFFF210A0000B1
:10003000FFFFFFFFFFFFFFFFC9090000BD0A00002F
:100040002101000021010000210100002101000028
:10005000A10400000505000069050000FFFFFFFF87
:1000600021010000FFFFFFFFFD080000FFFFFFFF71
:1000700021010000E9090000050A0000210100003B
:1000800021010000D5020000ED0200002101000066
:1000900021010000210100002101000021010000D8
:1000A000FFFFFFFF21010000210100001D488047E4
:1000B0001D4880471D4800471D480169002908D197
:1000C0004169002905D18169002902D1C16900294E
:1000D00009D01848C1680901090D00290ED0052969
:1000E0000CD006290AD0BFF34F8F13481349016083
:1000F00013491248C860BFF34F8FFEE70E480168EE
:100100000E48884200D070470E480F4901600A48E7
:100110000E4901607047FEE7FEE7FEE7FEE7FEE7F7
:10012000FEE70000B9000000C90A0000510100000C
:100130000003084080010840000000200400FA0588
:1001400000ED00E000810840010000000000000018
:100150000348854600F026F80048004701180000D3
:100160005003002070B50446002903D0002020224F
:10017000012310E0002801D00020C043C046C04643
:100180000DE02546D5408D4205D30D469540641BB4
:100190001D46954040191546521E002DF1DC2146A2
:1001A00070BD0000064C0125064E05E0E36807CC53
:1001B0002B430C3C98471034B442F7D3FFF7CCFFE5
:1001C00060240000802400004A1E9141C901026899
:1001D00080239A43511801607047B0B59307DB0E36
:1001E0001F249C40FC25154040194268A2439940B9
:1001F00011434160B0BD000010B51B04064C1B1933
:1002000012025118FF22D243891819430268802331
:1002100013400B43036010BD0000FFFF0A06120FDE
:10022000026741677047016270474A1E9141426F01
:1002300001239A435118416770470000B0B5072861
:1002400001D8002200E001229200074BD458072871
:1002500000D90838C0B280000F258540AC438140EA
:100260002143D150B0BDC04600200240F0B582B05D
:1002700001920A46C000164BC01800240AE001682B
:10028000B14321430160009C21460831001D002C30
:100290000C461AD11346E3401B06F5D00125009405
:1002A000A54000273C463E463B4603E03F1D5B1C05
:1002B000202FE4D01146D9402942F7D00199B94006
:1002C0000C430F21B9400E43F0E702B0F0BDC04629
:1002D0002020024080B5034800F014F8024800686E
:1002E000804780BD006007400400002080B50348BF
:1002F00000F008F802480068804780BD00700740A1
:10030000080000204168012291434160BFF34F8FF4
:1003100070474A1E91418900026804239A4351188C
:1003200001607047806870474A1E9141026801234E
:100330009A435118016070474A1E91414900026872
:1003400002239A43511801607047C1607047816071
:100350007047000080B5CF2001020020024A01232F
:1003600000F076F880BDC04601000331F0B581B0E1
:100370000446184E776900F02FF8054620600720E4
:100380003840401E062809D8784400794000874448
:100390000C03030505070A001E4D06E0002504E0D6
:1003A0000120C50301E07D20050265603068052855
:1003B00000D30520C540A56003212846FFF7D2FEE3
:1003C000B1684903490F072901D0CD402846E060B4
:1003D00001B0F0BD208008400D490846183800687B
:1003E0004A68084614380068800501D40020704728
:1003F0000848002A0AD40A685201120F01D050435B
:1004000000E0054809684902890FC8407047C046A6
:100410001880084000127A000020A107B0B584B00F
:10042000044640098000094945586846FFF79EFF89
:100430001F202040032181402940C1402E2C00D1A3
:10044000891C0298C84004B0B0BDC046388008403E
:1004500070B50C4C2568002B01D0054300E08543A6
:10046000A668E0682560002B01D00E4300E08E43B3
:10047000A660002B02D01043E06070BD9043E060A6
:1004800070BDC0462480084007210904034A136850
:100490008B430004184310607047C0462880084012
:1004A00080B50020014600F08BF9002805D0BF4838
:1004B00000688047002000F07DF90020012100F055
:1004C0007FF9002805D0BA4800688047002000F076
:1004D00071F90120002100F073F9002805D0B3481C
:1004E00040688047012000F065F90120014600F0D6
:1004F00067F9002805D0AE4840688047012000F029
:1005000059F980BD80B50220002100F059F900287A
:1005100005D0A64880688047022000F04BF90220F1
:10052000012100F04DF9002805D0A14880688047DE
:10053000022000F03FF90320002100F041F90028DB
:1005400005D09A48C0688047032000F033F90320A3
:10055000012100F035F9002805D09548C068804792
:10056000032000F027F980BD80B50420002100F0B1
:1005700027F9002805D08D4800698047042000F045
:1005800019F90420012100F01BF9002805D0884842
:1005900000698047042000F00DF90520002100F0DB
:1005A0000FF9002805D0814840698047052000F0F8
:1005B00001F90520012100F003F9002805D07C484D
:1005C00040698047052000F0F5F80620002100F082
:1005D000F7F8002805D0754880698047062000F0AC
:1005E000E9F80620012100F0EBF8002805D070485A
:1005F00080698047062000F0DDF80720002100F028
:10060000DFF8002805D06948C0698047072000F05E
:10061000D1F80720012100F0D3F8002805D0644864
:10062000C0698047072000F0C5F80820002100F0CD
:10063000C7F8002805D05D48006A8047082000F010
:10064000B9F80820012100F0BBF8002805D058486F
:10065000006A8047082000F0ADF80920002100F072
:10066000AFF8002805D05148406A8047092000F0C3
:10067000A1F80920012100F0A3F8002805D04C487A
:10068000406A8047092000F095F80A20002100F018
:1006900097F8002805D04548806A80470A2000F076
:1006A00089F80A20012100F08BF8002805D0404885
:1006B000806A80470A2000F07DF80B20002100F0BE
:1006C0007FF8002805D03948C06A80470B2000F029
:1006D00071F80B20012100F073F8002805D0344890
:1006E000C06A80470B2000F065F80C20002100F064
:1006F00067F8002805D02D48006B80470C2000F0DB
:1007000059F80C20012100F05BF8002805D028489A
:10071000006B80470C2000F04DF80D20002100F008
:100720004FF8002805D02148406B80470D2000F08D
:1007300041F80D20012100F043F8002805D01C48A5
:10074000406B80470D2000F035F80E20002100F0AE
:1007500037F8002805D01548806B80470E2000F040
:1007600029F80E20012100F02BF8002805D01048B0
:10077000806B80470E2000F01DF80F20002100F054
:100780001FF8002805D00948C06B80470F2000F0F3
:1007900011F80F20012100F013F8002805D00448BB
:1007A000C06B80470F2000F005F880BD540000208A
:1007B0000C00002001218140094801604160704720
:1007C000074A1368C340DB0707D05268C2400120C4
:1007D0001040401A411E8841704700207047C046B3
:1007E000444002400179C907027A12070A43C188CE
:1007F000511800688000014A815070470040024053
:10080000002A03D002680A430260704702688A43E4
:100810000260704770B500252C462B4603E0AD1CE6
:100820004908202D08D0CE07F9D00326AE40344326
:100830001646AE403343F2E74169A1434161416945
:100840001943416170BD002A03D042680A434260E7
:10085000704742688A4342607047012A07D0002AE5
:100860000BD182680A4382600C30C9430AE0C26837
:100870000A43C2600830C94304E082688A43826048
:100880000C30C94302680A4002607047C0690840E2
:10089000411E884170470000F0B581B00E46092026
:1008A000C1020025012428462A462346FFF7D0FD31
:1008B0001021062728463A46FFF7D8FC2021284673
:1008C0003A46FFF7D3FC084F3846314600F038FA75
:1008D00038462946224600F067FA38462146224625
:1008E00000F062FA01B0F0BD001004400248016857
:1008F0000029FCD07047C046A800002070B5114CFC
:100900000421204600F089F900280AD00E4D08265F
:100910002E600E48006880470421204600F066F9EA
:100920006E600120C5022046294600F076F90028B5
:1009300006D00748006880472046294600F056F94F
:1009400070BDC04600C0024024000B405000002093
:100950004C000020F0B581B00090F0C90B684868E9
:100960004A7A12023243097A090611432143294384
:100970003943194301430098016701B0F0BD4A1E95
:1009800091410901026F10239A4351180167704782
:10099000704780B50020014600F00CF880BD0000D3
:1009A0001F21014001208840014908607047C0466E
:1009B00000E100E0024A0A40024302480260704738
:1009C00080FFFF1F08ED00E0704780B584B0002075
:1009D0000390012109020291E1214902019101A93B
:1009E000FFF75AFF04B080BD80B501200102034823
:1009F00000F0FCF802480068804780BD00400340DA
:100A00009400002080B501200102034800F0EEF8B8
:100A100002480068804780BD0040074098000020E1
:100A200070470000001F4142414188001F490A6889
:100A300004239A43101808607047C04610B504207C
:100A4000C043FFF7EFFF7D20810108480068FFF7F2
:100A500089FB00F02DF80124204600F01DF800204D
:100A600000F006F8204600F003F810BD000000205A
:100A7000012805D0002809D10C4800218160704769
:100A80000A48016801220A4302607047074801686A
:100A90000122914301607047411E88414000034993
:100AA0000A6802239A4310180860704710E000E0BB
:100AB000014908607047C04614E000E03D48016805
:100AC000491C01607047C046F0B584B0324810211F
:100AD000039101603148012202603148C16A40231C
:100AE00002931943C1622F490B68272BFCD10321C4
:100AF0008B02046A9C430462D30204681C430460B2
:100B000043681B07FCD503680B4304218B43036038
:100B1000016B072319400329FAD1234C21681143A3
:100B200006250195A943216000210091C161510270
:100B300005688D4305601502041F26682E43266054
:100B4000C66A029FBE43C66226682E4326600525FC
:100B5000EC05446104680C43046041688907FCD5D6
:100B6000114E316802240C43AC4334600099C161DA
:100B700001681143019CA1430160016B19400129E7
:100B8000FBD13168039B19433160910202688A43AB
:100B9000026004B0F0BDC0460C81084000830840EC
:100BA0000480084008A1064000020840014800688F
:100BB0007047C046AC00002010B5490001238B40AF
:100BC000046D9C4304658A40016D1143016510BDAD
:100BD000B0B5490001248C409C40056DA5430565D6
:100BE0008A409A40016D11430165B0BDC943C16798
:100BF000BFF34F8F7047C943C167BFF34F8F704733
:100C00004A1E9141026901239A43511801617047BC
:100C100089004018902140587047C06F0840411E1D
:100C200088417047002A03D0426F0A4342677047E9
:100C3000426F8A4342677047F0B584B00746294A3D
:100C40006C3A904201D0012500E003250878430664
:100C50001B0E03939D403B6DAB433B657B6DAB43EC
:100C600080003E183046A03002903046903001900F
:100C700040368C7938465430974210D1ED43009578
:100C8000CD796D002543039CA5401D430560087A7E
:100C90004B7A5C00044313480368009D2B40039D7E
:100CA000AC401C430460FF2008303368834333604A
:100CB00048883368034333604889019B18608889FA
:100CC000029B18600B7997422A4601D0184602E031
:100CD0004879400018439040396D0143396504B0AC
:100CE000F0BDC0466CC002408900401890214250BF
:100CF00070478022815070478822815070470000E1
:100D0000024684320B8853604A888423C2500322EF
:100D1000120403689343036001221206036893439D
:100D200003608A68036813430360A94A904202D1B2
:100D30000A79024B1A608989816770478CC002402A
:100D4000B0B50C464168124A0A40E1881143A288B6
:100D50000A432189114362890A43426001218907BC
:100D6000884208D00C49884208D00C4988420DD1ED
:100D70000C4D1C2004E0074D182001E0084D1E20FA
:100D8000FFF74CFB2168FFF7EDF92860B0BDC046C6
:100D9000FCE0FFFF24000040001004400010004071
:100DA000241004402410004010238B40002A03D05C
:100DB00041681943416070474168994341607047F9
:100DC00010B582B0694600228A80009201230B543C
:100DD000087818404C78E407A40F20188978C907D0
:100DE000490F401800049903FFF732FB02B010BD11
:100DF00080B501F0C7F980BD70B5E44E706B716BC2
:100E00004000401A316B401840107063F06AF16A7C
:100E10004000401AB16A40184010F0621E48016854
:100E2000706B8847B063706B316A4010401AF06392
:100E3000F06BF16A0818B16B401AF063706B4010E8
:100E40003062D54C002520462946FFF762FA20463D
:100E50002946FFF769FA20462946FFF778FA306AF3
:100E6000F16B08184001316AF26B5118C90009187A
:100E70002046FFF76AFA012520462946FFF754FA73
:100E800020462946FFF745FA306A8000316A49005A
:100E90000818F06170BDC046B0000020BB49086171
:100EA0007047C046F0B581B000900124E502484F7C
:100EB0000026384629463246FFF7B4FE3846294612
:100EC000FFF794FEB3480168022291430160016874
:100ED00020229143016001680822914301600F4F75
:100EE00038463146FFF78CFE250238462946324601
:100EF000FFF798FE38463146FFF7FBFE009881B2B7
:100F00003846FFF7F9FE384629462246FFF78AFEA3
:100F100038462146FFF774FE01B0F0BD00400340A3
:100F200070B59A480069002814D000F00DFC022822
:100F30001DD0012833D0002830D1964842680221C4
:100F40000A43426082680A4382600722120703460E
:100F50003C3B30E00124E502F64E30462946FFF7DF
:100F600045FE304629462246FFF75CFE70BD8948A3
:100F7000426808210A43426082680A43826007226D
:100F800012070346343B1C6894431C60032212077B
:100F90001C6814431C6002680A43026070BD7D48EF
:100FA000426820210A43426082680A438260072225
:100FB000120703462C3B1C6894431C600322120753
:100FC0001C6814431C6002680A43026070BDC0467E
:100FD00000C00240F0B581B01C4E092430462146C5
:100FE00000F03AF91A49304600F012F9002530466F
:100FF000294600F0FBF801273902304600F01AF9C3
:10100000794E1449304600F027F91349304600F074
:10101000FFF82A21304600F0E9F83903304600F0A5
:1010200009F90E4E0421304600F016F930462146EB
:1010300000F0EEF83046294600F0D8F8C0213046DE
:1010400000F0F8F800F03AFC01B0F0BD00000B40F1
:1010500040800000440800000164000000400B4094
:1010600010B50446FFF7A2FDA04201DA002010BD32
:10107000012010BD10B50446FFF798FD001910BD02
:10108000011180104018704770B5404EB0690028BB
:101090007AD000F0DFF900F069FB002818D000F0EA
:1010A00065FB012870D1706903283CD10020706174
:1010B000FFF7A2FE374801680222914301600168F0
:1010C00020229143016001680822914301603CE0C5
:1010D00002207061304C002520462946FFF719F99F
:1010E00020462946FFF720F920462946FFF72FF929
:1010F000306A4001316AC900401828494118204629
:10110000FFF723F9012520462946FFF70DF9204670
:101110002946FFF7FEF8706AC010716A8911081835
:10112000FFF7C0FE70BD0420706100F093F9012448
:101130002046214600F0ACF9E00215490860052080
:101140007060706A4010FFF7ADFE706C01281BD113
:101150007069042802D1F06C401CF064B06C632804
:1011600003DCB06C401CB06470BD306DF16C4903A1
:101170000818F16CC9024018F16C0902401A4010BD
:1011800030650020F064B06470BDC046E40000200B
:1011900028000B404040024000700740E0FCFFFF89
:1011A00080B500F0A3F880BD7047000010B500F0D6
:1011B000CBFA002805D0022805D0012808D120212B
:1011C00002E0022100E008210748FFF75FFB044628
:1011D00000F0CCFA002802D0002C02D010BD012C67
:1011E000FCD100F0CFFF10BD00200B4070B50024F3
:1011F000214A064B02E0641C032C06D2A500565976
:101200008642F8D159510324F5E770BDB40000209F
:1012100070B50024184A064B02E0641C032C06D269
:10122000A50056598642F8D159510324F5E770BDFF
:10123000C000002070B500240F4A064B02E0641C79
:10124000032C06D2A50056598642F8D159510324E1
:10125000F5E770BDCC00002070B50024064A074BAE
:1012600002E0641C032C06D2A50056598642F8D130
:1012700059510324F5E770BD54240000D800002024
:10128000024600200F2903D88900024B5A507047AC
:10129000C04370475400002002460020032904D8B0
:1012A000890003A359580A607047C0437047C0467D
:1012B0000400002008000020940000209800002076
:1012C000014908607047C0464C0000200149086091
:1012D0007047C0465000002010B5564804685C486E
:1012E0000021FFF795FC201A401C10BD0848026839
:1012F00007210A40062A04D1426CC36CD21A521C40
:10130000C26302680A40072A01D10021C163704705
:1013100044C0024010B50024401E0549884205D84B
:1013200081B24B48FFF7E8FC204610BDE04310BDFA
:10133000FE7C000000C002403D490860002070476C
:10134000F0B581B005463A4E3068A84200DC284628
:1013500082B23F4800242146FFF7C6FC3068A8420D
:1013600000DC284682B20127F6483946FFF7BCFC6C
:101370003068A84200DC284682B20321F148FFF71A
:10138000B3FC3068281A00DB471CBAB20221ED48D2
:10139000FFF7AAFC204601B0F0BDC046F0B581B011
:1013A0000646234D28688119224F3A68521CE54CA5
:1013B00091421FD23868801B401C82B20025204613
:1013C0002946FFF791FC3868801B401C82B201213E
:1013D0002046FFF789FC3868801B401C82B203213D
:1013E0002046FFF781FC3868801B11490968401AC4
:1013F000461C15E0401C82B200212046FFF774FC19
:101400002888401C82B2012620463146FFF76CFC3A
:101410002888401C82B203212046FFF765FC354630
:10142000B2B202212046FFF75FFC284601B0F0BDB2
:10143000A000002088C0024010B5F84C00212046D2
:10144000FFF7E6FB81B22046FFF753FC10BDC04614
:1014500000C0024010B50024CB490868821E3E2A15
:1014600007D8E34A1268002A05D0022807D04010A6
:1014700008E0E04310BD402803D0400002E04020D7
:1014800000E002200860214600F002F8204610BD6E
:10149000F0B583B00F4601460024E043BA4B1A680A
:1014A00002924A1E3F2A00D94DE052007A449288A7
:1014B000520097443F006E001A0186001A011A017B
:1014C0001A0199001A011A011A011A011A011A01C6
:1014D0001A01BA001A011A011A011A011A011A0195
:1014E0001A011A011A011A011A011A011A011A0124
:1014F0001A01CE001A011A011A011A011A011A0161
:101500001A011A011A011A011A011A011A011A0103
:101510001A011A011A011A011A011A011A011A01F3
:101520001A011A011A011A011A011A011A011A01E3
:101530001A01F200012119607F4801607F480422EE
:1015400002607F48DFE0802900D1D0E001252A0237
:10155000914200D0C9E01A607748056077480421BD
:1015600001607748402101600197AC4F0026384662
:1015700029462A463346FFF72BFB032138462A46E5
:101580003346FFF725FB3846019F31462A4633464E
:10159000CCE002201860A14E0025304629462A469C
:1015A0002B46FFF715FB6648402101606248012188
:1015B000016030460A462B46FFF70AFB03213046FE
:1015C00083E03E4604271F609448032100252A46F5
:1015D0002B46FFF7FDFA5948076037465648012168
:1015E00001608E480A4613E0082018608B483E468A
:1015F0000127002539462A462B46FFF7E9FA4E48CF
:1016000007604E4804210160032184483A4637466A
:101610002B46FFF7DDFA814829462A462B46FFF77D
:10162000D7FA4748001F402156E0102018607B4839
:10163000002529462A462B46FFF7CAFA4048402192
:1016400001603E480421016003213E4601277348A2
:1016500012E0202018607148032100252A462B46FD
:10166000FFF7B6FA35480421016035484021016092
:101670003E460127694829463A462B46FFF7A8FA15
:10168000664839462A462B46FFF7A2FA2A48001F29
:1016900007603746012F22D024E040261E605F48B5
:1016A00001970127002539462A462B46FFF790FA75
:1016B0002148076022480660584829463A46019F5B
:1016C0002B46FFF785FA032154482A462B46FFF79D
:1016D0007FFA1A48001F04210160012F02D12A4815
:1016E00002990160FFF7A8FE204603B0F0BD8020FC
:1016F00018601148001F012101601048001F0422DA
:1017000002600F48001F40220260444E0025304610
:101710002A462B46FFF75CFA032130462A462B4621
:10172000FFF756FA304629462A462B46FFF750FA6D
:10173000012FD7D1D3E7C04628000B4028400B40EB
:1017400028200B4000C002400F48016812200142CF
:1017500001D0022070472420014201D001207047AF
:1017600000204822114200D1C04370472048006841
:10177000054909785422114202D0411E8841704720
:1017800041424141084670479C000020F0B581B0BD
:101790000125EE02214F0024384631462246FFF74C
:1017A00041FA38463146FFF721FA0B48FFF788FD2A
:1017B00038463146FFF71AFA384631462A46FFF7CF
:1017C00031FA0A20FFF7B8FD28462146FFF760FEF0
:1017D000204601B0F0BDC046A11100000146002026
:1017E000012902D8024A11607047C0437047C046C1
:1017F00038010020014908607047C046B000002051
:10180000FFF7E8FB00F040FB00F0BAFB0122D10239
:101810000248FFF707FA00F09FFCFCE700C0024017
:10182000F0B581B00620FEF72FFE012480210225AD
:1018300020462A46FEF71AFD210220462A46FEF7D8
:1018400015FD0027384629462A46FEF70FFD0426D7
:101850003846314600962A46FEF708FD16482946C6
:1018600032462346FEF7C8FC0A21134E3046FEF7E7
:10187000DAFC304639463A46FEF7AFFC30462146A0
:101880002246FEF7AAFC0327304639462A46FEF7D1
:10189000A4FC304600993A46FEF79FFC10213046E2
:1018A000FEF7BCFC30462146FEF78EFC3046214652
:1018B000FEF7BBFC01B0F0BD0000014080B5FFF7B2
:1018C00068F8FEF747FDFFF780F8FFF7B7F800F07C
:1018D00047F900F00BF900F0D1F800F007F800F03C
:1018E0007FF900F011FAFFF79BFF80BDF0B58BB0D8
:1018F00000240A94099408940123D903204622461F
:101900000193FEF7A5FD594A079403E0641C032CDC
:10191000564A3FD0A00011580029F7D01118049161
:10192000AE49081802900025019F039403E06D1C46
:101930007F00102DEAD0049800683842F7D00122C9
:10194000059220463946FEF791FC02980668BCB223
:101950000022069230462146FEF752FF0222304610
:101960002146FEF77AFF30462146039C059AFEF792
:101970006AFFE8B2E1B2FEF761FC08A80321017238
:101980000699C18001710895FEF72CFF079838432E
:101990000790CCE70120C403354D374E354F07E0A3
:1019A000884200D132E04000611C814200D85BE0F7
:1019B00007990842F7D0FF2800DD32E0411E3F2999
:1019C00000D94EE07944097949008F442525243B0C
:1019D0002424243B242424242424241F24242424B5
:1019E00024242424242424242424241F24242424BC
:1019F00024242424242424242424242424242424A7
:101A000024242424242424242424241F0620FEF710
:101A1000C7FF2046C7E7C6E70420FEF7C1FF022044
:101A2000C1E70121A84206DCB04210DC0A02904264
:101A3000ECD04902B4E7B8420EDC0A039042E5D08C
:101A40004903ADE70520FEF7ABFF0820ABE78A02AC
:101A50009042DBD0C902A3E78A039042D6D0C903E3
:101A60009EE78028D2D09EE70BB0F0BDB4000020E6
:101A7000FF0F0000FF3F0000FF030000F0B583B040
:101A8000002402E0641C032C2BD0A20016498958C4
:101A90000029F7D0144989180291504989180191F9
:101AA000012502E06D00290CECD102990968294258
:101AB000F8D0012220462946FEF7D8FB0198066897
:101AC000AFB2002230463946FEF79AFE0222304677
:101AD0003946FEF7C2FE032230463946FEF79AFE2B
:101AE000E0E703B0F0BDC046C0000020F0B585B00F
:101AF000002002E0401C03282ED08200174989589C
:101B00000029F7D0154989180391344989180191A2
:101B10000125029002E06D00290CEBD103990968C0
:101B20002942F8D0012204922946FEF79FFB019832
:101B30000768ACB20026384621463246FEF760FE02
:101B4000384621463246FEF788FE38462146049A3A
:101B5000FEF779FE0298DEE705B0F0BDCC0000206C
:101B6000F0B583B0002402E0641C032C31D0204681
:101B7000FFF726F9A000184909580029F4D01649A2
:101B8000091802911549081800900125019402E0F6
:101B90006D00280CE8D1029800682842F8D0012690
:101BA000204629463246FEF761FB00980768ACB232
:101BB000022238462146FEF750FE032238462146CF
:101BC000FEF728FE38462146019C3246FEF718FEF5
:101BD000DEE703B0F0BDC046D8000020542400006A
:101BE000F0B593B00125A903002420462A462B46D0
:101BF000FEF72EFC10210426019628463246FEF7F9
:101C000035FBE90328463246FEF730FBA9022046A1
:101C10003246FEF72BFB690228463246FEF726FBCA
:101C200028020FA988810C711194039433480F90F6
:101C3000BA4F3846FFF764F80BAE07207080347057
:101C40002F480C902F480D9038463146FEF7F4FF90
:101C500050247481357038463146FEF7EDFF7481AB
:101C600003200290307038463146FEF7E5FF3846D3
:101C7000019C2146FEF7BAFF0A20FEF791FE384686
:101C80002946FEF7BDFF38462946FEF778FE38465E
:101C900003992A46FEF790FF384629462A46FEF762
:101CA0008BFF0226384631462A46FEF785FF384626
:101CB00002992A46FEF780FF384621462A46FEF75B
:101CC000B1FF04A9039A0A8308960795202009907A
:101CD0000692164628050590680504903846FEF7DA
:101CE00039FEE90238462A46FEF79CFF384621466F
:101CF0003246FEF797FF13B0F0BDC04664002800DF
:101D00000100000100015000F0B585B05D4E304685
:101D1000FEF7F8FA5A4F3846FEF7F4FA1120FEF7AC
:101D20003FFE1220FEF73CFE002530462946FEF716
:101D30000EFB38462946FEF70AFB012430462146B1
:101D4000FEF7F2FA38462146FEF7EEFA3046214613
:101D5000FEF7F2FA38462146FEF7EEFA260201AF08
:101D6000BE813D711B48019003951B483946FEF723
:101D7000C7FF1A483946FEF7C3FF174F38462146BA
:101D8000FEF739FF15482146FEF735FF3846314644
:101D9000FEF72CFF114807463146FEF727FF0D20BE
:101DA000FEF7FEFD0E20FEF7FBFD0B482946FEF771
:101DB000A0FF38462946FEF79CFF074831462246D9
:101DC000FEF730FF384631462246FEF72BFF05B0BE
:101DD000F0BDC046FFFF2700004003400040074021
:101DE000F0B581B00D460090254F002438462146BD
:101DF000FEF78FFA38462146FEF796FA3846214616
:101E0000FEF7A5FA46480168022291430160016885
:101E10002022914301600168082291430160012062
:101E2000C7023E4E304639462246FEF7FBFE30469C
:101E30003946FEF7DBFEC34E30462146FEF769FA0F
:101E400030462146FEF770FA30462146FEF77FFA0B
:101E50000098D94EB461012800D080202146FFF7B8
:101E600017FB002D03D0032D03D1032503E02C46DF
:101E700001E0E44303253560204601B0F0BDC046D3
:101E80000070074000600740F0B581B0FFF77EFCAE
:101E90000024204600F050F81F4802263146FFF784
:101EA000FBF90125EF021D4839462246FEF7BAFE2E
:101EB0001A483946FEF79AFEDE480168B1430160D0
:101EC000016820229143016001680822914301606A
:101ED0001448FFF7FBF9144E30462946FFF7D0F9B6
:101EE00005213046FFF7CCF903213046FFF7C8F94A
:101EF0000E482146FFF7D0F90D482946FFF7CCF9E7
:101F0000CB4804600B48FFF775FC642000F024F810
:101F1000204601B0F0BDC046210F000000C00240C5
:101F200040400240AD110000F10D00007921000099
:101F3000891000008110000080B5F0490A68002A6D
:101F400002D00968032903D1FFF748FC002080BDB7
:101F50000020C04380BDC04601461438452801D248
:101F6000002008E00020C043582901DD582102E08C
:101F7000132903DC1421E14A11647047401E7047A5
:101F80000021C843DD4A1368012B07D01368022BD8
:101F900004D0012010605160906108467047C0462F
:101FA00070B5D64E706806281AD8C04678440079B5
:101FB00040008744333E498103030300B068411E5B
:101FC00003290ED23068022832D05B480068FFF740
:101FD00047F800282CD000200321FFF701FF70BD37
:101FE000FEE7002819D1534C2068002803D0FFF7E2
:101FF00037F80028E6D00120FFF73CF82060FFF713
:102000006BF90446356C306CFFF766F9AC4200DBC7
:1020100083E0401CFFF7C2F9D4E7FEE701207060BF
:102020000020B064F064454908604A4908603065A2
:1020300070BD484C2068002848D0FFF711F80028F0
:10204000F6D00220706070BD3C4C2068002843D060
:10205000FFF706F80028EBD003207060FFF7FAF9CD
:102060000C20F0606420FFF755F91E20FFF796F969
:1020700000252846FEF712FF31487062E84C2046E2
:102080002946FEF746F920462946FEF74DF9204637
:102090002946FEF75CF92C492046FEF756F9012542
:1020A00020462946FEF740F920462946FEF731F939
:1020B0002648FEF7F7FE70BD1E4800210160B160A2
:1020C000C820FEF7D7FF1C49086070BDC820FEF786
:1020D000D1FF206080201CE08A48016810229143D3
:1020E00001600168202291430160854801688022D7
:1020F000914301600121C90241621548FFF70AF9C5
:102100004B208000FFF71CF90520FEF7B3FF20608D
:1021100004200021FFF7BCF970BD316C326C88429D
:1021200005DDFFF7D9F8401EFFF738F94AE702202E
:10213000306047E744010020480100203C010020B6
:10214000581B00000060074000171100AC0D000094
:10215000701700004001002080B5B0480068411EA3
:10216000022905D3002801D0032800D180BDFEE755
:10217000FFF716FF80BDC04680B501200321FFF7A1
:102180002FFE80BD80B5A5488169002913D0416824
:10219000032902D100F050F880BD4168042902D023
:1021A0004168052902D100F0AFF880BD40680628DB
:1021B00001D100F003F880BDE400002070B59A481A
:1021C000FEF7B0F8954EB062954C2046FEF7AAF89F
:1021D0003063002520462946FEF79BF82046294615
:1021E000FEF7A2F820462946FEF7B1F8706A000211
:1021F000716A890109182046FEF7A7F801252046D3
:102200002946FEF791F820462946FEF782F803207A
:102210007061084801680222914301600168202230
:1022200091430160016808229143016070BDC0467E
:10223000E40000204040024070B5784E03207061F9
:10224000FFF794FA002828D1706A716A4000451A95
:10225000734C2046FEF766F8281840087062002587
:1022600020462946FEF755F820462946FEF75CF839
:1022700020462946FEF76BF8706AC001716A490171
:1022800009182046FEF761F8012520462946FEF789
:102290004BF820462946FEF73CF8F06802280CDB94
:1022A000FFF764FA012802D1F068401EF060FFF7E2
:1022B000D1F8706A0011FEF7F5FDF06801281CD115
:1022C000052070600124E1020D4881620D490A6811
:1022D000102313430B600A68202313430B6001682B
:1022E00080220A4302602046FEF7D8FD20462146A0
:1022F000FFF7CEF8C820FEF7D5FD70BDE400002042
:1023000000000B4000400B40F0B581B0434F03206C
:1023100078617868052828D1414C00252046294657
:10232000FDF7F7FF20462946FDF7FEFF2046294628
:10233000FEF70DF83E492046FEF707F80125204636
:102340002946FDF7F1FF20462946FDF7E2FFFFF79A
:1023500081F8FFF77FF8786A8010FEF7A3FD284622
:102360002946FFF795F8042055E07868042853D1F2
:102370002B48FDF7D7FF7862786A3863386B78634B
:10238000786A40107862786A3862786A4010F86239
:102390000125E80223490860234C002620463146E7
:1023A000FDF7B7FF20463146FDF7BEFF2046314618
:1023B000FDF7CDFF786A00011C49401810218843C1
:1023C000796A890058390422914309182046FDF79B
:1023D000BCFF20462946FDF7A7FF20462946FDF70A
:1023E00098FF0F4C20463146FDF793FF20463146BB
:1023F000FDF79AFF20463146FDF7A9FF0C4920461C
:10240000FDF7A3FF20462946FDF78EFF204629460B
:10241000FDF77FFF0620786001B0F0BDE4000020EA
:102420000060074024000B4000700740A0FEFFFF43
:10243000804F120002E008C8121F08C1002AFAD11A
:1024400070477047002001E001C1121F002AFBD134
:102450007047000000000B4000200B4000400B4084
:102460008024000000000020A400000034240000AC
:1024700024250000A8000020A80200004424000039
:10248000005A6202A9110000A9110000A911000060
:10249000A9110000A9110000A9110000A911000054
:1024A000A9110000A9110000A9110000A911000044
:1024B000A9110000A9110000A9110000A911000034
:1024C000A9110000A9110000A9110000A911000024
:1024D000A9110000A9110000A9110000A911000014
:1024E000A9110000A9110000A9110000A911000004
:1024F000A9110000A9110000A9110000A9110000F4
:10250000A9110000A9110000A9110000A9110000E3
:10251000A9110000A9110000A9110000010000008C
:042520000A000000AD
:04000005000000AD4A
:00000001FF
